:020000040040BA
:10000000783E0020854F4000F54E4000F54E400000
:10001000F54E4000F54E4000F54E40000000000057
:10002000000000000000000000000000F54E40004D
:10003000F54E400000000000F54E4000F54E400037
:10004000F54E4000F54E4000F54E4000F54E4000A4
:10005000F54E4000F54E4000F54E4000F54E400094
:10006000F54E4000711E4000891E4000A11E400058
:10007000B91E4000D11E4000ED414000F54E400049
:10008000F54E4000F54E4000F54E4000F54E400064
:10009000F54E4000F54E4000F54E4000F54E400054
:1000A000F54E4000F54E4000F54E4000F54E400044
:1000B000F54E4000F54E40000D1D4000251D40004E
:1000C000F54E4000F54E4000F54E40001521400031
:1000D000F54E4000F54E4000F54E4000F54E400014
:1000E000F54E4000F54E4000F54E4000F54E400004
:1000F000F54E4000F54E400010B5054C237833B95D
:10010000044B13B10448AFF300800123237010BDEA
:10011000580A002000000000008940000C4B43B149
:100120000C480D4910B5AFF300800C48036823B9A3
:1001300010BD0A48036833B97047094B002BF7D04C
:10014000BDE810401847064B002BF5D0184700BFFC
:1001500000000000008940005C0A00200089400087
:100160000000000080B483B000AF78600B467B8055
:1001700000BF0C37BD465DF8047B704780B485B086
:1001800000AF78600B46FB707B685B68FB60FB78B8
:10019000FF2B04D1FB6843F08003FB6007E0FB68A2
:1001A00023F08F03FB60FB78FA681343FB607B68E6
:1001B000FA685A6000BF1437BD465DF8047B70478B
:1001C00080B582B000AF78600B467B807B884FF6AD
:1001D000FF72934204D07B88194678680A4B98478F
:1001E0007B884FF6FF72934205D07B88012202FA8A
:1001F00003F31A4601E04FF6FF727B685A6100BFB5
:100200000837BD4680BD00BF6501400080B588B09D
:1002100000AF00200E4B98471E200E4B98470E480B
:100220000E4B98473B1D18460D4B98473B1D1946F2
:1002300009480C4B9847002107480B4B984705216C
:1002400005480A4B984700BF2037BD4680BD00BF18
:100250008D4E4000854D400000000B403D1D40008C
:10026000051B40006D1B40007D014000C1014000A6
:1002700080B584B000AF786039600023FB607B6894
:100280001F4A934207D100BF396878681D4B9847D1
:100290000346002BF8D17B681B4A934207D100BF6D
:1002A00039687868174B98470346002BF8D17B686C
:1002B000164A93420DD100BF07F10C031946786826
:1002C000134B98470346002BF6D1FB68DAB23B6824
:1002D0001A707B680F4A93420DD100BF07F10C03DF
:1002E000194678680A4B98470346002BF6D1FB68FD
:1002F000DAB23B681A7000BF1037BD4680BD00BF40
:1003000000060E407B1F40000006064000000A4029
:100310009741400000400A4080B584B000AFF860CB
:10032000B9607A6009E0B968F868084B98477B685B
:10033000013B7B60BB680133BB607B68002BF2D163
:10034000002318461037BD4680BD00BF7102400033
:1003500080B483B000AFEFF310837B607B68002B29
:100360000CBF01230023DBB23B6072B6BFF35F8F8B
:10037000044B00221A703B6818460C37BD465DF8E6
:10038000047B7047A200002080B483B000AF786087
:100390007B68002B14BF01230023DBB218460C3707
:1003A000BD465DF8047B704780B582B000AF7860D1
:1003B0007868074B98470346002B05D0054B012270
:1003C0001A70BFF35F8F62B600BF0837BD4680BDAD
:1003D00089034000A200002080B483B000AF002356
:1003E000BB71444B00221A70BB79434A002122F8AA
:1003F0001310BA79414913469B0013445B000B4428
:10040000A1221A70BA793D4913469B0013445B0040
:100410000B44013320221A70BA79384913469B00E5
:1004200013445B000B44023300221A80BB79002B7B
:1004300002D10023FB7102E00023FB7100BFBA79F7
:10044000FB7998B22D4913469B0013445B000B4483
:10045000043302461A80BA79284913469B00134494
:100460005B000B44063302221A80BA7923491346F3
:100470009B0013445B000B44083300221A80BA79B6
:100480001F491346DB009B1A0B4400221A700022FE
:1004900062F03D025A70002242F001029A7000227E
:1004A000DA70BA7916491346DB009B1A0B44043301
:1004B00000221A70BA7912491346DB009B1A0B44CA
:1004C000053300221A70BA790D491346DB009B1AD6
:1004D0000B44063308221A70064B1B78DBB201333B
:1004E000DAB2044B1A70012318460C37BD465DF88A
:1004F000047B70478A0A00207C0A0020800A0020C2
:10050000740A002080B582B000AF0023FB712D4B30
:1005100000221A70FB792C4A0021D154FB792B4A16
:100520000021D154FB792A4A0021D154FB79294A70
:10053000002122F82310FB79264A9B001344002255
:100540005A80FB79244A002122F81310FB791846BF
:10055000224B9847FB79224A0021D154FB79214A4A
:100560000021D154FB79204A002122F82310FB7985
:100570001D4A9B00134400225A80FB791B4A00212C
:1005800022F81310FB791846194B9847034683F05D
:100590000103DBB2002B01D000230FE0094B1B78D5
:1005A000DBB20133DAB2074B1A70064B1B78DBB2B1
:1005B000012B02D10F4B01221A7001231846083774
:1005C000BD4680BD8B0A0020AC0B0020B00B002084
:1005D000A40B0020A00B0020A80B0020A5094000C0
:1005E0001C0B0020140B0020100B0020180B002007
:1005F000950740008C0A002080B400AF054B1B78A3
:10060000DBB2013BDAB2034B1A7000BFBD465DF8A6
:10061000047B70478A0A002080B483B000AF094B86
:100620001B78DBB2013BDAB2064B1A70054B1B7824
:10063000FB71054B00221A7000BF0C37BD465DF8F8
:10064000047B70478B0A00208C0A002080B582B0A2
:1006500000AF2A4B98470346FB71294B1B785BB2CE
:10066000002B1CDA264B1B7803F06003202B16D1DD
:10067000234B5B78212B12D1214BDB88072B01D038
:10068000002337E0FA791346DB009B1A1D4A134416
:100690001B4A93601A4B07229A8101232AE0184BC8
:1006A0001B785BB2002B24DB154B1B7803F0600337
:1006B000202B1ED1124B5B78202B02D0222B16D080
:1006C00017E00F4BDB88072B01D0002312E00C4B07
:1006D0000D4A1A61FA791346DB009B1A094A134442
:1006E000074A9360064B07229A81012302E0012307
:1006F00000E0002318460837BD4680BD490740008A
:10070000340E0020740A00207907400080B400AF46
:1007100000231846BD465DF8047B704780B400AFE7
:1007200000231846BD465DF8047B704780B500AFD6
:10073000034B1B781846034B984700BF80BD00BF92
:10074000B10B0020A509400080B483B000AF094B75
:100750009B88DBB2002B02D10023FB7102E0002357
:10076000FB7100BFFB7918460C37BD465DF8047B72
:10077000704700BF340E002080B582B000AF044B3C
:1007800098470346FB7100BF0837BD4680BD00BFD8
:100790004907400090B589B002AF0346FB710023C2
:1007A000FB712B4B98473861FB792A4AD35CFB736A
:1007B000FB79294AD35CDBB2002B0ED1FB79274AA7
:1007C00032F813309AB2F979FB7B254849000B4483
:1007D00030F813309BB29A4204D23869214B9847C3
:1007E000002331E0FB791D4A002122F81310FB7928
:1007F000FA7B002A0CBF01220022D2B21146154A10
:10080000D154FB79144A0121D1543869154B9847CA
:10081000FB791846144B9847FB79002B02D1022331
:10082000FB7502E00223FB7500BFFA79FB7B5200E7
:1008300013449B010D4A1A44F87D0D4B009340234D
:1008400001210C4CA047034618461C37BD4690BDFD
:1008500051034000140B00201C0B0020180B00203B
:10086000100B0020A9034000DD0B4000900A00207F
:1008700079084000CD28400090B587B002AF03460C
:100880003960FB711346BB71BB79022B02D1002387
:10089000FB7302E00023FB7300BFFB79002B2ED11A
:1008A000FB7B194AD35CDBB2002B0CBF0123002376
:1008B000DBB2BB733B68002B0ED1FA7BBB7B5200D3
:1008C00013449B01114A1A44B879114B00934023F9
:1008D0000121104CA04713E0FA7BBB7B396888B23A
:1008E0000D4952001344024621F81320FB7B0B4AAA
:1008F0000021D154FB7B1846094B984700E000BF0C
:100900001437BD4690BD00BF140B0020900A002094
:1009100079084000CD284000100B00201C0B00205F
:100920009507400080B584B000AF03463960FB7185
:100930001346BB71BB79812B02D10023FB7302E00C
:100940000023FB7300BFFB79002B1DD1FB7BFA7BDF
:100950000F498A5CD2B2002A0CBF01220022D2B217
:1009600011460C4A5B000B44002122F81310FB7B5C
:10097000094A0021D154FB7B084A0021D154FB7B5A
:100980001846074B984700E000BF1037BD4680BDB2
:10099000A40B0020A00B0020B00B0020AC0B00200B
:1009A000A509400090B589B002AF0346FB71002352
:1009B000FB71FB79624AD35CDBB2002B40F0BA805A
:1009C000604B98470346002B09D0FB795E4A32F80A
:1009D00013405E4B984703469C420AD1ADE0FB7939
:1009E000594A32F813405A4B984703469C4200F04C
:1009F000A380584B98473861FB79574AD35CFB7505
:100A0000FA79FB7D55495200134431F81330002B1D
:100A10001FD1534B1B8801339AB2514B1A80494B5B
:100A20009847034683F00103DBB2002B03D04C4B05
:100A30001B88632B09D9434B98470346002B08D0EA
:100A4000474B1B88B3F5487F03D23869454B98471D
:100A500073E0434B00221A80FB79434AD35CDBB23C
:100A600083F00103DBB2002B0AD0FB79FA7D002A68
:100A70000CBF01220022D2B21146374AD15406E0FF
:100A8000FB7D002B0CBF01230023DBB2FB75FB7940
:100A90002B4A0121D1543869324B9847FA79FB7DB2
:100AA0002E495200134431F81330402B14BF012358
:100AB0000023FB73FB7B002B16D0224B9847034689
:100AC000002B08D0FC79214B984703461A461E4B51
:100AD00023F814200DE0FC791D4B984703461A4675
:100AE000194B23F8142004E0FB79174A002122F85F
:100AF0001310FB79002B02D18123BB7502E0812307
:100B0000BB7500BFFA79FB7D520013449B01174A65
:100B10009C18FA79FB7D11495200134431F81330C7
:100B20001A46F97BB87D124B009313462246114CAE
:100B3000A04702E000BF00E000BF1C37BD4690BDEB
:100B4000AC0B0020DD224000A80B0020A1234000B8
:100B50008123400051034000A40B0020A00B002083
:100B6000B20B0020A9034000B00B0020200B002096
:100B700025094000CD28400080B586B000AF03466F
:100B8000FB710023FB71104B98477861FB790F4A8A
:100B900032F813307B82FB79FA790D498A5CD2B244
:100BA00011460C4A5B000B4432F813309BB21A46D4
:100BB0007B8AD31AFB607869074B9847FB68184615
:100BC0001837BD4680BD00BF51034000180B002000
:100BD000140B0020100B0020A903400080B582B048
:100BE00000AF0346FB71FB791846064B9847034656
:100BF000002B14BF01230023DBB218460837BD4683
:100C000080BD00BF790B400080B400AF064B1B686D
:100C10001B68054A12681268528892B2134418463B
:100C2000BD465DF8047B7047C00B002080B584B0E2
:100C300000AF78600B46FB70124B9847F8607B68FA
:100C40001B781A467B6813447B6010E07B685B78F6
:100C5000042B11D07B685B78FA789A4201D17B68CB
:100C60000CE07B681B781A467B6813447B60FA684B
:100C70007B689A42EAD800E000BF0023184610378C
:100C8000BD4680BD090C400080B584B000AF03466E
:100C90000A46FB711346BB711E4B1B78002B01D11A
:100CA000002332E01C4B1B681B681B79FA799A42BF
:100CB00001D3002329E0184B1B681B68174A1360F7
:100CC000174B9847F8601AE0144B1B685B78042BAD
:100CD0000DD1124B1B689B78FA799A4207D10F4BC2
:100CE0001B68DB78BA799A4201D101230DE00B4BE6
:100CF0001B680A4A126812781344084A1360074BAB
:100D00001B68FA689A42DFD8002318461037BD46A0
:100D100080BD00BFBC0B0020C00B0020C40B002016
:100D2000090C400080B584B000AF0346FB71FB792D
:100D3000002118461E4B9847034683F00103DBB29F
:100D4000002B01D000232FE01A4B1B685A68FB7957
:100D50009B0013441B68BB60BB68DB689847034675
:100D60001A46FB7911461846114B9847034683F003
:100D70000103DBB2002B01D0002315E00E4B1B68F2
:100D8000FB600521F8680D4B9847F860FB68002B65
:100D900005D0FB689B781846094B9847F1E700BFE0
:100DA000BB685B689847012318461037BD4680BD75
:100DB000890C4000C00B0020C40B00202D0C40000B
:100DC000C925400080B584B000AF03460A46FB71D8
:100DD0001346BB71BA79FB79114618461A4B9847EE
:100DE000034683F00103DBB2002B01D0002327E090
:100DF000164B1B68FB600521F868154B9847F86097
:100E0000FB68002B11D0FB689878FB68D978FB68E9
:100E10009B889BB21A460F4B9847034683F0010309
:100E2000DBB2002BE7D000230AE000BF0A4B1B68AF
:100E30005A68FB799B0013441B681B68984703465C
:100E400018461037BD4680BD890C4000C40B0020F9
:100E50002D0C4000D9234000C00B002080B582B08B
:100E600000AF0F4B1B78002B10D00023FB7106E066
:100E7000FB7918460B4B9847FB790133FB710A4B02
:100E80001B681B681B79FA799A42F1D3044B002244
:100E90001A70064B01221A8000BF0837BD4680BD7C
:100EA000BC0B0020250D4000C00B0020B40B00201F
:100EB00080B582B000AF144B1B78002B1FD00023ED
:100EC000FB7115E0114B1B685A68FB799B001344BA
:100ED0001B681B69002B08D00C4B1B685A68FB79F8
:100EE0009B0013441B681B699847FB790133FB7116
:100EF000064B1B681B681B79FA799A42E2D300BF44
:100F00000837BD4680BD00BFBC0B0020C00B0020D1
:100F100080B500AF064BDB88022B01D0002304E034
:100F200002210448044B98470123184680BD00BFA6
:100F3000340E0020B40B0020B123400080B500AF78
:100F40000B4BDB88022B01D000230EE0084B9B8863
:100F5000DBB21846074B984703469AB2064B1A80F5
:100F600002210548054B98470123184680BD00BF64
:100F7000340E002039264000C80B0020B123400069
:100F800080B400AF0C4BDB88002B01D000230DE0B8
:100F9000094B5B88012B08D1084B1B8823F0020307
:100FA0009AB2064B1A80012300E000231846BD4682
:100FB0005DF8047B704700BF340E0020B40B0020A6
:100FC00080B500AF0A4BDB88002B01D000230CE07A
:100FD000074B5B88002B07D1054B9B88DBB218467B
:100FE000044B9847034600E00023184680BD00BF2D
:100FF000340E0020A127400080B400AF094BDB88ED
:10100000002B01D0002307E0064B5B88012B02D0A8
:1010100000BF002300E000231846BD465DF8047BB6
:10102000704700BF340E002080B500AF0D4BDB8849
:10103000002B01D0002312E00A4B5B88002B0DD15E
:10104000084B9B88DBB21846074B9847054B9B889B
:10105000DBB21846054B9847034600E000231846CC
:1010600080BD00BF340E0020252A4000AD26400080
:1010700080B500AF054B5B88DBB203F07F03DBB2CA
:101080001846034B984700BF80BD00BF340E0020B8
:10109000ED22400080B400AF074BDB88002B01D06D
:1010A000002303E0044B054A1A6101231846BD469C
:1010B0005DF8047B704700BF340E002071104000C3
:1010C00080B582B000AF0023BB711C4B5B88DBB2E4
:1010D000002B08D104211A481A4B984700BFBB794E
:1010E000002B25D001E0002323E00023FB710DE05D
:1010F000FB79FA7939680A44127891B2124A5B0096
:1011000013440A465A80FB790133FB71FA79BB79A3
:101110009A42EDD3BB790133DBB25B00DAB20A4B02
:101120001A70094B1B789BB219460748054B984724
:10113000012318460837BD4680BD00BF340E00208D
:101140009C000020B1234000A000002080B582B0A8
:1011500000AF414B5B88FB713F4B5B881B0A9BB226
:10116000DBB2013B0E2B65D801A252F823F000BF81
:10117000AD114000C3114000211240003512400063
:101180003512400035124000351240003512400043
:101190003512400035124000351240003512400033
:1011A0003512400035124000FF1140002B4B1A68E9
:1011B0002A4B1B681B789BB219461046284B984750
:1011C0003BE0264B1B685B7CFA799A4201D30023F3
:1011D0003EE0224B5A68FB79DB00134418681F4B32
:1011E0005A68FB79DB0013441B685B889BB2194685
:1011F0001B4B9847184B9B6802225A701DE0174BF7
:101200009B68002B01D1002322E0144B9A68134BFA
:101210009B685B889BB219461046114B98470CE0BF
:10122000104B9847034683F00103DBB2002B03D039
:1012300000230DE000230BE000BF074BDA88064BCC
:101240009B899A4203D2044BDA88034B9A8101238B
:1012500018460837BD4680BD340E0020900000209F
:10126000B1234000C110400080B500AF064BDB88C1
:10127000012B01D0002304E001210448044B9847CE
:101280000123184680BD00BF340E0020BC0B002097
:10129000B123400080B582B000AF274BDB88002B24
:1012A00001D0002343E0254B98470346002B01D192
:1012B00000233CE0204B5B88DBB2214A1268527C61
:1012C000934201DD002332E01E4B98471A4B5B88A6
:1012D000DAB21D4B1A701C4B1B78002B01D1012375
:1012E00025E0174B5A68184B1B7803F10053013B5C
:1012F000DB001344154A13600023FB710FE0FB79F8
:1013000000211846124B9847034683F00103DBB2D5
:10131000002B01D000230AE0FB790133FB710B4B5A
:101320001B681B681B79FA799A42E8D30123184697
:101330000837BD4680BD00BF340E00205123400059
:10134000900000205D0E4000BC0B0020C00B002070
:10135000C50D400080B582B000AF1E4BDB88012B6D
:1013600001D0002332E01C4B1B78002B01D100235D
:101370002CE0184B9B88FB71184B1B681B681B7972
:10138000FA799A4201D3002320E0FB790021184624
:10139000134B9847034683F00103DBB2002B01D0C7
:1013A000002313E00D4B1B685A68FB799B00134424
:1013B0001B683B603B68DB68984703461A46094B4D
:1013C0001A7001210748084B98470123184608372F
:1013D000BD4680BD340E0020BC0B0020C00B002099
:1013E000890C4000B80B0020B123400080B582B0CA
:1013F00000AF144BDB88002B01D000231EE0124B02
:101400001B78002B01D1002318E00E4B9B88FB7149
:101410000C4B5B88BB71FB7918460C4B9847034615
:1014200083F00103DBB2002B01D0002306E0BA7980
:10143000FB7911461846064B98470346184608376D
:10144000BD4680BD340E0020BC0B0020250D4000A1
:10145000C50D400080B500AF4D4B1B785BB2002B33
:101460003EDA4B4BDB88002B01D100238EE0484B4A
:101470001B7803F01F03002B14D1454B5B78062B20
:1014800008D0082B0AD0002B00D00BE0414B984726
:1014900003467BE0404B9847034677E03F4B984735
:1014A000034673E03A4B1B7803F01F03012B08D16E
:1014B000374B5B780A2B00D003E0394B9847034643
:1014C00064E0334B1B7803F01F03022B5DD1304BDC
:1014D0005B78002B00D058E0324B9847034655E02C
:1014E0002B4B1B7803F01F03002B2AD1284B5B7872
:1014F000013B082B24D801A252F823F02915400003
:1015000041154000311540004115400021154000B3
:10151000411540004115400041154000391540007B
:10152000214B9847034631E0204B984703462DE076
:101530001F4B9847034629E01E4B9847034625E07A
:1015400000BF134B1B7803F01F03012B08D1104B76
:101550005B780B2B00D003E0174B9847034615E050
:101560000B4B1B7803F01F03022B0ED1084B5B784B
:10157000012B02D0032B04D007E0104B9847034601
:1015800004E00F4B9847034600E00023184680BD57
:10159000340E0020110F40004D1140006912400030
:1015A000551340003D0F400095104000810F400052
:1015B000F90F400095124000ED134000C10F4000AC
:1015C0002910400080B582B000AF204B1B78002B63
:1015D00001D1002336E01E4B9B88FB711D4B1B681D
:1015E0001B681B79FA799A4201D300232AE0FB7920
:1015F00000211846184B9847034683F00103DBB2DD
:10160000002B01D000231DE0124B1B685A68FB79A8
:101610009B0013441B683B603B68DB6898470346AC
:101620001A46FB79114618460B4B9847034683F040
:101630000103DBB2002B01D0002303E03B689B6871
:101640009847034618460837BD4680BDBC0B0020AE
:10165000340E0020C00B0020890C400080B582B001
:1016600000AF1E4B1B78002B01D1002332E01C4B36
:101670009B88FB710023FB7124E01A4B1B685A689E
:10168000FB799B0013441B683B603B68DB68984711
:1016900003461A46FB7911461846134B98470346F2
:1016A00083F00103DBB2002B01D0002312E03B6882
:1016B0009B6898470346002B01D001230AE0FB7981
:1016C0000133FB71074B1B681B681B79FA799A423F
:1016D000D3D3002318460837BD4680BDBC0B00207D
:1016E000340E0020C00B0020890C400080B500AFF4
:1016F0001E4B00229A811D4B00221A611B4B0022B7
:101700005A611A4B1B785BB2002B05DA174BDB884A
:10171000002B01D1002327E0144B1B7803F060035A
:10172000002B06D1124B98470346002B01D0012312
:101730001AE00E4B1B7803F01F03012B06D10D4B53
:1017400098470346002B01D001230DE0074B1B787F
:1017500003F01F03022B06D1074B98470346002BCB
:1017600001D0012300E00023184680BD340E002084
:1017700055144000C51540005D16400080B586B088
:1017800000AFF860B9607A6000237B61FB68002BD2
:1017900012D04FF0FF3313E00B4B1B680B4A12685B
:1017A000B96810469847BB680133BB607B69013359
:1017B0007B617B68013B7B607B68002BECDC7B6999
:1017C00018461837BD4680BD6C0D0020740D0020F2
:1017D00080B586B000AFF860B9607A6000237B61A5
:1017E000FB68012B1ED0FB68022B1BD0FB68032B70
:1017F00018D04FF0FF3319E00E4B1A680E4B1868E3
:10180000BB68591CB9601B78194690470346002BEA
:1018100002DA4FF0FF3309E07B6901337B617B68BB
:10182000013B7B607B68002BE6D17B69184618374B
:10183000BD4680BD700D0020740D002080B483B0C3
:1018400000AFEFF310837B607B68002B0CBF01239C
:101850000023DBB23B6072B6BFF35F8F044B002204
:101860001A703B6818460C37BD465DF8047B70471C
:10187000A200002080B483B000AF78607B68002BAA
:1018800014BF01230023DBB218460C37BD465DF8B8
:10189000047B704780B582B000AF78607868074BF2
:1018A00098470346002B05D0054B01221A70BFF361
:1018B0005F8F62B600BF0837BD4680BD7518400017
:1018C000A200002080B483B000AF78607B681B6BFF
:1018D00018460C37BD465DF8047B704780B483B072
:1018E00000AF78607B68DB6A18460C37BD465DF850
:1018F000047B704780B584B000AF0346FB71FB7971
:101900000A4AD35CFF2B00D1FEE7094B9847F860E9
:10191000FB79064AD25C0132D1B2044AD154F8684C
:10192000044B984700BF1037BD4680BD640D0020B2
:101930003D1840009518400080B483B000AF786037
:101940007B68072B25D801A252F823F06D194000BF
:1019500073194000791940007F1940008319400035
:10196000871940008B1940008F1940004FF4FA434B
:1019700010E04FF400430DE04FF400430AE0084B41
:1019800008E0084B06E0084B04E0074B02E0064B7A
:1019900000E0002318460C37BD465DF8047B704715
:1019A00000093D0000127A00001BB70080B500AFAF
:1019B0000620034B984703461B01184680BD00BF15
:1019C0003919400080B500AF024B984703465B08C9
:1019D000184680BDAD19400080B483B000AF786078
:1019E0007B68094A934201D1012306E07B68074ADC
:1019F000934201D1002300E0002318460C37BD4676
:101A00005DF8047B704700BF00400B4000000B40B6
:101A100080B483B000AF78607B68094A934201D1FB
:101A20001F2306E07B68074A934201D11E2300E092
:101A30001E2318460C37BD465DF8047B704700BF77
:101A400000400B4000000B4080B485B000AF7860D0
:101A500039600023FB603B68DB7D002B02D04FF038
:101A6000004200E000223B689B7D002B02D04FF437
:101A7000000300E000231A433B6859683B689B68F9
:101A80005B00B1FBF3F3013B1B029BB21A433B68C3
:101A90001B691A433B681B7D1B0603F070631A43E6
:101AA0003B685B7D1B0703F040531A433B68DB68D0
:101AB0001343FB607B68FA685A603B681B7E002B0F
:101AC00002D04FF0807200E000223B681B681A438E
:101AD0003B685B7E002B02D04FF0007300E00023D8
:101AE0001A437B689A603B689B7E1B0203F440723A
:101AF0007B68C3F8942000BF1437BD465DF8047BB3
:101B00007047000080B582B000AF78607B6800222B
:101B10001A60144B984702467B685A607B68124AE9
:101B20009A607B684FF48022DA607B6800221A6139
:101B30007B6802221A757B6801225A757B68012234
:101B40009A757B680022DA757B6801221A767B68B9
:101B500001225A767B6801229A7600BF0837BD467B
:101B600080BD00BFC5194000808D5B0080B584B08A
:101B700000AF7860396078681D4B9847034603F0E2
:101B80008073B3F1807F01D119232CE07B6801229F
:101B90001A6039687868174B98477B68164A9342F1
:101BA0000DD10023FB6007E0144AFB68002142F8D6
:101BB0002310FB680133FB60FB68162BF4D97B68AC
:101BC0000F4A93420ED10023FB6008E00B4AFB68EA
:101BD0001733002142F82310FB680133FB60FB68D8
:101BE000162BF3D9002318461037BD4680BD00BF21
:101BF000C5184000491A400000000B40780D002035
:101C000000400B4080B582B000AF03463960FB71E5
:101C1000FA790E4913465B001344DB009B1A3A68BD
:101C2000134451F82330002B0BD0FA79074913469F
:101C30005B001344DB009B1A3A68134451F82330CD
:101C4000984700BF0837BD4680BD00BF780D002013
:101C500090B587B000AF78607868284B9847044605
:101C60007868274B984703462340FB607868254BEC
:101C70009847386100237B6139E07B690F2B0FD8CF
:101C800001227B6902FA03F31A46FB681340002B1A
:101C90002AD03B69DBB2796918461B4B984723E091
:101CA0007B69142B10D87B690833012202FA03F3F5
:101CB0001A46FB681340002B16D03B69DBB27969EA
:101CC0001846114B98470FE07B690933012202FA4D
:101CD00003F31A46FB681340002B05D03B69DBB2C7
:101CE00079691846084B98477B6901337B617B69AA
:101CF000162BC2D900BF1C37BD4690BDC518400089
:101D0000DD184000D9194000051C400080B500AF27
:101D10000248034B984700BF80BD00BF00000B4046
:101D2000511C400080B500AF0248034B984700BFEC
:101D300080BD00BF00400B40511C400080B584B006
:101D400000AF78607868064B9847F860F868054BF4
:101D500098470220044B984700BF1037BD4680BD0E
:101D6000111A4000854D4000F518400080B483B042
:101D700000AF78607B68DB6C18460C37BD465DF8B9
:101D8000047B704780B483B000AF78607B689B6C45
:101D900018460C37BD465DF8047B704780B584B0AB
:101DA00000AF7860396078682C4B9847F8607868A5
:101DB0002B4B98470246FB681340FB60FB68002BE7
:101DC0003CD00023BB6034E0264ABB681B011344AF
:101DD0001A683B689A4226D1224ABB681B01134409
:101DE00004331A68FB681340002B1CD01D4ABB68E3
:101DF0001B0113440C331B681A49BA6812010A44C8
:101E000010681849BA6812010A440432126811466F
:101E10009847144ABB681B01134404331B68DB4317
:101E2000FA681340FB60BB680133BB60BB68062BDC
:101E300003D8FB68002BC7D100E000BF0A4B1B682A
:101E4000002B07D0094B1B68002B03D0074B1B68E6
:101E50007868984700BF1037BD4680BD6D1D4000B3
:101E6000851D4000CC0B0020300E00203C0C0020D3
:101E700080B500AF09210248024B984700BF80BDE2
:101E8000000E0E409D1D400080B500AF0A210248A3
:101E9000024B984700BF80BD00100E409D1D4000C2
:101EA00080B500AF0B210248024B984700BF80BDB0
:101EB00000120E409D1D400080B500AF0C2102486D
:101EC000024B984700BF80BD00140E409D1D40008E
:101ED00080B500AF0D210248024B984700BF80BD7E
:101EE00000160E409D1D400080B485B000AF7860A4
:101EF00039600023FB607B68AC221A603B681A687B
:101F00003B685B68B2FBF3F31B09FB60FB68002BCB
:101F100003D0FB68B3F5803F01D301230FE07B685A
:101F2000FA681A623B689A687B685A607B6840F27C
:101F30000222C3F820217B6850221A600023184631
:101F40001437BD465DF8047B704780B483B000AFA2
:101F500078600B46FB707B685B6903F00203002B23
:101F600001D1012303E0FA787B68DA610023184687
:101F70000C37BD465DF8047B704780B483B000AF7A
:101F8000786039607B685B6903F00103002B01D145
:101F9000012305E07B689B69DAB23B681A70002375
:101FA00018460C37BD465DF8047B704780B483B09B
:101FB00000AFEFF310837B607B68002B0CBF012325
:101FC0000023DBB23B6072B6BFF35F8F044B00228D
:101FD0001A703B6818460C37BD465DF8047B7047A5
:101FE000A200002080B483B000AF78607B68002B33
:101FF00014BF01230023DBB218460C37BD465DF841
:10200000047B704780B582B000AF78607868074B7A
:1020100098470346002B05D0054B01221A70BFF3E9
:102020005F8F62B600BF0837BD4680BDE51F400028
:10203000A200002080B584B000AF0346FB71FB799D
:102040000A4AD35CFF2B00D1FEE7094B9847F860A2
:10205000FB79064AD25C0132D1B2044AD154F86805
:10206000044B984700BF1037BD4680BD640D00206B
:10207000AD1F40000520400080B584B000AF03468E
:10208000FB71FB790A4AD35C002B00D1FEE7094BB8
:102090009847F860FB79064AD25C013AD1B2044A0B
:1020A000D154F868044B984700BF1037BD4680BD37
:1020B000640D0020AD1F40000520400080B582B0B7
:1020C00000AF0346FB71FB7983F00103DBB2002B09
:1020D00006D00D4B1B78002B02D002200B4B9847EB
:1020E000FB79002B09D0084B1B7883F00103DBB28E
:1020F000002B02D00220064B9847034AFB7913704D
:1021000000BF0837BD4680BD400C0020792040004C
:102110003520400080B500AF634B9847034683F0FD
:102120000103DBB2002B0CD0604BDB6903F480733E
:10213000002B06D172B6BFF35F8F5D4B00221A7081
:10214000B1E023205B4B9847584B9B6903F4006335
:10215000002B0CD0554BDB6903F40063002B06D039
:10216000524B4FF400621A62534B984799E0534B1D
:1021700098470346002B40F09180514B9847034607
:10218000002B40F08D80494B9B6903F40053002BDA
:1021900005D0464BDB6903F40053002B17D1434BAA
:1021A0009B6903F40073002B05D0404BDB6903F4FB
:1021B0000073002B0BD13D4B9B6903F48063002B14
:1021C0001DD03A4BDB6903F48063002B17D0374BEB
:1021D0004FF418521A62354B4FF418525A610120CD
:1021E000384B9847314B4FF480721A622F4B4FF4A3
:1021F00080721A612D4B4FF400621A6151E02B4B33
:102200009B6903F48073002B20D0284BDB6903F417
:102210008073002B1AD0254B4FF480721A62234B27
:102220004FF480725A61214B4FF400521A611F4BD8
:102230004FF400721A611D4B4FF480621A61232023
:10224000214B984700201F4B98472AE0174BDB692A
:1022500003F48053002B25D0144B4FF480521A62A4
:102260001A4B98471A4B9847104A104B5B6823F05B
:10227000010353600D4A0D4B5B6823F0020353606A
:10228000144B9847144B9847084B4FF480721A61CF
:10229000064B4FF400621A6100BF02E000BF00E08D
:1022A00000BF00BF00BF80BDC54E400000400840D9
:1022B000A2000020854D4000B10E4000F1334000E7
:1022C000493A4000BD204000094E4000993440008A
:1022D0005D0E4000412C4000E92C400080B400AF6E
:1022E00000231846BD465DF8047B704780B483B078
:1022F00000AF0346FB71154A144B5B6823F00103E2
:102300005360124A114B9B6823F480739360FB79EE
:10231000002B15D00D490D4B9B6823F07F02FB79F4
:1023200003F07F0313438B60084A084B9B6843F418
:1023300080739360054A054B5B6843F0010353606B
:1023400000BF0C37BD465DF8047B70470040084075
:1023500080B400AF094B5B6803F00103002B06D08B
:10236000064B9B68DBB203F07F03DBB200E0002387
:102370001846BD465DF8047B704700BF004008402A
:1023800080B400AF054B1B689BB2C3F30A039BB23A
:102390001846BD465DF8047B704700BF004008400A
:1023A00080B400AF00231846BD465DF8047B70473B
:1023B00080B483B000AF78600B467B80054A7B68B1
:1023C0009360044A7B88938100BF0C37BD465DF85B
:1023D000047B7047340E002080B487B000AF034602
:1023E000FB710B46BB711346BB80FB7903F0800386
:1023F000002B14BF01230023FB75BB7903F00303FB
:10240000012B0CBF01230023BB75FB7903F00F03E5
:10241000FB71FB79032B01D90023CAE0684AFB79E1
:102420000C3352F8233003F40043002B01D0002377
:10243000BFE0BB7D002B07D0FB79002B02D0FB79DE
:10244000032B01D10023B4E0BA88FB79042B02D01E
:10245000FB79052B02D14FF4007300E040239A4230
:1024600001DD0023A5E0FB795A1E13469B001344AF
:102470009B00544A13443B61BB88C3F3090399B2E0
:102480003A69138A61F3090313823A69537C6FF343
:10249000C71353743A69537C6FF345135374FB7D30
:1024A000002B04D03A69537C6FF38303537444497F
:1024B000434B9A6AFB79012000FA03F313438B62C2
:1024C00000BF3F4B9A6AFB79012101FA03F31340E5
:1024D000002BF6D03A493A4B9A6AFB79012000FA70
:1024E00003F3DB4313408B62354AFB790C3352F81C
:1024F0002330FB60FB6843F04F03FB60FB6823F471
:10250000074323F08003FB60FB7D002B0DD0BB79DC
:102510001B0203F4407343F4806303F4E06343F469
:10252000004248F28073134008E0BB791B0203F4B9
:10253000407343F4004248F280731340FA68134337
:10254000FB601F49FB79FA680C3341F8232000BF78
:102550001B4AFB790C3352F82320FB7D002B0AD059
:10256000BB791B0203F4407343F4806303F4E0631C
:1025700043F4004305E0BB791B0203F4407343F4CA
:1025800000431A40FB7D002B0AD0BB791B0203F4E9
:10259000407343F4806303F4E06343F4004305E0D5
:1025A000BB791B0203F4407343F400439A42CFD13A
:1025B000012318461C37BD465DF8047B704700BFF9
:1025C00000400840480C002080B584B000AF0346AE
:1025D000FB71FB7903F00F03FB73FB7B032B22D80A
:1025E000134AFB7B0C3352F82330BB60BB6843F0CB
:1025F0004F03BB60BB6823F40043BB600C49FB7B0B
:10260000BA680C3341F8232000BF094AFB7B0C3326
:1026100052F8233003F40043002BF6D1FB7918461F
:10262000044B984700E000BF1037BD4680BD00BF97
:1026300000400840DD34400080B485B000AF034660
:10264000FB71FB7903F00F03FB73FB7B5A1E1346F0
:102650009B0013449B00134A1344BB60FB7B032B7A
:1026600001D9002317E0BB685B7C03F02003DBB2D9
:10267000002B0AD10C4AFB7903F00F030C3352F8FC
:10268000233003F02803002B01D0012300E00023B6
:1026900003F00103DBB218461437BD465DF8047B36
:1026A000704700BF480C00200040084080B586B04D
:1026B00000AF0346FB71FB7903F08003002B14BFCE
:1026C00001230023FB75FB7903F00F03BB75BB7D72
:1026D0005A1E13469B0013449B002D4A13443B6132
:1026E000BB7D032B01D900234DE02A4B9847F860AE
:1026F000FB7D002B1FD0284ABB7D0C3352F82330C2
:1027000003F01003002B06D13B695B7CC3F381030C
:10271000DBB2012B0FDD3A69537C43F02003537485
:102720001D4ABB7D012101FA03F31361F8681B4BBD
:102730009847012327E0184ABB7D0C3352F8233019
:10274000BB60BB6843F04F03BB60BB6843F0200332
:10275000BB601149BB7DBA680C3341F8232000BF30
:102760000D4ABB7D0C3352F8233003F02003202B9D
:10277000F6D1094ABB7D012101FA03F31361F86820
:10278000064B9847012318461837BD4680BD00BF49
:10279000480C0020AD1F40000040084005204000CC
:1027A00080B586B000AF0346FB71FB7903F00F03E1
:1027B000FB71FB79032B01D900237FE0FB795A1EC3
:1027C00013469B0013449B003E4A13447B617A6985
:1027D000537C6FF3451353743B4AFB790C3352F827
:1027E000233003F02003002B67D0374AFB790C33EA
:1027F00052F823303B613B6943F04F033B613B6937
:1028000023F020033B613049FB793A690C3341F8EE
:10281000232000BF2C4AFB790C3352F8233003F0FD
:102820002003002BF6D12849274B9A6AFB79012017
:1028300000FA03F313438B6200BF234B9A6AFB79C0
:10284000012101FA03F31340002BF6D01E491E4B61
:102850009A6AFB79012000FA03F3DB4313408B6291
:10286000194AFB790C3352F82330FB60FB6843F0C4
:102870004F03FB60FB6823F00803FB601249FB7900
:10288000FA680C3341F8232000BF0F4AFB790C3360
:1028900052F8233003F00803002BF6D17B695B7CF0
:1028A00003F01003DBB2002B07D07A69537C6FF37F
:1028B000041353747B691B68984701231846183723
:1028C000BD4680BD480C00200040084080B588B05F
:1028D00000AFBA607B600346FB730B46BB73FB7BA8
:1028E00003F08003002B14BF01230023FB77FB7B45
:1028F00003F00F03FB73FB7B032B01D9002383E061
:10290000FB7B5A1E13469B0013449B00404A134412
:10291000BB61404AFB7B0C3352F8233003F4004385
:10292000002B0FD0BB695B7C03F02003DBB2002BD4
:1029300008D1384AFB7B0C3352F8233003F02003D4
:10294000002B01D000235FE0334B98477861BB69CF
:102950005B7C03F01003DBB2002B04D078692F4BB3
:102960009847002350E0BA69537C43F01003537436
:1029700078692A4B9847BB69BA685A60BB697A681C
:102980009A60BB690022DA60BB69BA6A1A60BB7BD5
:10299000002B02D17B68002B01D1012300E0002332
:1029A000DBB203F00103D9B2BA69537C61F3861339
:1029B0005374BA69537C6FF3C7135374164B98471B
:1029C0007861144AFB7B012101FA03F31361FB7F59
:1029D000002B15D00F4AFB7B0C3352F8233003F049
:1029E0001103002B0CD1FB7B012118460C4B98479F
:1029F0000346002B04D0FB7B00211846084B984768
:102A00007869064B9847012318462037BD4680BD9C
:102A1000480C002000400840AD1F40000520400049
:102A20003538400080B588B000AF0346FB71FB79B4
:102A300003F08003002B14BF01230023FB77FB79F5
:102A400003F00F03FB71FB79032B00F2E980764B57
:102A50009847B861754AFB79012101FA03F3536184
:102A6000B869734B9847FB7F002B00F0AE806F4A2C
:102A7000FB790C3352F8233003F01003002B73D092
:102A8000FB79002B52D0FB79032B4FD0674AFB799F
:102A90000C3352F823307B617B6943F04F037B6139
:102AA0007B6923F010037B616049FB797A690C3301
:102AB00041F8232000BF5D4AFB790C3352F82330E4
:102AC00003F01003002BF6D100BF584AFB790C33FA
:102AD00052F8233003F01003002BF6D1534AFB7950
:102AE0000C3352F823303B613B6943F04F033B61A9
:102AF0003B6943F010033B614C49FB793A690C3365
:102B000041F8232000BF494AFB790C3352F82330A7
:102B100003F01003102BF6D100BF444AFB790C33AD
:102B200052F8233003F01003002BF6D03F4AFB7914
:102B30000C3352F82330FB60FB6843F04F03FB601B
:102B4000FB6823F01003FB603849FB79FA680C330B
:102B500041F8232000BF354AFB790C3352F823306B
:102B600003F01003002BF6D1304AFB790C3352F8F6
:102B70002330BB60BB6843F04F03BB60BB6823F0EE
:102B80000103BB602949FB79BA680C3341F8232063
:102B900000BF264AFB790C3352F8233003F00103BF
:102BA000002BF6D1FB795A1E224913469B00134491
:102BB0009B000B4403F1100253786FF383035370AF
:102BC0000CE0FB7918461C4B9847184AFB790C33EC
:102BD00052F8233003F04203002BF2D11349134B78
:102BE0009A6AFB79012000FA03F313438B6200BF5A
:102BF0000E4B9A6AFB79012101FA03F31340002B73
:102C0000F6D00A49094B9A6AFB79012000FA03F3CE
:102C1000DB4313408B62FB791846084B984700E072
:102C200000BF2037BD4680BDAD1F400000400840BA
:102C300005204000480C00208D354000DD34400068
:102C400080B584B000AF254A244B9B6843F4807361
:102C50009360224A214B9B6823F07F0393601F4BB4
:102C60001B6BBB60BB6843F04F03BB60BB6823F4C6
:102C7000074323F08003BB60BB6843F40043BB60A1
:102C8000164ABB68136300BF144B1B6B03F400436D
:102C9000B3F5004FF8D1114B1B6B7B607B6843F0A1
:102CA0004F037B607B6843F400437B600B4A7B6887
:102CB000136300BF094B1B6B03F40043B3F5004FD4
:102CC000F8D1074B9847F860044B01221A61F86865
:102CD000044B984700BF1037BD4680BD00400840F8
:102CE000AD1F40000520400080B400AF084B00221B
:102CF0001A61074B00225A61054B00229A81054B4D
:102D000000221A7000BFBD465DF8047B704700BF0B
:102D1000340E0020410C002080B586B000AF634B1C
:102D20001B78002B03D0624B9847624B9847624B4D
:102D30001B6B1B0CC3F30A03082B17D05E4B1B6BDA
:102D40003B613B6943F04F033B613B6923F0040364
:102D50003B61594A3B69136300BF574B1B6B03F040
:102D60000403002BF9D1554B98479BE00023FB75DA
:102D700009E0FB7D524A13444F4A126DD2B21A70D9
:102D8000FB7D0133FB75FB7D072BF2D94C4B5A8839
:102D90004B4B5A804A4B9A88494B9A80484BDA8869
:102DA000474BDA80474B9847034683F00103DBB279
:102DB000002B17D0404B1B6BFB60FB6843F04F03AD
:102DC000FB60FB6823F00403FB603B4AFB68136372
:102DD00000BF394B1B6B03F00403002BF9D1374BB9
:102DE00098475FE0364B1B785BB2002B35DA324BED
:102DF0001B6BBB60BB6843F04F03BB60BB6843F019
:102E00008003BB602C4ABB68136300BF2A4B1B6B5B
:102E100003F08003802BF9D1274B1B6B7B607B6811
:102E200043F04F037B607B6823F004037B60224AFE
:102E30007B68136300BF204B1B6B03F00403002B64
:102E4000F9D1214B00221A80204B00221A80174B07
:102E500002221A701E4B984724E0174B1B6B3B60F5
:102E60003B6843F04F033B603B6823F004033B6047
:102E7000114A3B68136300BF0F4B1B6B03F0040345
:102E8000002BF9D10E4BDB88002B02D1114B984758
:102E900008E00D4B00221A800C4B00221A80034BD5
:102EA00001221A701837BD4680BD00BF410C0020BA
:102EB000D5334000E92C4000004008402533400055
:102EC000340E0020ED164000420C0020440C00207F
:102ED000D92E40007133400080B588B000AF714BEF
:102EE0001B78032B19D1704B1B6B3B613B6943F083
:102EF0004F033B613B6923F001033B616A4A3B6935
:102F0000136300BF684B1B6B03F00103002BF9D167
:102F1000664B9847664B9847C1E0664B9A89664B6B
:102F20001B88D31AFB83FB8B002B3CD1634B1A8885
:102F3000614B1B8813449AB2604B1A805D4BDA8850
:102F40005E4B1B889A4203D05D4B1B78002B17D039
:102F50005C4B9847544B1B6BFB60FB6843F04F0383
:102F6000FB60FB6823F00103FB604F4AFB681363BF
:102F700000BF4D4B1B6B03F00103002BF9D18EE01A
:102F80004C4B5B69002B0ED04A4B5B69984703465C
:102F900083F00103DBB2002B05D1474B00221A80DE
:102FA000444B9B89FB83FB8B3F2B05D94023FB8341
:102FB000434B00221A7002E0414B01221A703D4B34
:102FC0009B683D4A12881344BB613F4B9847786128
:102FD000354B1B6B03F00203002B1BD078693B4B76
:102FE0009847304B04221A702F4B1B6BBB60BB6899
:102FF00043F04F03BB60BB6823F00103BB602A4A68
:10300000BB68136300BF284B1B6B03F00103002B4D
:10301000F9D144E000237B7708E02349BB695A1CBF
:10302000BA611B780B657B7F01337B777B7F9BB21B
:10303000FA8B9A42F1D8204B1A88FB8B13449AB230
:103040001D4B1A80184B1B6B7B607B6843F04F0352
:103050007B607B6843F010037B60134A7B681363DB
:1030600000BF114B1B6B03F01003102BF9D10E4B5B
:103070001B6B3B603B6843F04F033B603B6823F0B6
:1030800001033B60084A3B68136300BF064B1B6BA0
:1030900003F00103002BF9D178690C4B98472037D6
:1030A000BD4680BD410C002000400840D5334000A3
:1030B000E92C4000340E0020440C0020420C00207B
:1030C000840C0020BD334000AD1F400005204000AF
:1030D00080B588B000AF8A4B1B78012B24D0884B79
:1030E0001B78022B03D0864B1B78042B02D1854B17
:1030F000984701E0844B9847844B1B6B7B617B694D
:1031000043F04F037B617B6923F002037B617F4ABD
:103110007B69136300BF7D4B1B6B03F00203002B25
:10312000F9D17B4B9847E7E0784B1B6B1B0C9BB2AC
:10313000C3F30A03BB83774B9B891A46764B1B88E4
:103140001946BB8B0B449A4205DA724B9A89724B33
:103150001B88D31ABB836F4B9B686F4A128813443A
:10316000BB610023FB7709E0BB695A1CBA61674A5F
:10317000126DD2B21A70FB7F0133FB77FB7F9BB2DB
:10318000BA8B9A42F0D8644B1A88BB8B13449AB21C
:10319000614B1A80BB8B402B0AD15E4BDB881A46F1
:1031A0005E4B1B8819465C4B1B880B449A4240DCE3
:1031B000594B1A88574B9A81564B5B69002B20D08C
:1031C000544B5B699847034683F00103DBB2002B45
:1031D00017D04D4B98474D4B1B6B3B613B6943F000
:1031E0004F033B613B6923F002033B61474A3B6964
:1031F000136300BF454B1B6B03F00203002BF9D197
:103200007AE0424B1B6BFB60FB6843F04F03FB60B3
:10321000FB6823F00203FB603C4AFB68136300BFBA
:103220003A4B1B6B03F00203002BF9D13C4B984740
:1032300062E0384B9A89384B1B889A4247D1354B0C
:103240005B69002B17D1304B9847304B1B6BBB6031
:10325000BB6843F04F03BB60BB6823F00203BB6055
:103260002A4ABB68136300BF284B1B6B03F00203A1
:10327000002BF9D140E0274B5B699847034683F068
:103280000103DBB2002B17D01F4B98471F4B1B6B62
:103290007B607B6843F04F037B607B6823F0020315
:1032A0007B601A4A7B68136300BF184B1B6B03F0EB
:1032B0000203002BF9D11FE0184B1A88164B1B880C
:1032C00013449AB2154B1A80134B00221A800F4BED
:1032D0001B6B3B603B6843F04F033B603B6823F054
:1032E00002033B60094A3B68136300BF074B1B6B3B
:1032F00003F00203002BF9D12037BD4680BD00BF8B
:10330000410C0020D53340002533400000400840E8
:10331000E92C4000340E0020440C0020420C002018
:103320007133400080B483B000AF0F4B05221A7098
:103330000E4B1B6B7B607B6843F04F037B607B68AD
:1033400043F020037B60094A7B68136300BF074B8F
:103350001B6B03F02003202BF9D100BF0C37BD46B7
:103360005DF8047B704700BF410C0020004008401E
:1033700080B483B000AF0F4B03221A700E4B1B6B4F
:103380007B607B6843F04F037B607B6843F01003F6
:103390007B60094A7B68136300BF074B1B6B03F01C
:1033A0001003102BF9D100BF0C37BD465DF8047B2C
:1033B000704700BF410C00200040084080B400AFBF
:1033C000034B04221A7000BFBD465DF8047B7047B2
:1033D000410C002080B500AF044B1B69002B02D0CC
:1033E000024B1B69984700BF80BD00BF340E002010
:1033F00080B582B000AF244BDB6903F00103002BE2
:1034000001D100233BE0204B1B6B03F00403002B96
:1034100003D01E4B9847012331E01B4B1B6B03F07D
:103420000103002B03D01A4B9847012327E0164BCA
:103430001B6B03F00203002B03D0164B98470123AC
:103440001DE0114B1B6B03F00803002B16D00E4B35
:103450001B6B7B607B6843F04F037B607B6823F0D2
:1034600008037B60084A7B68136300BF064B1B6B35
:1034700003F00803002BF9D1012300E000231846D4
:103480000837BD4680BD00BF00400840192D4000F0
:10349000D92E4000D130400080B582B000AF00236B
:1034A000FB7110E0FA7913469B0013449B00094A14
:1034B0009818FB790133DBB21A460121064B984775
:1034C000FB790133FB71FB79022BEBD900BF083785
:1034D000BD4680BD480C00201935400080B582B043
:1034E00000AF0346FB71FB7903F00F03FB71FB791F
:1034F0005A1E13469B0013449B00054A1344FA7955
:1035000001211846034B984700BF0837BD4680BDD0
:10351000480C00201935400080B584B000AFF86039
:10352000B9601346FB71FB685B7C03F01003DBB2F0
:10353000002B23D0FA68537C6FF304135374FB6899
:103540001B68002B1CD0104AFB790C3352F8233037
:1035500003F48063002B03D0FB7963F07F03FB71DE
:10356000FB681B68BA68012A0CBF01220022D2B294
:103570001046FA689168FA79984702E000BF00E0C7
:1035800000BF1037BD4680BD0040084080B487B002
:1035900000AF0346FB71FB795A1E13469B00134490
:1035A0009B00454A13447B61444AFB790C3352F833
:1035B000233003F00203002B14BF01230023FB740C
:1035C0003E4AFB790C3352F8233003F04003002BC2
:1035D00014BF01230023BB74FB7C002B02D0BB7CF7
:1035E000002B0ED1FB7C002B05D07A69537C6FF346
:1035F0008303537405E07A69537C012161F38303EB
:1036000053747B695B7C03F00C03DBB2002B2AD183
:103610002A4AFB790C3352F82330FB60FB6843F0F5
:103620004F03FB60FB6823F00203FB602349FB7937
:10363000FA680C3341F8232000BF204AFB790C3391
:1036400052F8233003F00203002BF6D1FB79002B54
:103650002CD0FB79032B29D07A69537C012161F3AB
:103660008303537422E0154AFB790C3352F823305C
:10367000BB60BB6843F04F03BB60BB6823F04003F3
:10368000BB600E49FB79BA680C3341F8232000BFB8
:103690000A4AFB790C3352F8233003F04003002B25
:1036A000F6D17A69537C6FF38303537400BF1C37E0
:1036B000BD465DF8047B7047480C00200040084080
:1036C00080B489B000AF0346FB71FB795A1E1346E4
:1036D0009B0013449B00554A13443B613B695A6865
:1036E0003B69DB681344FB613B699A683B69DB68B3
:1036F000D31AFB603B691B8AC3F309039BB2BB610E
:103700000023FB75FA68BB699A4203D2FB68BB6170
:103710000123FB753B69DA68BB691A443B69DA60CF
:103720005AE04348FA79FB69591CF9611B7819463C
:1037300002F1140340F823103D48FA79FB69591C43
:10374000F9611B78194602F1140340F82310384838
:10375000FA79FB69591CF9611B78194602F11403C7
:1037600040F823103248FA79FB69591CF9611B783B
:10377000194602F1140340F823102D48FA79FB6929
:10378000591CF9611B78194602F1140340F8231003
:103790002748FA79FB69591CF9611B78194602F12F
:1037A000140340F823102248FA79FB69591CF96187
:1037B0001B78194602F1140340F823101C48FA79CB
:1037C000FB69591CF9611B78194602F1140340F892
:1037D0002310BB69083BBB61BB69072BA1D80DE077
:1037E0001348FA79FB69591CF9611B78194602F1F3
:1037F000140340F82310BB69013BBB61BB69002B7C
:10380000EED13B695B7CC3F38103DBB2013303F090
:103810000303D9B23A69537C61F383035374FB7D8C
:1038200018462437BD465DF8047B7047480C0020DD
:103830000040084080B586B000AF03460A46FB71E1
:103840001346BB71FB795A1E13469B0013449B0021
:10385000364A13447B617B695B7CC3F38103DBB233
:103860001A46FB79002B02D0FB79032B01D10123EF
:1038700000E002239A4201DB012352E07B69DA680F
:103880007B699B689A4208D37B695B7C03F04003A9
:10389000DBB2002B01D1002343E0FB791846244B17
:1038A00098470346FB74BB79002B1DD0214AFB7956
:1038B0000C3352F82330FB60FB6843F04F03FB608E
:1038C000FB6843F01003FB601A49FB79FA680C337C
:1038D00041F8232000BF174AFB790C3352F82330FC
:1038E00003F01003102BF6D1FB7C002B04D07A6977
:1038F000537C6FF3861353747B69DA687B699B682A
:103900009A420DD37B695B7C03F04003DBB2002B52
:1039100006D17A69537C43F080035374002300E09E
:10392000012318461837BD4680BD00BF480C002053
:10393000C13640000040084080B58AB000AF034661
:10394000FB71FB795A1E13469B0013449B003A4AB5
:1039500013447B6100237B627B699A687B69DB6827
:10396000D31A3B617B691B8AC3F309039BB2FB60DB
:103970007B695A687B69DB681344FB610023FB7633
:103980002E4AFB790C3352F823301B0CC3F30A0385
:103990007B627A6AFB689A4234BF01230023FB7280
:1039A0007B6A002B21D07A6A3B699A4203D33B6938
:1039B0007B620123FB767B69DA687B6A1A447B6948
:1039C000DA6000233B620CE0FB695A1CFA611B4978
:1039D000FA79143251F82220D2B21A703B6A0133BC
:1039E0003B623A6A7B6A9A42EED3FB791846144BE3
:1039F0009847FB7E002B02D1FB7A002B18D00F4A90
:103A0000FB790C3352F8233003F02003002B0FD145
:103A10000A4AFB79012101FA03F353617B69DA68F1
:103A20007B699A60FB791A4600217869054B9847B3
:103A300000BF2837BD4680BD480C0020004008402C
:103A40008D3540001935400080B58EB000AF0123A0
:103A500087F8373060E29E4B9A6997F8373001213A
:103A600001FA03F31340002B00F0508297F837302F
:103A70005A1E13469B0013449B00964A13443B6313
:103A8000934A97F837300C3352F8233003F042034F
:103A9000002B06D097F8373018468F4B98470123F4
:103AA00040E28B4A97F837300C3352F8233003F05A
:103AB0000103002B00F0EC813B6B5B7CC3F38103C3
:103AC000DBB2033303F00303D9B23A6B537C61F3E7
:103AD000830353743B6B5B7C03F02003DBB2002B4E
:103AE00000F093803B6B5B7C03F00C03DBB2002B9C
:103AF00042D0774A97F837300C3352F82330BB6204
:103B0000BB6A43F04F03BB62BB6A43F01003BB6266
:103B10006F4997F83730BA6A0C3341F8232000BF59
:103B20006B4A97F837300C3352F8233003F0100308
:103B3000102BF5D1664A97F837300C3352F8233002
:103B40007B627B6A43F04F037B627B6A23F0010355
:103B50007B625F4997F837307A6A0C3341F823204B
:103B600000BF5B4A97F837300C3352F8233003F02C
:103B70000103002BF5D146E0554A97F837300C3356
:103B800052F823303B623B6A43F04F033B623B6A8F
:103B900023F001033B624E4997F837303A6A0C3301
:103BA00041F8232000BF4A4A97F837300C3352F8C7
:103BB000233003F00103002BF5D1454A97F8373045
:103BC0000C3352F82330FB61FB6943F04F03FB6178
:103BD000FB6943F02003FB613D4997F83730FA69F0
:103BE0000C3341F8232000BF394A97F837300C33A3
:103BF00052F8233003F02003202BF5D13A6B537C8D
:103C00006FF34513537401238CE13B6B5B7C23F012
:103C10007F03DBB2002B16D03A6B537C6FF3C713D4
:103C200053743B6BDA683B6B9A60294A97F83730DC
:103C3000012101FA03F3536197F837301A46002146
:103C4000386B264B98473B6BDA683B6B9B689A4214
:103C50004AD33B6B5B7C03F04003DBB2002B43D1C8
:103C60003B6B5B7C03F00C03DBB2002B3CD11C4BA9
:103C70009847F862164A97F83730012101FA03F3A2
:103C80005361F86A174B9847114A97F837300C334D
:103C900052F82330BB61BB6943F04F03BB61BB6982
:103CA00023F00103BB610A4997F83730BA690C3336
:103CB00041F8232000BF064A97F837300C3352F8FA
:103CC000233003F00103002BF5D101232AE100BFCB
:103CD00000400840480C00203939400019354000A8
:103CE000AD1F40000520400097F83730002B53D01F
:103CF00097F83730032B4FD03B6B5B7CC3F38103CA
:103D0000DBB2002B48DD894A97F837300C3352F884
:103D100023307B617B6943F04F037B617B6943F018
:103D200010037B61814997F837307A690C3341F889
:103D3000232000BF7D4A97F837300C3352F82330E8
:103D400003F01003102BF5D1784A97F837300C3375
:103D500052F823303B613B6943F04F033B613B69C1
:103D600023F001033B61714997F837303A690C330E
:103D700041F8232000BF6D4A97F837300C3352F8D2
:103D8000233003F00103002BF5D197F837300021E1
:103D90001846674B984779E097F83730002B4ED09C
:103DA00097F83730032B4AD097F83730012118465F
:103DB0005F4B9847034683F00103DBB2002B16D01C
:103DC0003A6B537C6FF3C71353743B6BDA683B6BEE
:103DD0009A60564A97F83730012101FA03F353618C
:103DE00097F837301A460021386B524B98474F4AA4
:103DF00097F837300C3352F82330FB60FB6843F000
:103E00004F03FB60FB6823F00103FB60474997F811
:103E10003730FA680C3341F8232000BF434A97F843
:103E200037300C3352F8233003F00103002BF5D167
:103E300097F83730002118463D4B984726E097F811
:103E40003730012118463A4B9847384A97F83730AF
:103E50000C3352F82330BB60BB6843F04F03BB60A8
:103E6000BB6823F00103BB60304997F83730BA686C
:103E70000C3341F8232000BF2C4A97F837300C331D
:103E800052F8233003F00103002BF5D1012349E060
:103E9000264A97F837300C3352F8233003F00803E2
:103EA000002B34D0214A97F837300C3352F82330A6
:103EB0007B607B6843F04F037B607B6823F00803E3
:103EC0007B601A4997F837307A680C3341F8232021
:103ED00000BF164A97F837300C3352F8233003F0FE
:103EE0000803002BF5D1114A97F837300C3352F8FC
:103EF000233003F4E063B3F5807F05D00B4A97F8D5
:103F000037300C3352F8233001230BE000BF97F811
:103F10003730013387F8373097F83730032B7FF687
:103F20009AAD002318463837BD4680BD0040084092
:103F3000353840001935400080B489B000AFF860D2
:103F4000B9607A60BB681A017B689A4202D8102374
:103F5000FB6101E00823FB617B68DA00FB69B9685B
:103F600001FB03F35B081A44FB69B96801FB03F327
:103F7000B2FBF3F3BB61BB69DB087B61BB6903F098
:103F800007033B617B69002B03D07B69B3F5803F5E
:103F900001D301230FE0FB69082B05D1FB685B68A7
:103FA00043F40022FB685A603B691A047B691A4398
:103FB000FB681A62002318462437BD465DF8047B6F
:103FC0007047000080B582B000AF786078680F4B12
:103FD00098477B6800225A607B6800225A627B689F
:103FE00000229A6278680A4B98477868094B98478C
:103FF0007868094B98477868084B98477868084B69
:10400000984700BF0837BD4680BD00BFCD41400086
:10401000C3404000F740400011414000494140008A
:104020002D41400080B584B000AFF860B9607A607F
:10403000F8681A4B98471A4B00221A60BB68002B8D
:1040400009D0BB681B687A681946F868154B984711
:104050000346002B01D001231BE0BB685A68BB68F4
:104060009B681A43BB681B691A43BB68DB681A4329
:104070000B4B1B6813430A4A1360094B1B68084A21
:104080001360FB685A68064B1B681A43FB685A604A
:10409000002318461037BD4680BD00BFC53F400015
:1040A000880C0020393F400080B483B000AF7860B6
:1040B0007B6840221A6000BF0C37BD465DF8047B68
:1040C000704780B483B000AF78607B6888221A6044
:1040D00000BF0C37BD465DF8047B704780B483B0E9
:1040E00000AF78607B6810221A6000BF0C37BD46B5
:1040F0005DF8047B704780B483B000AF78607B6864
:1041000024221A6000BF0C37BD465DF8047B70475F
:1041100080B483B000AF78607B684FF480721A601F
:1041200000BF0C37BD465DF8047B704780B483B098
:1041300000AF78607B684FF400321A6000BF0C3724
:10414000BD465DF8047B704780B483B000AF7860F3
:104150007B684FF400221A6000BF0C37BD465DF843
:10416000047B704780B483B000AF786039607B68AF
:104170005B6903F00203002B01D1012305E03B68DA
:10418000C3F308027B68DA61002318460C37BD468A
:104190005DF8047B704780B483B000AF786039600D
:1041A0007B685B6903F00103002B01D1012306E06A
:1041B0007B689B69C3F308023B681A6000231846BA
:1041C0000C37BD465DF8047B7047000080B483B0B7
:1041D00000AF78607B68044AC3F8E42000BF0C3766
:1041E000BD465DF8047B70470041535580B582B0F1
:1041F00000AFFB1D012219461348144B984772B6B5
:10420000BFF35F8F124B00221A70124B1B781A46B5
:10421000F979114B99540F4B1B789B2B03D10D4B04
:1042200000221A7005E00B4B1B780133DAB2094B00
:104230001A70074B01221A70BFF35F8F62B600BF7E
:104240000837BD4680BD00BF00000A40190340008A
:10425000A2000020280D00208C0C002080B400AFAC
:10426000114B00221A60104B104A1A600E4A0E4B76
:104270001B6823F0010313600D4A0D4B1B6843F4C8
:10428000007313600B4B00221A600A4B0A4A1A6033
:10429000084A084B1B6823F00103136000BFBD46AA
:1042A0005DF8047B704700BFE4040E40434D5000AE
:1042B00010040E40E40E0E404F49500080B400AF91
:1042C000084A084B1B6843F002031360064A064B7A
:1042D0001B6843F00203136000BFBD465DF8047B1A
:1042E000704700BF000E0E40100E0E4080B582B029
:1042F00000AF78607B68072B31D801A252F823F019
:104300005D434000214340002943400031434000C9
:10431000394340004143400049434000534340007B
:104320000020114B98471AE001200F4B984716E0E8
:1043300000200E4B984712E010200C4B98470EE0DF
:1043400020200A4B98470AE03E210020084B98475E
:1043500005E03E210120064B984700E000BF00BF6A
:104360000837BD4680BD00BFDD4B4000494C4000D2
:10437000B94C400080B582B000AF78607B68072BF5
:1043800026D801A252F823F0A9434000AD434000D3
:10439000AD434000BF434000BF434000BF43400027
:1043A000BF434000BF434000012312E00B4B98473E
:1043B0000346002B14BF01230023DBB209E0084BA6
:1043C00098470346002B14BF01230023DBB200E013
:1043D000002318460837BD4680BD00BF154C40007D
:1043E000314D400080B483B000AF78607B68072B0C
:1043F00025D801A252F823F0194440001F44400080
:10440000254440002B4440002F44400033444000EA
:10441000374440003B4440004FF4FA4310E04FF46F
:1044200000430DE04FF400430AE0084B08E0084B5E
:1044300006E0084B04E0074B02E0064B00E00023D7
:1044400018460C37BD465DF8047B704700093D00F7
:1044500000127A00001BB70080B582B000AF03469F
:10446000FB7100BFFB791846054B9847034683F064
:104470000103DBB2002BF5D100BF0837BD4680BD7C
:104480007543400080B586B000AFF8607A603B604D
:104490000B46FB72FB7A18460D4B984702467B6829
:1044A000B2FBF3F37B617B693A6802FB03F37B6148
:1044B0003B68013B1A04074B13407A68D2B213439E
:1044C00043F47C52FB681A6000BF1837BD4680BDBC
:1044D000E54340000000FF0780B582B000AF786080
:1044E00039603B68002B07D1054B9847054A7B682C
:1044F0001B6843F00053936200BF0837BD4680BD80
:104500004D4D400000040E4080B582B000AF786091
:10451000034B9847034618460837BD4680BD00BF89
:10452000694D400080B582B000AF0346FB71FB7956
:10453000033B042B08D8FB791846064B9847FB79B8
:104540001846054B984700E000BF00BF0837BD463E
:1045500080BD00BFED4240005944400080B582B0AC
:1045600000AF786000BF7868044B98470346002B83
:10457000F9D0002318460837BD4680BD09454000E4
:1045800080B500AF0620034B984703461B01184631
:1045900080BD00BFE543400080B500AF024B9847A7
:1045A00003465B08184680BD8145400090B583B046
:1045B00000AF1148114B98470620114B9847381D02
:1045C0001023012206210F4CA0473B1D0021184655
:1045D0000D4B984700200D4B984710200C4B9847E7
:1045E0000C4B98470C4B984703461846034B98478B
:1045F00000BF0C37BD4690BD000E27079D514000FF
:104600002545400085444000D94440005D454000B8
:10461000594B4000355040009945400080B582B06C
:1046200000AF78607868034B984700BF0837BD46F5
:1046300080BD00BF854D400080B500AF0920084B0C
:1046400098470A20064B98470B20054B98470C20AB
:10465000034B98470D20024B984700BF80BD00BF19
:104660001D46400080B487B000AF786039607B6839
:104670007B613B683B617B69FB60FB6803F5001372
:1046800003F207735B021A463B69536000BF1C3795
:10469000BD465DF8047B704780B48BB000AFF86016
:1046A000B9607A60FB687B62BB683B627B68FB61D8
:1046B0007B6ABB61BB6903F5001303F207735B02FE
:1046C0007B61FB6903F00803002B03D07B693A6A26
:1046D0005A6602E07B693A6A1A66FB6903F01003C6
:1046E000002B04D07B693A6AC3F8942003E07B690D
:1046F0003A6AC3F89020FB6903F02003002B03D033
:104700007B693A6A1A6502E07B693A6A5A65FB6915
:1047100003F0C003002B03D07B693A6A1A6202E0FF
:104720007B693A6A5A62FB6903F08003002B04D06C
:104730007B693A6AC3F8842003E07B693A6AC3F86C
:104740008020FB6903F00103002B06D07B691A6F00
:104750003B6A1A437B691A6706E07B691A6F3B6AFA
:10476000DB431A407B691A67FB6903F00203002BE5
:1047700006D07B695A6F3B6A1A437B695A6706E029
:104780007B695A6F3B6ADB431A407B695A6700BFFB
:104790002C37BD465DF8047B704780B48DB000AF08
:1047A000786039607B68FB623B68BB62FB6A7B6256
:1047B0007B6A5A09FB6A3B623B6A03F01F030121D3
:1047C00001FA03F3FA61BB61BB6A7B61FB693B6180
:1047D0003B6903F5001303F207735B02FB607B691F
:1047E00003F00803002B03D0FB68BA695A6602E0A5
:1047F000FB68BA691A667B6903F01003002B04D0CA
:10480000FB68BA69C3F8942003E0FB68BA69C3F88F
:1048100090207B6903F02003002B03D0FB68BA696A
:104820001A6502E0FB68BA695A657B6903F0C00348
:10483000002B03D0FB68BA691A6202E0FB68BA6910
:104840005A627B6903F08003002B04D0FB68BA69CD
:10485000C3F8842003E0FB68BA69C3F880207B6951
:1048600003F00103002B06D0FB681A6FBB691A43E3
:10487000FB681A6706E0FB681A6FBB69DB431A40E6
:10488000FB681A677B6903F00203002B06D0FB6804
:104890005A6FBB691A43FB685A6706E0FB685A6F98
:1048A000BB69DB431A40FB685A6700BF3437BD461B
:1048B0005DF8047B704780B48DB000AF78600B4624
:1048C000FB707B68FB62FB7887F82B30FB6A7B62AE
:1048D0007B6A3B623B6A5B09FB61FB6903F5001382
:1048E00003F207735B02BB6197F82B30012B09D1F0
:1048F000FB6A7B617B6903F01F0301229A40BB695D
:104900001A610CE097F82B30002B08D1FB6A3B6151
:104910003B6903F01F0301229A40BB695A61FB6A9D
:10492000FB60FB6803F01F0301229A40BB69C3F8D8
:10493000A02000BF3437BD465DF8047B704780B4CB
:104940008BB000AF78600B46FB707B687B62FB78B6
:1049500087F823307B6AFB61FB69BB61BB695B093C
:104960007B617B6903F5001303F207735B023B6114
:1049700097F82330002B09D07B6AFB60FB6803F0BB
:104980001F0301229A403B691A6308E07B6ABB60FF
:10499000BB6803F01F0301229A403B695A6300BFC2
:1049A0002C37BD465DF8047B7047000080B48DB0A5
:1049B00000AF78600B46FB707B68FB62FB7887F882
:1049C0002B30FB6A7B627B6A5A09FB6A3B623B6A5B
:1049D00003F01F03012101FA03F3FA61BB6197F8A9
:1049E0002B30FB75FB693B613B6903F5001303F258
:1049F00007735B02FB60FB7D013B032B2ED801A2FA
:104A000052F823F0394A40004B4A4000154A400012
:104A1000274A4000FB68BA69C3F8C420FB68BA693A
:104A2000C3F8D0201FE0FB68BA69C3F8C420FB6854
:104A3000BA69C3F8D42016E0FB68BA69C3F8C0208D
:104A4000FB68BA69C3F8D0200DE0FB68BA69C3F807
:104A5000C020FB68BA69C3F8D42004E0FB68BA69D7
:104A6000C3F8B42003E0FB68BA69C3F8B02000BF04
:104A70003437BD465DF8047B704700BF80B500AF9A
:104A80002D4B4FF400425A602C4B984701210020D7
:104A90002B4B9847012100202A4B98470121742075
:104AA000274B984701217420264B984701217520F8
:104AB000234B984701217520224B98470021132052
:104AC0001F4B9847882113201F4B98470221132022
:104AD0001E4B984700211420194B98478821142019
:104AE000194B984701211420184B984700210120A9
:104AF000134B984788210120134B98470021012030
:104B0000124B9847002102200D4B98478821022024
:104B10000D4B9847022102200C4B984700224FF47E
:104B2000C06100200A4B98474FF4C0610020094B38
:104B3000984700BF80BD00BF50180E403946400066
:104B4000B74840003F4940009B474000AD49400006
:104B5000994640006546400080B485B000AF78605B
:104B60001D491D4B1B6B23F070027B6813430B63C5
:104B70004FF40063FB6007E0FB68002B01D10123C9
:104B800023E0FB68013BFB60134B9B6E03F00803C3
:104B9000002BF1D0104A104B1B6B23F0030343F0A2
:104BA000020313634FF40063FB6007E0FB68002B14
:104BB00001D1012309E0FB68013BFB60064B9B6EC2
:104BC00003F00803002BF1D0002318461437BD462C
:104BD0005DF8047B704700BF00040E4080B483B0D2
:104BE00000AF78607B68012B07D1084A074B9B68B0
:104BF00043F0254343F480139360044B044A1A6046
:104C000000BF0C37BD465DF8047B704710180E409E
:104C1000080000A580B400AF094B5B6903F0800376
:104C2000002B07D0074B9B6E03F08003002B01D0B5
:104C3000012300E000231846BD465DF8047B704761
:104C400010180E4000040E4080B483B000AF7860AE
:104C5000184A184B1B6A43F45C1343F008031362B1
:104C600000BF144B9B6E03F40033002BF9D01149A5
:104C7000104B1B6A23F45C1323F070037A68134310
:104C800043F45C130B6200BF0A4B9B6E03F40033CA
:104C9000002BF9D0074A074B1B6A23F09B7323F4C0
:104CA000803343F45C13136200BF0C37BD465DF8DC
:104CB000047B704700040E4080B483B000AF78607E
:104CC00039607B68002B08D01649164B1B6A164AC0
:104CD0001A40164B13430B621EE01249114B1B6A1C
:104CE00023F45C1323F003033A68120292B21343D5
:104CF00043F45C1343F001030B6200BF094B9B6E4E
:104D000003F00103002BF9D0064A064B1B6A43F05F
:104D10009B7343F48033136200BF0C37BD465DF8CC
:104D2000047B704700040E40FCFFC8FE0200370100
:104D300080B400AF044B9B6E03F480331846BD462D
:104D40005DF8047B704700BF00040E4080B400AFE4
:104D5000044B4FF000529A6200BFBD465DF8047BE1
:104D6000704700BF00040E4080B400AF044B9B6E40
:104D700003F002031846BD465DF8047B704700BF90
:104D800000040E4080B483B000AF78607B682F2BA6
:104D900001D901232FE07B681F2B13D8194B9A6987
:104DA00001217B6801FA03F31A4001217B6801FAB3
:104DB00003F39A421ED0134A01217B6801FA03F3E0
:104DC000136117E07B68203B7B600E4BD3F8082112
:104DD00001217B6801FA03F31A4001217B6801FA83
:104DE00003F39A4206D0074A01217B6801FA03F3D4
:104DF000C2F80031002318460C37BD465DF8047B2D
:104E0000704700BF00040E4080B483B000AF7860EC
:104E10007B682F2B01D901232FE07B681F2B13D830
:104E2000194B9A6901217B6801FA03F31A400121A9
:104E30007B6801FA03F39A421ED1134A01217B6871
:104E400001FA03F3536117E07B68203B7B600E4B54
:104E5000D3F8082101217B6801FA03F31A400121EC
:104E60007B6801FA03F39A4206D1074A01217B6865
:104E700001FA03F3C2F80431002318460C37BD468B
:104E80005DF8047B704700BF00040E4080B483B01F
:104E900000AF78607B68002B04D0074B074AC3F84B
:104EA000E42003E0044B064AC3F8E42000BF0C37BB
:104EB000BD465DF8047B704700040E4001434D5031
:104EC00000434D5080B400AF094B1B78DBB2002B80
:104ED00014BF01230023DBB283F00103DBB203F034
:104EE0000103DBB21846BD465DF8047B704700BF86
:104EF000290D002080B400AFFEE7000080B483B02D
:104F000000AFEFF310837B607B68002B0CBF0123A5
:104F10000023DBB23B6072B6BFF35F8F044B00220D
:104F20001A703B6818460C37BD465DF8047B704725
:104F3000A200002080B483B000AF78607B68002BB3
:104F400014BF01230023DBB218460C37BD465DF8C1
:104F5000047B704780B582B000AF78607868074BFB
:104F600098470346002B05D0054B01221A70BFF36A
:104F70005F8F62B600BF0837BD4680BD354F400029
:104F8000A200002080B584B000AF1E4BFB601E4B1A
:104F9000BB60FA68BB689A420CD007E0BB681A1D78
:104FA000BA60FA68111DF96012681A60BB68174A86
:104FB0009342F3D3164BBB6004E0BB681A1DBA6082
:104FC00000221A60BB68134A9342F6D3124BFB606F
:104FD000124AFB6823F07F039360114B9847786077
:104FE000104A104B1B6843F470031360BFF34F8FDC
:104FF000BFF36F8F78680C4B98470C4B98470C4B5E
:105000009847FEE70089400000000020580A002071
:10501000580A0020740E00200000400000ED00E05F
:10502000FD4E400088ED00E0554F4000AD57400078
:105030003557400080B400AF524B1B6B03F00303A5
:10504000012B14D0012B02D3022B38D07AE04E4B27
:105050005B6903F08003002B04D04C4B4FF40042FB
:105060001A606FE0494B4FF4FA421A606AE0454B10
:105070001B6A03F08073002B03D0444B444A1A6030
:1050800060E0424B434A1A603E4B1B6A03F07003D8
:10509000102B04D0202B08D0002B0ED00EE03B4B61
:1050A0001B685B00394A136008E0384B1A681346E6
:1050B0005B001344354A136000E000BF42E0314B0F
:1050C0001B6A03F08073002B03D0304B304A1A6008
:1050D0001CE02E4B2F4A1A602A4B1B6A03F0700308
:1050E000102B04D0202B08D0002B0ED00EE0274B25
:1050F0001B685B00254A136008E0244B1A681346BE
:105100005B001344214A136000E000BF1D4B1B6B82
:1051100003F00303022B14D11A4B9B6A1B0CC3F33D
:105120000A030133194A126802FB03F3174A13609A
:10513000144B9B6ADBB2154A1268B2FBF3F3134AB5
:10514000136000BF0F4B1B6B03F07003702B08D173
:105150000E4B1B68104AA2FB03235B080B4A13602B
:105160000AE0084B1B6B1B0903F00703074A126890
:1051700022FA03F3054A136000BFBD465DF8047BC5
:10518000704700BF00040E4010180E40A40000201D
:10519000001BB70000093D00ABAAAAAA80B483B0E7
:1051A00000AF78607B68194A934204D8184B4FF0DF
:1051B00080621A6023E07B68164A934203D8144B3E
:1051C000154A1A601BE07B68144A934203D8104BBF
:1051D000134A1A6013E07B68124A934203D80C4BBF
:1051E000114A1A600BE07B68104A934204D8084BBE
:1051F0004FF004221A6002E0054B0D4A1A6000BF0E
:105200000C37BD465DF8047B704700BFFF2C3101B1
:10521000000A0E40FF59620200010004FF8693035A
:1052200000020004FFB3C40400030004FFE0F5051E
:105230000005000480B485B000AF7860104BFB60BF
:10524000104B1B68002B02D10E4B0F4A1A600D4BFE
:105250001B68BB60BA687B681A44FB689A4202DD2F
:105260004FF0FF3306E0074B1A687B681344054A8A
:105270001360BB6818461437BD465DF8047B704761
:10528000FCFF01202C0D0020783E002080B483B06C
:1052900000AF78604FF0FF3318460C37BD465DF81D
:1052A000047B704780B483B000AF786039603B689E
:1052B0004FF400525A60002318460C37BD465DF883
:1052C000047B704780B483B000AF78600123184638
:1052D0000C37BD465DF8047B704780B485B000AFE5
:1052E000F860B9607A60002318461437BD465DF84F
:1052F000047B704780B483B000AF78600B467B803E
:1053000000BF0C37BD465DF8047B704780B483B0A6
:1053100000AF78607B6802221A6000BF0C37BD4680
:105320005DF8047B7047000080B582B000AF786004
:105330000B467B807B8819467868054B98477A88AE
:105340007B685A667B689B6E18460837BD4680BDF1
:10535000F552400080B483B000AF78607B681B6B6F
:1053600018460C37BD465DF8047B704780B483B0A7
:1053700000AF78607B68072B25D801A252F823F094
:10538000A1534000A7534000AD534000B353400029
:10539000B7534000BB534000BF534000C3534000CD
:1053A0004FF4FA4310E04FF400430DE04FF4004394
:1053B0000AE0084B08E0084B06E0084B04E0074B06
:1053C00002E0064B00E0002318460C37BD465DF8AE
:1053D000047B704700093D0000127A00001BB700F3
:1053E00080B500AF0620034B984703461B011846C3
:1053F00080BD00BF6D53400080B500AF024B9847A1
:1054000003465B08184680BDE153400080B582B07A
:1054100000AF78607868034B984700BF0837BD46F7
:1054200080BD00BF854D400080B58CB000AF786076
:105430003960314B984703467B623B681B68BB620F
:105440003B689B68FB623B681B68FB603B685B6872
:105450003B613B689B687B613B68DB68BB61002309
:10546000FB617B68254A934208D10720244B98476B
:1054700007F1240319467868224B98477B68224A33
:10548000934208D12D201E4B984707F1240319465B
:1054900078681C4B98477B681C4A934211D10E20B8
:1054A000174B9847144B9847024607F10C031946CF
:1054B0007868174B98477868164B98477868164B6A
:1054C00098477B68154A934211D10F200C4B98479F
:1054D000094B9847024607F10C03194678680C4BB4
:1054E000984778680B4B984778680B4B984700BFF4
:1054F0003037BD4680BD00BFF953400000060E4066
:105500000D544000E91E40000006064000000A401D
:1055100025404000A9404000DD40400000400A40D6
:1055200080B582B000AF78600B46FB707B68204A84
:1055300093420AD100BFFB78194678681D4B984703
:105540000346002BF7D101232DE07B681A4A9342D2
:105550000AD100BFFB7819467868164B9847034676
:10556000002BF7D101231EE07B68144A93420AD135
:1055700000BFFB7819467868114B98470346002B0B
:10558000F7D101230FE07B680E4A93420AD100BF96
:10559000FB78194678680A4B98470346002BF7D1E9
:1055A000012300E0002318460837BD4680BD00BF38
:1055B00000060E404B1F40000006064000000A4057
:1055C0006541400000400A4080B584B000AF78607B
:1055D00039600023FB607B681F4A934207D100BFFC
:1055E000396878681D4B98470346002BF8D17B68D3
:1055F0001B4A934207D100BF39687868174B984718
:105600000346002BF8D17B68164A93420DD100BFA8
:1056100007F10C0319467868134B98470346002B93
:10562000F6D1FB68DAB23B681A707B680F4A934286
:105630000DD100BF07F10C03194678680A4B984753
:105640000346002BF6D1FB68DAB23B681A7000BF44
:105650001037BD4680BD00BF00060E407B1F4000D6
:105660000006064000000A409741400000400A4002
:1056700080B582B000AF786039600F4A7B681360F4
:105680000E4B0F4A1A600F4B0F4A1A603968786840
:105690000E4B98470E4B1B689B68002118460D4B1C
:1056A00098470B4B1B685B6800211846094B9847CD
:1056B00000BF0837BD4680BD740D0020700D00206E
:1056C000215540006C0D0020C95540002954400070
:1056D000A8000020F559400080B584B000AF3B46DB
:1056E00000221A605A609A60DA604FF4E1333B603E
:1056F0004FF40063BB600720084B98473B461946B0
:105700000748084B98470848084B98470848074BF4
:10571000984700BF1037BD4680BD00BF0D54400004
:1057200000060E407156400048874000FD5740007B
:105730005887400080B582B000AF104B9847104B9F
:105740009847104B98471048104B9847104B984774
:10575000104B9847104B98471048114B984700BF83
:105760000E48104B9847034603F02003002BF7D157
:1057700005210A480C4B98477860F0E7AD4540009A
:105780007D4A4000D956400068874000FD574000E0
:105790005D424000BD4240000D02400000000B4051
:1057A0000D534000555340002953400070B50F4E33
:1057B0000F4D761BB61018BF002405D0013455F8E4
:1057C000043B9847A642F9D10A4E0B4D761B03F0D5
:1057D00081F8B61018BF002406D0013455F8043BF8
:1057E0009847A642F9D170BD70BD00BFE088400067
:1057F000E0884000E8884000E08840000FB400B531
:10580000074983B004AB086853F8042B81680193FF
:1058100000F000FA03B05DF804EB04B0704700BF7D
:10582000A8000020844641EA000313F003036DD171
:10583000403A41D351F8043B40F8043B51F8043B53
:1058400040F8043B51F8043B40F8043B51F8043B5A
:1058500040F8043B51F8043B40F8043B51F8043B4A
:1058600040F8043B51F8043B40F8043B51F8043B3A
:1058700040F8043B51F8043B40F8043B51F8043B2A
:1058800040F8043B51F8043B40F8043B51F8043B1A
:1058900040F8043B51F8043B40F8043B51F8043B0A
:1058A00040F8043B51F8043B40F8043B51F8043BFA
:1058B00040F8043B403ABDD2303211D351F8043B9A
:1058C00040F8043B51F8043B40F8043B51F8043BDA
:1058D00040F8043B51F8043B40F8043B103AEDD249
:1058E0000C3205D351F8043B40F8043B043AF9D29A
:1058F000043208D0D2071CBF11F8013B00F8013B6D
:1059000001D30B8803806046704700BF082A13D379
:105910008B078DD010F003038AD0C3F10403D21A91
:10592000DB071CBF11F8013B00F8013B80D331F8C5
:10593000023B20F8023B7BE7043AD9D3013A11F845
:10594000013B00F8013BF9D20B7803704B784370B0
:105950008B7883706046704770B4860746D0541EBB
:10596000002A41D0CAB2034602E014F1FF343BD30F
:1059700003F8012B9D07F8D1032C2ED9CDB245EAAF
:1059800005250F2C45EA054519D903F110022646D5
:10599000103E0F2E42F8105C42F80C5C42F8085C96
:1059A00042F8045C02F11002F2D8A4F1100222F0D5
:1059B0000F0204F00F041032032C13440DD91E46BD
:1059C0002246043A032A46F8045BFAD8221F22F042
:1059D00003020432134404F003042CB1C9B21C4482
:1059E00003F8011B9C42FBD170BC70471446034670
:1059F000C2E700BF00290CBF022200224FF48063DF
:105A000000F000B82DE9F043614C256883B00446EE
:105A10000F4690461E4615B1AB6B002B64D0B8F113
:105A2000020F06D0B8F1010F00F29F80002EC0F2E5
:105A30009C80636ED80734D52146284601F088F84B
:105A4000216B41B104F14003994202D0284601F094
:105A5000FDF900232363B4F90C300022A2616260D7
:105A60001A063AD423F44A6323F00303B8F1020F71
:105A7000A3811DD001AB6A462146284601F084FC73
:105A8000A3891843A081002E32D1009E304601F038
:105A9000F3FC074600286BD0A38943F08003A38161
:105AA00028E0A3899905C7D4A06D01F069FCC3E77C
:105AB0000025616E002604F1430243F00203012039
:105AC000A660CE07A38122602261606101D498059F
:105AD0003ED5284603B0BDE8F0832169284601F091
