S01700004D756C74696C617465726174696F6E2E73726563CF
S214080000A8400720191B0800151B0800151B080028
S214080010151B0800151B0800151B0800000000002B
S214080020000000000000000000000000151B08008B
S214080030151B080000000000151B0800151B08000B
S214080040151B0800151B0800151B0800151B0800C3
S214080050151B0800151B0800151B0800151B0800B3
S214080060151B0800151B0800000000008919080069
S2140800709D190800B1190800C519080000000000FD
S21408008000000000151B0800151B0800151B0800BB
S214080090151B0800151B0800151B0800151B080073
S2140800A0151B080000000000151B0800E10E0800DC
S2140800B0151B0800151B0800151B0800151B080053
S2140800C0151B0800151B0800151B0800151B080043
S2140800D0151B0800BD020800151B0800151B0800A4
S2140800E0151B0800151B0800151B0800151B080023
S2140800F0151B080010B5054C237833B9044B13B10B
S2140801000448AFF300800123237010BDF00A0720CF
S21408011000000000D49608000C4B43B10C4810B5FC
S2140801200C49AFF300800C48036823B910BD0A4891
S214080130036833B97047094B002BF7D0BDE8104069
S2140801401847064B002BF5D0184700BF00000000E4
S214080150D4960800F40A0720D49608000000000089
S2140801602DE9F8430D4614461E4691421DDB33F929
S21408017012801E4FA0EB0800B847814636F91500D6
S214080180A0EB0800B84701464846194B9847194D52
S2140801901949A84706462046B8471749A8470146BA
S2140801A03046164B9847BDE8F88333F912700F4C63
S2140801B0C01BA047804636F91500C01BA04701465D
S2140801C040460B4B98470B4E0B49B04701460A482A
S2140801D00B4B984707462846A0470749B0470146AD
S2140801E03846064B9847BDE8F88300BFC532080076
S2140801F0D53408006D330800BD3706365D31080073
S2140802005931080038B525200E4B98470E4C002368
S2140802100E4A0F4920460F4DA84700231A4619468E
S21408022020460D4DA847002120460C4B9847002134
S21408023020460B4B9847002211462046094B984704
S21408024038BD00BFC11A080000000C40002D31015F
S214080250007A030A9D130800EF130800D11308005C
S21408026011140800E113080038B526200C4B9847EF
S2140802700C4C20460C4B9847002120460B4B9847C1
S2140802800023012211462046094DA8470021204692
S214080290084B984700212046074B984738BD00BFB3
S2140802A0C11A080000800C40C10D0800C70D0800E0
S2140802B0FB0D0800E30D0800290E08002DE9F0479D
S2140802C096B06548654B984710F0805F02D116B027
S2140802D0BDE8F087624FDFF8C0913C46DFF8BC8186
S2140802E0604E614D0C20C04734F9021F3046A847BF
S2140802F04C45F7D13D460026DFF8A491DFF8A481E7
S21408030035F9020FC84701463046C0470646A5429B
S214080310F6D15649564B9847564B984705464FF0E0
S214080320FF340026DFF868A1DFF87C9171E00199B8
S2140803301598514B98474E4C5049A04701464FF0E8
S2140803407E50A04727E0B7F900309D425AD3B1F94E
S21408035000309D4204BF03F1FF330B80534622460C
S21408036041462846C84716AB03EB860343F8540CA9
S214080370132E01DC013645E0019915983E4B984747
S2140803803B4C3E49A04701464FF07E50A04702E04E
S214080390002000E000203A4B98473A4B9847014621
S2140803A039483A4B984741F2243200213848394BAD
S2140803B09847294BD3F804311BB9274BD3F8143187
S2140803C06BB1254BD3F81431002B80D1224B304A21
S2140803D0C3F8102140F69212C3F8142177E71E4B93
S2140803E02B4AC3F8002140F69212C3F804210122D2
S2140803F0C3F820216BE79D42A9D101334B80A6E7BD
S2140804009D42F8D9B4F5196FC2D002374446152E66
S214080410C0DC04F101083946B7F902309D4292D390
S214080420B7F900209542EBD89D4204BF03F1FF338D
S2140804307B80954204BF01323A80534642462146A5
S2140804402846C84716AB03EB860343F8540C132E0E
S2140804503FF76DAF0136D5E700000C401F140800C3
S214080460C60C072000800C40DF0D08000020194548
S214080470D5340800F9360800593108000000204134
S214080480A92A08004D150800EC92080095370800C0
S214080490C80C0720113D0800EA1F072001000720A6
S2140804A0C53208005D310800610108000C2800D03C
S2140804B07047B1F1806FFBD108B54FF080624FF0FE
S2140804C020510A480A4B984718B90A480A4B9847D1
S2140804D008BD0A48084B984700210948094B984721
S2140804E04FF080610148084B984708BD00100E4041
S2140804F06F16080018930800613E0800FC92080072
S214080500000008403B1408004F17080070B582B07A
S2140805100C20184DA847184C01224FF08061204641
S214080520164B984700224FF080612046144B984798
S214080530144B009340234FF080620C212046124E45
S214080540B0474FF080612046104B98474FF48052D2
S2140805500F4B1A602320A847A4F5B2244FF4804214
S214080560022120460B4B9847022120460A4B984703
S21408057002B070BDC11A080000100E40C51608006B
S21408058065160800AD040800191908004B1708007E
S21408059000E100E0231408003B14080000000000F7
S2140805A02DE9F04F87B083460D4614460593431A47
S2140805B0314E86FB0320DB17DFF8D8A0C3EB60407C
S2140805C0D047804689462D4FC7E90089ABEB040B18
S2140805D086FB0B204FEAEB7BCBEB6040D047CDE9A0
S2140805E0000102460B46C7E90223651B86FB051079
S2140805F0ED17C5EB6040D0470A460146CDE9021222
S214080600C7E90412059BE41A86FB0430E417C4EB1A
S2140806106040D04782468B46C7E906AB184C14A301
S214080620D3E9002340464946A047164BC3E90001D4
S2140806300FA3D3E90023DDE90001A047124BC3E965
S21408064000010BA3D3E90023DDE90201A0470F4B05
S214080650C3E9000106A3D3E9002350465946A0473C
S2140806600B4BC3E9000107B0BDE8F08FAFF300807D
S214080670713D0AD7A374754083DE1B43F01F07201D
S214080680512B0800100B0720180B0720200B0720FB
S214080690280B0720852A08002DE9F04FB3B02B90C9
S2140806A02C912D928F4B18CB184621468E4B18CB83
S2140806B01F46A0468D4B18CB1D4626468C4CCDE9CA
S2140806C00A783A464346CDE90201A047804689465D
S2140806D0884BD3E90023CDE9065628463146A0477D
S2140806E0854E02460B4640464946B047CDE91201BC
S2140806F0824BD3E900AB824BD3E90023CDE9042330
S214080700804BD3E9002350465946A0478046894681
S2140807107D4BD3E90023DDE90401A04702460B46DA
S21408072040464946B047CDE91401DDE906783A4621
S214080730434638464146A047CDE91601734BD3E9F0
S2140807400012CDE90812724BD3E90023CDE90678EA
S21408075038464146A04780468946DDE90823DDE954
S2140807600201A04702460B4640464946B047694F35
S214080770DDE91223B847CDE91801674BD3E9002312
S214080780CDE91A23654BD3E90023DDE90601A04726
S21408079080468946DDE91A23DDE90201A0470246BC
S2140807A00B4640464946B047DDE91223B847CDE92F
S2140807B026015B4BD3E90012CDE91C12594BD3E94D
S2140807C00089CDE91E89584BD3E90089574BD3E9F0
S2140807D00012CDE92012564BD3E90023CDE9222397
S2140807E0544BD3E90012CDE92412534BD3E9001237
S2140807F0CDE90C12514BD3E90012CDE90E12504B3D
S214080800D3E90023CDE910234E4DDDE91623DDE9B3
S2140808101C01A847DDE90C23B04742464B46A847CB
S214080820DDE90E23B047DDE92223A847DDE91023DA
S214080830B047CDE92801DDE9020102460B46A0478C
S214080840DDE91C23A847DDE91E23B04742464B4690
S214080850A847DDE92023B047DDE92223A847DDE9DC
S2140808602423B047DDE90623A04780468946DDE90C
S2140808702823DDE90201A04702460B4640464946C2
S214080880B04780468946DDE9120102460B46A8476E
S21408089002460B4640464946B847CDE912012A4B60
S2140808A0D3E90023DDE90401A04780468946274BA3
S2140808B0D3E9002350465946A04702460B46404611
S2140808C04946B047DDE91423B84702460B46DDE93A
S2140808D01801B047CDE902011D4BD3E90023DDE935
S2140808E0040137E0100B0720C00B0720180B072061
S2140808F0512B0800B00B0720E9270800200B07201B
S214080900280B0720C80B0720B80B0720A00B0720CA
S214080910900B0720A52D0800E00B0720D00B07201A
S214080920300B0720380B0720500B0720580B0720E2
S214080930700B0720780B0720400B0720600B07205A
S214080940800B0720ED270800980B0720A80B072028
S214080950D80B0720A047804689469D4BD3E900233D
S21408096050465946A04702460B4640464946B047B9
S214080970DDE91423B847DDE92623B047DDE902237D
S214080980B847CDE9060152465B4650465946A04749
S214080990DDE90C23A847DDE91E23B047DDE90E2371
S2140809A0A847DDE92023B047DDE91023A847DDE99D
S2140809B02423B047DDE90423A04780468946DDE9BD
S2140809C0040102460B46A047DDE90C23A847814BE5
S2140809D0D3E90023B047DDE90E23A8477E4BD3E9C9
S2140809E00023B047DDE91023A8477C4BD3E9002352
S2140809F0B04752465B46A04702460B464046494625
S214080A00B04780468946DDE914BC5A4663465846D0
S214080A106146A84702460B4640464946B847DDE9C0
S214080A201223B047DDE90223B84780468946DDE948
S214080A3006AB52465B46DDE91801A047DDE92623EA
S214080A40A847CDE90201CDE9048942464B46DDE9CF
S214080A501801A047DDE91223A847CDE90C01DDE916
S214080A60088942464B4640464946A847DDE90423DE
S214080A70A047DDE92823A84780468946DDE90A011C
S214080A8002460B46A847DDE90C23A04702460B465C
S214080A9040464946A847CDE90E0152465B46DDE981
S214080AA00801A04780468946DDE90223DDE90A01F8
S214080AB0A04702460B4640464946A8478046894610
S214080AC0DDE91A0102460B46A84702460B46404691
S214080AD04946A84702460B46A847CDE90801002222
S214080AE03F4BDDE91601A047CDE91001DDE9028993
S214080AF042464B4640464946A047804689465246A7
S214080B005B46CDE906AB50465946A04702460B461B
S214080B1040464946A8470022324BA847DDE910233D
S214080B20A04780468946DDE908BC5A4663465846CB
S214080B306146A04702460B4640464946B047CDE9BF
S214080B400A01DFF8A880DDE90423D8E90001B047E8
S214080B50CDE91201DDE90C23D8E90801B047CDE953
S214080B601401D8E910ABDDE91223DDE90601A04738
S214080B7080468946DDE91423DDE90201A0470246DE
S214080B800B4640464946A84752465B46A847804615
S214080B9089460022144BDDE91601A04702460B469B
S214080BA040464946A04780468946DDE90801024690
S214080BB00B46A847DDE90E23A04702460B464046EB
S214080BC04946A84780468946DDE90A0102460FE0FD
S214080BD0E80B0720480B0720680B0720880B072020
S214080BE0000010400000F03F0000204010200720C2
S214080BF00B46A84702460B4640464946B847804635
S214080C008946CDE9088902460B46A047CDE9160174
S214080C10DDE9148942464B4640464946A047804689
S214080C208946DDE9120102460B46A04702460B46F6
S214080C3040464946A8478046894652465B4650463F
S214080C405946A04702460B4640464946A847DDE9AE
S214080C501023A04780468946DDE90EBC5A466346FF
S214080C6058466146A04702460B4640464946B047A6
S214080C70DDE90A23B84702460B46DDE91601B04708
S214080C8002460B460021019100912EA83449884758
S214080C90DDF8C080319FDDE92E23DDE90801B04785
S214080CA082468B4607F1004902460B46DDE90601F7
S214080CB0A047DDE90423A84706460F4652465B468A
S214080CC0DDE90201A047DDE90C23A847CDE90201CA
S214080CD040464946234B984781460021224B984771
S214080CE0B8B1504659462D9BC3E900011D4C304605
S214080CF03946A0471D4EB0472B9BC3E90001DDE9E6
S214080D000201A047B0472C9BC3E9000133B0BDE8F9
S214080D10F08F164C4846A047CDE904015046594680
S214080D20104B9847A047124C02460B46A0478046F1
S214080D308946DDE904AB52465B4650465946A0470D
S214080D4002460B46404649460A4CA0470A4B984777
S214080D500A4C52465B46A0470022094BA047C2E70A
S214080D60351F0800B130080095360800A92A080083
S214080D70512B0800ED27080059220800E92708002B
S214080D800000F03F2DE9F04180B90C469046002A55
S214080D900FDD8F18084E094D306821462B68984796
S214080DA00134BC42F8D14046BDE8F0814FF0FF3828
S214080DB0F9E78046F7E700BF78200720702007206D
S214080DC001230360704729B9436823F01003436082
S214080DD000207047436843F010034360F8E7016259
S214080DE070474368012901D90120704723F49813F6
S214080DF043EA014141600020704710B4446824F07B
S214080E007C5424F47F44090289B221434AB921F468
S214080E1000111B0603F07C530B434360002010BCF4
S214080E20704741F40011F4E7012901D90120704701
S214080E30012303FA01F10161002070472DE9F84308
S214080E400D4614461E4691421DDB33F912801E4F8E
S214080E50A0EB0800B847814636F91500A0EB080055
S214080E60B84701464846194B9847194D1949A847A7
S214080E7006462046B8471749A84701463046164B47
S214080E809847BDE8F88333F912700F4CC01BA0478B
S214080E90804636F91500C01BA047014640460B4B56
S214080EA098470B4E0B49B04701460A480B4B9847E4
S214080EB007462846A0470749B04701463846064B26
S214080EC09847BDE8F88300BFC5320800D534080047
S214080ED06D330800BD3706365D3108005931080005
S214080EE02DE9F04F9BB000219048914B98471990F8
S214080EF0199B904C2046904B984720468F4B984716
S214080F008F4B1B688F4A22F8130040F691129342C3
S214080F100ADC01468C488D4B9847894A136801338A
S214080F2013601BB0BDE8F08F00218048884B9847B7
S214080F300023834A1360DFF89CA29B46B6E1049917
S214080F401898844B9847844C8449A04701464FF02C
S214080F507E50A0470446824B1B6853B981492046F9
S214080F60814B984728B181492046814B98470028ED
S214080F704BD1804B1B68002B40F071817E49204680
S214080F807E4B9847002800F06A817D492046784BBA
S214080F909847002800F063810122764B1A60794B47
S214080FA0C3F800B02046784B9847784B9847784B5C
S214080FB01A6801467748784B98476EE1B4F90030CE
S214080FC09E42C0F02081B1F900309E4204BF03F172
S214080FD0FF330B805B4B2A4641463046C8471AAB60
S214080FE003EB870343F8580C132F01DC01370AE19B
S214080FF004991898574B9847574C5849A0470146A4
S2140810004FF07E50A0470446A5E70122544B1A60CD
S214081010624BC3F800B020465B4B98475B4B98473B
S2140810205B4B1A6801465B485B4B984735E10122E3
S2140810305B4B1A605B4BC3F800B02046524B984790
S214081040524B9847524B1A6801465248524B98479B
S21408105023E10122544B1A60544BC3F800B02046D3
S214081060494B9847494B9847494B1A68014649489F
S214081070494B984711E14C4B1B68002B00F0AC809D
S2140810803C4B1B68002B00F0A780454B1B68002BC9
S21408109000F0A280324B1B68002B00F09D80434D69
S2140810A02968384E32683F4F3B68A1EB030AA3EB2A
S2140810B00209DFF8E880D8F80000A3EB000B891ACD
S2140810C03B48354CA04751463A48A04749463A4817
S2140810D0A04759463948A047B8F90030B7F9002064
S2140810E0B6F90010B5F90000354DA8471AAA002031
S2140810F0002162E9160102A96846324B9847DDE9E5
S2140811000001224DA84701462F48A047DDE9020105
S214081110A84701462D48A047DDE90401A84701462F
S2140811202B48A04700220E4B1A6058E000000840E3
S2140811305B14080000000C400B1408001B14080081
S214081140000C0720C80C072000800C40DF0D0800A4
S2140811504314080059310800D5340800000020411F
S214081160FC0B072000AC0A47D136080000042647C7
S214081170BD360800F40B0720008C3947E536080012
S21408118000144D470C0C0720A92A08004D15080026
S214081190040C07204493080095370800080C07201D
S2140811A0F80B0720140C0720F00B0720100C07205C
S2140811B064930800709308007C93080088930800DE
S2140811C0A10508009906080094930800A093080053
S2140811D0AC930800C60C07204648474B984741F290
S2140811E0243200214548464B98474FF080614548D1
S2140811F0454B984795E69E427FF4E5AE01334B8013
S214081200E1E69E42F7D9B5F5196F27D00234454670
S214081210152F23DC05F101082146B4F902309E4259
S214081220FFF4CCAEB4F900209642EAD89E4204BF3A
S21408123003F1FF336380964204BF013222802F4BAE
S214081240424629463046C8471AAB03EB870343F89D
S214081250580C132F3FF773AE0137D4E700242B4BF7
S2140812601B685BB92A4920462A4B984730B12A4959
S21408127020462A4B984700287FF4D9AE284B1B688F
S2140812805BB928492046234B984730B12049204669
S214081290224B984700287FF4DCAE0BF1010B0AF1CD
S2140812A0020A40F692139B453FF4E5AE1E4BC3F880
S2140812B000B0DFF890801D4C00251D4F1D4E34F9F8
S2140812C0020FB84701462846B04705464445F6D1BA
S2140812D019491A4B98471A4B9847064640F69113F1
S2140812E09B45BBDC0BF1FF3554460027DFF85890CA
S2140812F090E700BFB8930800613E0800C80C0720B6
S214081300113D080000100E404B170800F80B072088
S214081310009C6047E536080000D68347BD360800BF
S214081320F00B072000144D47040C0720C60C0720B6
S214081330C53208005D31080000201945D53408007C
S214081340F9360800EA1F07203D0E08000138022873
S21408135015D82DE9F0410E4614469AB10D46DFF829
S21408136038800C4FD8F8000015F8011B3B689847E2
S21408137000280ADBA81B013CF4D1BDE8F0814FF039
S214081380FF3070471046BDE8F0814FF0FF30BDE8EB
S214081390F08100BF742007207820072030B401248D
S2140813A004600024446040F20225C0F82051C0F8CA
S2140813B00441C0F8144145685200B1FBF2F2013A04
S2140813C0120292B22B431A434260204630BC704742
S2140813D0436823F01003436043681943416070472D
S2140813E04368D201D2B219430A434260704710B428
S2140813F04468090601F0706121430A43190701F0A1
S21408140040511143416010BC704702230360704787
S214081410012303FA01F101617047006A7047006B07
S214081420704710B489014318022444504FF0FF3126
S2140814309962196A5A6010BC70478901052343509F
S2140814407047890102234350704700EB8111CA6137
S214081450704700EB81114A62704700EB8111086AF9
S214081460704710B4AC2303600B684A68B3FBF2F30A
S2140814701B095C1E4FF6FE7294420BD803628B68FB
S214081480436040F20223C0F8203150230360002056
S21408149010BC70470120FBE7436913F0020F1ABF20
S2140814A0C161002001207047436913F0010F1DBF7A
S2140814B083690B70002001207047436913F0020F00
S2140814C01DBFC1F30801C1610020012070474369B0
S2140814D013F0010F05D08369C3F308030B600020DF
S2140814E0704701207047000010B51B200F4B984727
S2140814F00F4C4FF48042002120460E4B984754224A
S214081500002120460C4B98474FF000620B4B1A60A0
S2140815101022002120460A4B984700212046094BF6
S21408152098470122084B1A6010BD00BFC11A080070
S21408153000000840231408004B14080000E100E0EF
S214081540531408003B140800180C0720F8B5064684
S2140815500F461420074B9847044600230360436051
S2140815608360C360036132463B460349034DA84780
S2140815702046F8BDBD370800C89308003540080067
S21408158010B50E480E4B98473E2100200D4B984745
S2140815900D4CA0470028FCD00C4B98470C4A0D4B26
S2140815A09A620D4CA0470028FCD010200B4B984799
S2140815B00B4B98470148024B984710BD00BD0105E4
S2140815C0B10007203D1A0800911A0800A11A080061
S2140815D0013F0D2000060E40B11A0800D919080070
S2140815E0B11B080010B54FF40042164B5A600B208A
S2140815F0154CA0470C20A0470D20A0470E20A0475A
S2140816004FF060513B20114CA0474FF060515520D9
S214081610A0474FF060515620A0470D496820A047C4
S2140816200C495C20A0470C4A4FF440710B480C4B01
S21408163098474FF000612B20A0474FF000612A2002
S214081640A04710BD501A0E40C11A08005D170800C2
S214081650790000280100002801000008000E0E404E
S2140816602D1808000AB9016670474166704721F0D0
S2140816700061B1F1405F0CBF836BC36B134214BFAC
S2140816800120002070474264B1F1805F16D00BD865
S21408169049B1B1F1006F05D1036F016F0B4023EA22
S2140816A00203036742607047B1F1405FFBD0B1F1B7
S2140816B0605FF8D0B1F1205FF4D17047036F134331
S2140816C00367EFE7416412F0010F14BF4166016635
S2140816D012F00A0F14BF0162416212F0020F07D11E
S2140816E012F0080F18BFC0F88410416101607047F7
S2140816F0C0F88010F9E710B4019C416444B901664B
S21408170043B1016542B941630161016010BC70478D
S2140817104166F5E74165F5E70163F5E712F0100F56
S21408172010D0C0F8B01012F0200F14BFC0F8D410B4
S214081730C0F8D01012F0400F14BFC0F8C010C0F8A0
S214081740C4107047C0F8B41070470164704741640D
S2140817507047C06C7047806C7047000070B582B0E8
S2140817600D46430903F5001303F207735C0201F004
S214081770F043B3F1205F31D016D8B3F1006F1BD019
S214081780B3F1805F16D100F01F000126864032466E
S2140817904FF080512046224B984715F0010F14BF92
S2140817A066662666012017E0B3F1405F21D0B3F1E4
S2140817B0605F1ED000200FE000F01F000126864064
S2140817C032464FF000612046154B984715F0010F3A
S2140817D014BF66662666012002B070BD00F01F01C1
S2140817E001262A4606FA01F120460E4B984730464F
S2140817F0F2E705F0605200F01F01012605EA06032D
S2140818000093C5F38003B2F1605F14BF0022012283
S21408181006FA01F12046044CA0473046DCE700BF34
S21408182087160800C5160800F716080070B582B0B7
S21408183005460E46144602F0F043B3F1205F27D063
S21408184011D8B3F1006F16D0B3F1805F11D10A46F4
S2140818504FF08051194B984714F0010F14BF6E666D
S2140818602E66012012E0B3F1405F15D0B3F1605F39
S21408187012D000200AE00A464FF000610F4B984746
S21408188014F0010F14BF6E662E66012002B070BDFC
S2140818900B4B98470120F9E704F0605204F0010367
S2140818A00093C4F38003B2F1605F14BF00220122E4
S2140818B031462846034CA0470120E7E7871608006C
S2140818C0C5160800F71608002DE9F04104468846B4
S2140818D00E4B9847054620460D4B9847054013D0B3
S2140818E00C4C04F1600603E0B4420DD010345DB130
S2140818F020684045F8D161682942F5D0E3689847E2
S214081900636825EA0305EFE7BDE8F081531708008A
S214081910571708001C0C0720F8B5184C2668062E22
S21408192029D84FF0000C6446154F04E00134E4B2A1
S214081930A446A64209D3A64625017D598D42F5D16F
S21408194007EB04156D689542F0D10D4D4FEA0E1E53
S21408195005EB0E0445F80E106260A3600699E16078
S2140819600136664504BF05490E6011461A46054B02
S21408197098470020F8BD0120F8BD00BF8C0C072052
S2140819801C0C07201D17080008B50B210148024B40
S214081990984708BD000E0E40C918080008B50C2167
S2140819A00148024B984708BD00100E40C9180800A9
S2140819B008B50D210148024B984708BD00120E4095
S2140819C0C918080008B50E210148024B984708BDFB
S2140819D000140E40C9180800174A136B23F070034A
S2140819E018431063936E13F0080F0AD14FF4006380
S2140819F011498A6E12F0080F03D1013BF9D1012074
S214081A0070470D4A136B23F0030343F00203136376
S214081A10936E13F0080F0AD14FF4006306498A6ED6
S214081A2012F0080F05D1013BF9D1012070470020BC
S214081A3070470020704700BF00060E40C8B9114A1C
S214081A40136A090289B223F45C1323F0030343F4F0
S214081A505C1343F001030B431362936E13F0010FFC
S214081A60FBD0084A136A43F09B7343F4803313622F
S214081A70704704490B6A044A1A40044B13430B6226
S214081A80704700BF00060E40FCFFC8FE0200370184
S214081A90024B986E00F48030704700BF00060E4078
S214081AA04FF00052014B9A62704700BF00060E4086
S214081AB0024B986E00F00200704700BF00060E400A
S214081AC02C281ED81F280CD8114B9A69012383404E
S214081AD0934318D0012303FA00F00D4B1861002039
S214081AE0704720380A4BD3F80821012383409343D4
S214081AF00BD0012303FA00F0054BC3F800010020C1
S214081B00704701207047002070470020704700BFCC
S214081B1000060E40FEE7000008B51C4B1C4A9A4219
S214081B2010D01C4B194A9A420CD2013B9B1A23F040
S214081B30030304331344164951F8040B42F8040B04
S214081B409A42F9D1144B154A9A420AD2013B9B1A7B
S214081B5023F0030304331344002142F8041B934282
S214081B60FBD10F4B23F0604222F07F020D498A60BA
S214081B7003F16043B3F5801F03D28B6843F000532C
S214081B808B60094B9847094B9847FEE700000720EB
S214081B90D4960800F00A0720A4200720F00A072099
S214081BA00000080000ED00E045370800611E080048
S214081BB03D4B1B6B03F00303032B0ED8DFE803F043
S214081BC0021C3838394B5B6913F0800F14BF4FF48A
S214081BD000424FF4FA42364B1A60334B1B6B03F045
S214081BE07003702B57D0304B1A6B3149C2F3021270
S214081BF00B68D3400B6070472B4B1B6A13F0807F33
S214081C0003D02C4A2A4B1A60E7E72B4A284B1A605F
S214081C10254B1B6A03F07003102B05D0202BDCD154
S214081C20244A234B1A60D8E7244A214B1A60D4E783
S214081C301D4B1B6A13F0807F0CD01E4A1C4B1A6083
S214081C40194B1B6B03F00303022B16D01C4A184BC8
S214081C501A60C2E7184A164B1A60134B1B6A03F041
S214081C607003102B05D0202BEAD1124A104B1A60AD
S214081C70E6E7124A0E4B1A60E2E70B4A916A926A46
S214081C800B48C1F30A41036801FB0333D2B2B3FB26
S214081C90F2F30360A1E7064A13680A49A1FB031397
S214081CA05B081360704700BF00060E40101A0E400F
S214081CB038010720001BB70000093D0000127A0013
S214081CC0001C4E0EABAAAAAA0A4B1B6853B1094BB6
S214081CD01B681A180849914208DB1046054A106026
S214081CE018467047054A034B1A60F0E74FF0FF3076
S214081CF0704700BF900C0720FC7F0820A8400720EC
S214081D004FF0FF3070474FF400534B600020704789
S214081D100120704700207047F0B583B004460D4692
S214081D2000230193204B98420DD0204B984212D0A6
S214081D301F4B984219D01F4B9C4220D01E4B9C42EA
S214081D4027D003B0F0BD1F461C4E29463846B0477C
S214081D500028FAD1EFE71F46194E01A93846B047C2
S214081D600028FAD1019B2B70E8E71E46144C01A9FF
S214081D703046A0470028FAD1019B2B70E1E71E46A3
S214081D800F4C01A93046A0470028FAD1019B2B70BA
S214081D90D7E71E460A4C01A93046A0470028FAD1C4
S214081DA0019B2B70CDE700BF00080E40008009405D
S214081DB000C0094000000A4000400A40A914080074
S214081DC0CF14080070B50C461E4B98420DD01E4B1B
S214081DD0984213D01D4B984219D01D4B98421FD0DD
S214081DE01C4B984225D0002070BD1E461A4D214631
S214081DF03046A8470028FAD1012070BD1E46174D68
S214081E0021463046A8470028FAD1012070BD1E4654
S214081E10124D21463046A8470028FAD1012070BD49
S214081E201E460E4D21463046A8470028FAD1012006
S214081E3070BD1E46094D21463046A8470028FAD1EF
S214081E40012070BD00080E400080094000C009400F
S214081E5000000A4000400A4099140800BB14080015
S214081E6070B584B01F4B98471F4B984708201F4CE7
S214081E70A0471F4D1F4B1D601F4A204B1A60204A63
S214081E80204B1A60204B01934FF4E13302934FF432
S214081E90006303930820A04701A928461B4B9847D0
S214081EA01B4E3368002198681A4DA84733680021EE
S214081EB05868A8471848194DA8471948A8470B2036
S214081EC0A0470C20A0470D20A0470E20A047154B82
S214081ED09847154B9847154B9847154B9847002039
S214081EE004B070BD81150800E5150800C11A080081
S214081EF000080E4078200720C51D0800742007201B
S214081F00191D08007020072000BD0105631408008D
S214081F1040010720953E0800D09308009537080032
S214081F20E0930800E91408000502080069020800A2
S214081F300D05080082B02DE9F04782B00AA981E8AD
S214081F400C00DDE90C238246DDE90A0100F004FAFC
S214081F50DDE90C2304460D46DDE90A0100F0F6F932
S214081F600022002306460F4601F05AF800220023F6
S214081F70D0B12046294601F053F8002800F0C68064
S214081F80002200233046394600F0E2FD00220023F6
S214081F9000F02CFCCAE90001CAE90267504602B004
S214081FA0BDE8F04702B070472046294601F038F8E9
S214081FB028B33046394600F04BF90022A04B00F013
S214081FC0C7FD00F049F9002204460D4600233046B6
S214081FD0394601F04DF8002800F0D480002200238E
S214081FE02046294600F0B4FD22462B4600F0FEFBAC
S214081FF022462B46CAE90001CAE90223CEE7204654
S214082000294600F025F900228E4B01F031F8002809
S21408201000F097802046294600228B4B00F098FD5A
S2140820200022894B804689463046394600F090FDA6
S21408203000224FF0804304460D46CDE900230022D7
S21408204000232046294600F083FD42464B4600F012
S214082050CDFB22462B4600F05DF9002206460F46C9
S21408206000234046494601F003F8002800F099800E
S214082070304639460022724B00F06AFD00220646BA
S2140820800F466F4B4046494600F062FD02460B4637
S2140820903046394600F0AAFB00F0DEF806460F4642
S2140820A00022674B2046294600F052FD32463B4642
S2140820B000F078FE00F0CCF802460B46DDE9000199
S2140820C000F046FD32463B4681468846DDE900017B
S2140820D000F03EFD06460F4620462946002200230D
S2140820E000F0A8FF002840F0918000220023484610
S2140820F0414600F02DFD32463B4600F077FB4A4647
S2140821004346CAE90001CAE9022347E720462946AA
S21408211000F09EF800F0A0F80022002380468946CA
S2140821202046294600F086FF0022002300287CD19E
S2140821303046394600F00CFD42464B4600F056FB4A
S21408214028E73046394600F083F800223D4B00F079
S2140821508FFF00287FF45EAF2046294600223B4BBF
S21408216000F0F6FC0022394B804689463046394650
S21408217000F0EEFC00224FF0795304460D46CDE9F8
S21408218000235CE7294600220023204600F0E0FCF6
S21408219002460B462046294600F026FB05F1004578
S2140821A026E7304639460022254B00F0D1FC0022AF
S2140821B006460F46224B4046494600F0C9FC0246F2
S2140821C00B463046394600F00FFB00F045F88046CF
S2140821D0894600221A4B2046294600F0B9FC42469A
S2140821E04B4600F0DFFD00F033F802460B46DDE90B
S2140821F0000100F0ADFC42464B4606460F46DDE9B8
S214082200000100F0A5FC8146884665E741460022A5
S2140822100023484600F09CFC02460B4630463946EA
S21408222000F0E2FA08F1004869E74046494600F03F
S2140822308FFC0022002300F0D9FA46464F46A9E64E
S2140822400000E03F000010400000D03F0000504370
S21408225021F00041704700BF2DE9F04F8BB00446CF
S2140822600D4600F07DF8294B064693F900A00F4668
S214082270BAF1FF3F12D022462B462046294600F0E8
S21408228001FF834650B94FF000084FF0000920467A
S214082290294642464B4600F0CDFE20B93046394620
S2140822A00BB0BDE8F08F0122194BCDF820B0CDE970
S2140822B00445CDE902458DE80C00BAF1000F17D0A9
S2140822C042464B464046494600F06CFDBAF1020FBE
S2140822D0CDE906010ED101F02FFA21230360089BF1
S2140822E073B9DDE90667304639460BB0BDE8F08FAE
S2140822F0CDE90689684600F0EFF80028EFD1EAE74E
S21408230001F01AFA089B0360EBE700BF3C010720C0
S214082310F09308002DE9F04716461F4604460D467A
S21408232032463B462046294600F016F83246804696
S21408233089463B462046294600F008F802460B46E2
S21408234040464946BDE8F04700F0C8B8104619466A
S21408235084B004B0704700BF84B004B0704700BFB4
S2140823602DE9F8435B4F05468F430C4600F09280F4
S21408237000290B4602466FDD0F157BD0A7F2FF3704
S214082380C3F31303F80743F480135CD4002616201F
S214082390B6464FF4001103EBD2747F102344520064
S2140823A00EEB01049C424FEAD2754FEA420203DC68
S2140823B01B1B04EB010E0E44013805EB43034FEAE2
S2140823C05101EDD1202484464FF0004109E020D089
S2140823D003EBD275013C4FEA51012B444FEA420207
S2140823E020D0734501EB0C05F1DD002D05EB010C43
S2140823F009DBF0469542A3EB0E0300D9013BC6461F
S214082400521B0844E4E7BCF1000FF2DB0EF10108AA
S214082410F0E79542DCD8002D05EB010C44DB984626
S2140824200023ECE7134313D14008731003F17F53DE
S21408243003F5001303EB07594946F20748BF40F077
S2140824400040BDE8F8835B0003EBD27352009DE7BB
S214082450411C2DD00130E7E7064621F000473E43F1
S214082460EFD069BB0F46D30A153F5205002BFAD0AA
S214082470DE0220D4002400E004465B00DD0204F1FE
S2140824800100F9D5C0F1200122FA01F10B433F1BE8
S214082490824073E702460B4600F05AFB2A4623465C
S2140824A000F0A4F9BDE8F883BCF1000FAEDAB6E791
S2140824B001362046B9E7002020214FF0FF34E3E735
S2140824C002460B4600F090F902460B4600F06AFCFE
S2140824D0B7E700BF0000F07F002070472DE9F04FF7
S2140824E08BB0994606460F46904600F051F8DFF83E
S2140824F09CA004469AF900300D46013303D000F03C
S21408250069F9834620B1204629460BB0BDE8F08F0E
S2140825103046394600F05EF90028F4D04046494671
S21408252000F058F90028EED00321154A9AF9003031
S214082530CDF820B0CDE90267CDE904898DE806001C
S21408254073B100200F49022BCDE906010DD101F029
S214082550F3F822230360089B6BB9DDE90645D2E74A
S2140825604FF06042084BCDE906236846FFF7B4FFF4
S2140825700028F0D1EBE701F0DFF8089B0360ECE7F2
S214082580F89308000000F07FFFFFEF473C010720A4
S2140825902DE9F04F21F0004623F00047BE4289B0EF
S2140825A005DAB64604463E46104677462246F31BEC
S2140825B0B3F1707F90463146B9468246B34600F37B
S2140825C09880804B9E427DDC002301937E4B9F4281
S2140825D01CDCB7F5801F80F2EA8043463B436CD08C
S2140825E000247A4D2246404649462B4600F0B0FA6B
S2140825F02246019C80468946504659462B46A4F2F8
S214082600FE34019400F0A4FA82468B4642464B46B6
S2140826105046594600F0E8F805460C4602460B4672
S2140826204046494600F006FD00286DD00024334693
S21408263022463146204600F08BFA4246CDE9020192
S2140826404B46404609F1004100F082FA35460F46EF
S214082650064622462B465046594600F0C5F82246FE
S214082660804689462B465046594600F0BFF8024633
S2140826700B464046494600F06BFA02460B46304683
S214082680394600F0B1F802460B46DDE9020100F0D3
S214082690ABF8FFF765FE82468B46019B6BB10020C0
S2140826A01B0503F17F5101F5401102460B465046C3
S2140826B0594600F04DFA82468B465046594609B0B0
S2140826C0BDE8F08F424B9E4267DD0346C6F313060D
S2140826D0334304D03B4600F089F882468B4643468F
S2140826E087F0FF4787F4E0073B43E6D1C246CB4670
S2140826F0E3E73B46314600F079F882468B4650467B
S214082700594609B0BDE8F08F06F5801100223B4611
S2140827100F46CDE90223104619463B46164600F0FA
S21408272017FA2A46CDE904012346284604F1004153
S21408273000F00EFA5246CDE906015B465046594669
S21408274000F054F832463B4600F04EF842464B46F8
S21408275000F0FEF9DDE9022304460D4640464946E8
S21408276000F042F832463B4600F0F2F902460B46C5
S2140827702046294600F03AF802460B46DDE90601EF
S21408278000F032F802460B46DDE9040100F02CF8AA
S214082790FFF7E6FD82468B467FE74FF41673A6F1F1
S2140827A01656A7F11657B346B94601930EE7019B8E
S2140827B006F1165607F11657A3F51673B346B9462B
S2140827C0019323E70000305FFFFFAF200000D07FB3
S2140827D0FFFFEF7F41F0004101F58010C00F704702
S2140827E081F0004102E000BF83F0004330B54FEAB5
S2140827F041044FEA430594EA050F08BF90EA020F22
S2140828001FBF54EA000C55EA020C7FEA645C7FEAB4
S214082810655C00F0E2804FEA5454D4EB5555B8BFD7
S2140828206D420CDD2C4480EA020281EA030382EA48
S214082830000083EA010180EA020281EA0303362DDA
S21408284088BF30BD11F0004F4FEA01314FF4801CAD
S2140828504CEA113102D0404261EB410113F0004FBF
S2140828604FEA03334CEA133302D0524263EB430376
S21408287094EA050F00F0A780A4F10104D5F1200E14
S2140828800DDB02FA0EFC22FA05F2801841F100016F
S21408289003FA0EF2801843FA05F359410EE0A5F143
S2140828A020050EF1200E012A03FA0EFC28BF4CF074
S2140828B0020C43FA05F3C01851EBE37101F000452A
S2140828C007D54FF0000EDCF1000C7EEB00006EEB37
S2140828D00101B1F5801F1BD3B1F5001F0CD34908C1
S2140828E05FEA30004FEA3C0C04F101044FEA445218
S2140828F012F5800F80F09A80BCF1004F08BF5FEA9F
S214082900500C50F1000041EB045141EA050130BD7E
S2140829105FEA4C0C404141EB010111F4801FA4F121
S2140829200104E9D191F0000F04BF01460020B1FA76
S21408293081F308BF2033A3F10B03B3F120020CDAAE
S2140829400C3208DD02F1140CC2F10C0201FA0CF08C
S21408295021FA02F10CE002F11402D8BFC2F1200CF1
S21408296001FA02F120FA0CFCDCBF41EA0C019040A7
S214082970E41AA2BF01EB0451294330BD6FEA0404F0
S2140829801F3C1CDA0C340EDC04F11404C4F12002DB
S21408299020FA04F001FA02F340EA030021FA04F3ED
S2140829A045EA030130BDC4F10C04C4F1200220FA44
S2140829B002F001FA04F340EA0300294630BD21FA82
S2140829C004F0294630BD94F0000F83F4801306BF48
S2140829D081F480110134013D4EE77FEA645C18BF3C
S2140829E07FEA655C29D094EA050F08BF90EA020FD3
S2140829F005D054EA000C04BF1946104630BD91EACB
S214082A00030F1EBF0021002030BD5FEA545C05D1CD
S214082A104000494128BF41F0004130BD14F580040C
S214082A203CBF01F5801130BD01F0004545F0FE4180
S214082A3041F470014FF0000030BD7FEA645C1ABFB5
S214082A40194610467FEA655C1CBF0B46024650EAEC
S214082A50013406BF52EA033591EA030F41F4002118
S214082A6030BD00BF90F0000F04BF0021704730B59E
S214082A704FF4806404F132044FF000054FF0000173
S214082A8050E700BF90F0000F04BF0021704730B534
S214082A904FF4806404F1320410F0004548BF404209
S214082AA04FF000013EE700BF42004FEAE2014FEA5E
S214082AB031014FEA02701FBF12F07F4393F07F4F39
S214082AC081F06051704792F0000F14BF93F07F4F6B
S214082AD0704730B54FF4607401F0004521F00041AE
S214082AE020E700BF50EA010208BF704730B54FF034
S214082AF000050AE050EA010208BF704730B511F039
S214082B00004502D5404261EB41014FF4806404F170
S214082B1032045FEA915C3FF4DCAE4FF003025FEAF2
S214082B20DC0C18BF03325FEADC0C18BF033202EB7A
S214082B30DC02C2F1200300FA03FC20FA02F001FAD4
S214082B4003FE40EA0E0021FA02F11444C1E600BF73
S214082B5070B54FF0FF0C4CF4E06C1CEA11541DBF26
S214082B601CEA135594EA0C0F95EA0C0F00F0DEF8F1
S214082B702C4481EA030621EA4C5123EA4C5350EAD6
S214082B80013518BF52EA033541F4801143F4801327
S214082B9038D0A0FB02CE4FF00005E1FB02E506F0B8
S214082BA00042E0FB03E54FF00006E1FB03569CF00D
S214082BB0000F18BF4EF0010EA4F1FF04B6F5007F13
S214082BC064F5407404D25FEA4E0E6D4146EB060685
S214082BD042EAC62141EA55514FEAC52040EA5E500E
S214082BE04FEACE2EB4F1FD0C88BFBCF5E06F1ED8B8
S214082BF0BEF1004F08BF5FEA500E50F1000041EBEF
S214082C00045170BD06F0004646EA010140EA02009B
S214082C1081EA0301B4EB5C04C2BFD4EB0C0541EABD
S214082C20045170BD41F480114FF0000E013C00F3D2
S214082C30AB8014F1360FDEBF002001F0004170BDF6
S214082C40C4F10004203C35DA0C341BDC04F114040F
S214082C50C4F1200500FA05F320FA04F001FA05F29B
S214082C6040EA020001F0004221F0004110EBD37068
S214082C7021FA04F642EB06015EEA430E08BF20EA94
S214082C80D37070BDC4F10C04C4F1200500FA04F337
S214082C9020FA05F001FA04F240EA020001F00041C9
S214082CA010EBD37041F100015EEA430E08BF20EA3C
S214082CB0D37070BDC4F1200500FA05F24EEA020E84
S214082CC020FA04F301FA05F243EA020321FA04F0B3
S214082CD001F0004121FA04F220EA020000EBD3706A
S214082CE05EEA430E08BF20EAD37070BD94F0000F6A
S214082CF00FD101F00046400041EB010111F4801F9E
S214082D0008BF013CF7D041EA060195F0000F18BF4E
S214082D10704703F00046520043EB030313F4801F8A
S214082D2008BF013DF7D043EA0603704794EA0C0F44
S214082D300CEA135518BF95EA0C0F0CD050EA41065A
S214082D4018BF52EA4306D1D181EA030101F00041D7
S214082D504FF0000070BD50EA410606BF10461946FF
S214082D6052EA430619D094EA0C0F02D150EA01360B
S214082D7013D195EA0C0F05D152EA03361CBF10464C
S214082D8019460AD181EA030101F0004141F0FE41EB
S214082D9041F470014FF0000070BD41F0FE4141F46F
S214082DA0780170BD70B54FF0FF0C4CF4E06C1CEA6F
S214082DB011541DBF1CEA135594EA0C0F95EA0C0F24
S214082DC000F0A7F8A4EB050481EA030E52EA0335DF
S214082DD04FEA013100F088804FEA03334FF0805500
S214082DE045EA131343EA12634FEA022245EA11152D
S214082DF045EA10654FEA00260EF000419D4208BFDE
S214082E00964244F1FD0404F5407402D25B084FEA8A
S214082E103202B61A65EB03055B084FEA32024FF436
S214082E2080104FF4002CB6EB020E75EB030E22BF93
S214082E30B61A754640EA0C005B084FEA3202B6EB53
S214082E40020E75EB030E22BFB61A754640EA5C0002
S214082E505B084FEA3202B6EB020E75EB030E22BF92
S214082E60B61A754640EA9C005B084FEA3202B6EB93
S214082E70020E75EB030E22BFB61A754640EADC0052
S214082E8055EA060E18D04FEA051545EA16754FEAB4
S214082E9006164FEAC30343EA52734FEAC2025FEAD2
S214082EA01C1CC0D111F4801F0BD141EA00014FF061
S214082EB000004FF0004CB6E711F4801F04BF014332
S214082EC00020B4F1FD0C88BFBCF5E06F3FF6AFAE4E
S214082ED0B5EB030C04BFB6EB020C5FEA500C50F1DE
S214082EE0000041EB045170BD0EF0004E4EEA113161
S214082EF014EB5C04C2BFD4EB0C0541EA045170BD68
S214082F0041F480114FF0000E013C90E645EA060EAB
S214082F108DE60CEA135594EA0C0F08BF95EA0C0FD9
S214082F203FF43BAF94EA0C0F0AD150EA01347FF421
S214082F3034AF95EA0C0F7FF425AF104619462CE7F8
S214082F4095EA0C0F06D152EA03353FF4FDAE10465B
S214082F50194622E750EA410618BF52EA43067FF4AC
S214082F60C5AE50EA41047FF40DAF52EA43057FF43C
S214082F70EBAE12E74FF0FF3C06E000BF4FF0010C47
S214082F8002E000BF4FF0010C4DF804CD4FEA410CAB
S214082F907FEA6C5C4FEA430C18BF7FEA6C5C1BD078
S214082FA001B050EA410C0CBF52EA430C91EA030FF9
S214082FB002BF90EA020F0020704710F1000F91EA56
S214082FC0030F58BF994208BF90422CBFD8176FEA24
S214082FD0E37040F0010070474FEA410C7FEA6C5CF2
S214082FE002D150EA013C07D14FEA430C7FEA6C5CF9
S214082FF0D6D152EA033CD3D05DF8040B704700BF25
S2140830008446104662468C461946634600E000BF72
S21408301001B5FFF7B7FF002848BF10F1000F01BD44
S2140830204DF808EDFFF7F4FF0CBF012000205DF80F
S21408303008FB00BF4DF808EDFFF7EAFF34BF012094
S21408304000205DF808FB00BF4DF808EDFFF7E0FF2D
S21408305094BF012000205DF808FB00BF4DF808ED7E
S214083060FFF7CEFF94BF012000205DF808FB00BFE5
S2140830704DF808EDFFF7C4FF34BF012000205DF8C7
S21408308008FB00BF4FEA410C7FEA6C5C02D150EAAD
S214083090013C0AD14FEA430C7FEA6C5C02D152EA43
S2140830A0033C02D14FF0000070474FF00100704714
S2140830B04FEA4102B2F1E04324BFB3F5001CDCF14D
S2140830C0FE5C0DD901F0004C4FEAC0024CEA507085
S2140830D0B2F1004F40EB830008BF20F001007047B4
S2140830E011F0804F21D113F13872BCBF01F00040B7
S2140830F0704741F480114FEA5252C2F11802C2F1E9
S214083100200C10FA0CF320FA02F018BF40F0010069
S2140831104FEAC1234FEAD32303FA0CFC40EA0C001B
S21408312023FA02F34FEA4303CCE77FEA625307D158
S21408313050EA01331EBF4FF0FE4040F4400070478F
S21408314001F0004040F0FE4040F40000704700BF29
S21408315080F0004002E000BF81F0004142001FBF3F
S2140831605FEA410392EA030F7FEA226C7FEA236C48
S2140831706AD04FEA1262D2EB1363C1BFD21841403D
S21408318048404140B8BF5B42192B88BF704710F0D3
S214083190004F40F4000020F07F4018BF404211F076
S2140831A0004F41F4000121F07F4118BF494292EADE
S2140831B0030F3FD0A2F1010241FA03FC10EB0C000A
S2140831C0C3F1200301FA03F100F0004302D5494297
S2140831D060EB4000B0F5000F13D3B0F1807F06D344
S2140831E040084FEA310102F10102FE2A51D2B1F13C
S2140831F0004F40EBC25008BF20F0010040EA030031
S2140832007047490040EB000010F4000FA2F10102DD
S214083210EDD1B0FA80FCACF1080CB2EB0C0200FA67
S2140832200CF0AABF00EBC25052421843BCBFD040B5
S2140832301843704792F0000F81F4000106BF80F42F
S21408324000000132013BB5E74FEA41037FEA226CF2
S21408325018BF7FEA236C21D092EA030F04D092F0BD
S214083260000F08BF0846704790EA010F1CBF0020F1
S214083270704712F07F4F04D1400028BF40F000404E
S214083280704712F100723CBF00F50000704700F06E
S214083290004343F0FE4040F4000070477FEA226295
S2140832A016BF08467FEA23630146420206BF5FEA66
S2140832B0412390EA010F40F4800070474FF0000366
S2140832C004E000BF10F0004348BF40425FEA000C2D
S2140832D008BF704743F0964301464FF000001CE0D5
S2140832E050EA010208BF70474FF000030AE000BF2B
S2140832F050EA010208BF704711F0004302D5404269
S21408330061EB41015FEA010C02BF844601460020DA
S21408331043F0B64308BFA3F18053A3F50003BCFAF5
S2140833208CF2083AA3EBC25310DB01FA02FC6344A2
S21408333000FA02FCC2F12002BCF1004F20FA02F2A9
S21408334043EB020008BF20F00100704702F120029C
S21408335001FA02FCC2F1200250EA4C0021FA02F2FD
S21408336043EB020008BF20EADC7070474FF0FF0C02
S2140833701CEAD0521EBF1CEAD15392EA0C0F93EAFD
S2140833800C0F6FD01A4480EA010C400218BF5FEA9F
S21408339041211ED04FF0006343EA501043EA511112
S2140833A0A0FB01310CF00040B1F5000F3EBF49000C
S2140833B041EAD3715B0040EA010062F17F02FD2A10
S2140833C01DD8B3F1004F40EBC25008BF20F00100F3
S2140833D0704790F0000F0CF0004C08BF49024CEA0A
S2140833E0502040EA51207F3AC2BFD2F1FF0340EA9C
S2140833F0C250704740F400004FF00003013A5DDC0D
S21408340012F1190FDCBF00F000407047C2F100024D
S214083410410021FA02F1C2F1200200FA02FC5FEA3A
S214083420310040F1000053EA4C0308BF20EADC7084
S214083430704792F0000F00F0004C02BF400010F4F6
S214083440000F013AF9D040EA0C0093F0000F01F0A3
S214083450004C02BF490011F4000F013BF9D041EAC5
S2140834600C018FE70CEAD15392EA0C0F18BF93EAC7
S2140834700C0F0AD030F0004C18BF31F0004CD8D1F1
S21408348080EA010000F00040704790F0000F17BF78
S21408349090F0004F084691F0000F91F0004F14D0BE
S2140834A092EA0C0F01D142020FD193EA0C0F03D116
S2140834B04B0218BF084608D180EA010000F0004019
S2140834C040F0FE4040F40000704740F0FE4040F4F4
S2140834D0400070474FF0FF0C1CEAD0521EBF1CEA93
S2140834E0D15392EA0C0F93EA0C0F69D0A2EB0302B1
S2140834F080EA010C49024FEA402037D04FF080534B
S21408350043EA111143EA10130CF000408B4238BF0F
S2140835105B0042F17D024FF4000C8B4224BF5B1A1D
S21408352040EA0C00B3EB510F24BFA3EB510340EA6B
S2140835305C00B3EB910F24BFA3EB910340EA9C0019
S214083540B3EBD10F24BFA3EBD10340EADC001B0189
S21408355018BF5FEA1C1CE0D1FD2A3FF650AF8B422D
S21408356040EBC25008BF20F0010070470CF0004C3A
S2140835704CEA50207F32C2BFD2F1FF0340EAC25065
S214083580704740F400004FF00003013A37E792F026
S214083590000F00F0004C02BF400010F4000F013A84
S2140835A0F9D040EA0C0093F0000F01F0004C02BF7F
S2140835B0490011F4000F013BF9D041EA0C0195E7E8
S2140835C00CEAD15392EA0C0F08D142027FF47DAF81
S2140835D093EA0C0F7FF470AF084676E793EA0C0F71
S2140835E004D14B023FF44CAF08466EE730F0004C6F
S2140835F018BF31F0004CCAD130F000427FF45CAFFF
S21408360031F000437FF43CAF5FE700BF4FF0FF3C6C
S21408361006E000BF4FF0010C02E000BF4FF0010CBF
S2140836204DF804CD4FEA40024FEA41037FEA226C88
S21408363018BF7FEA236C11D001B052EA530C18BFAA
S21408364090EA010F58BFB2EB030088BFC81738BF0F
S2140836506FEAE17018BF40F0010070477FEA226CFD
S21408366002D15FEA402C05D17FEA236CE4D15FEAF9
S214083670412CE1D05DF8040B704700BF844608462D
S2140836806146FFE70FB5FFF7C9FF002848BF10F1EE
S214083690000F0FBD4DF808EDFFF7F4FF0CBF012033
S2140836A000205DF808FB00BF4DF808EDFFF7EAFFBD
S2140836B034BF012000205DF808FB00BF4DF808ED78
S2140836C0FFF7E0FF94BF012000205DF808FB00BF6D
S2140836D04DF808EDFFF7D2FF94BF012000205DF8F3
S2140836E008FB00BF4DF808EDFFF7C8FF34BF012000
S2140836F000205DF808FB00BF42000ED2B2F1FE4F74
S2140837000BD34FF09E03B3EB126209D44FEA0023A3
S21408371043F0004323FA02F070474FF0000070476A
S21408372012F1610F01D1420202D14FF0FF3070470B
S2140837304FF00000704700BF014B1868704700BF85
S2140837404001072070B50F4E0F4D761BB61018BFF8
S214083750002405D0013455F8043B9847A642F9D111
S2140837600A4E0B4D05F0A0FF761BB61018BF0024B6
S21408377006D0013455F8043B9847A642F9D170BDE7
S21408378070BD00BFB4960800B4960800BC96080042
S214083790B49608000FB410B5074B82B004AC54F8C2
S2140837A0042B186823468168019401F057FF02B07D
S2140837B0BDE8104004B0704740010720024B0146A0
S2140837C0186800F003B800BF400107202DE9F04F45
S2140837D001F10B06162E83B0054640F29E8036F0A1
S2140837E0070600F1BD80B14200F2BA8000F0DEFAAA
S2140837F0B6F5FC7FC0F08582730A00F0B880042B0B
S21408380000F26C81B30903F1390003F1380EC100E8
S214083810B84F39444C680839A14206D10CE0002A52
S21408382080F2AB80E468A14206D0636823F0030305
S2140838309A1B0F2AF3DD70463C69DFF8CCE2744524
S21408384000F09E81636823F003039A1B0F2A00F397
S2140838508381002AC7F814E0C7F810E080F2918048
S214083860B3F5007F80F054810122DB0879684FEABF
S214083870A30C134457F8338002FA0CF207EBC30C78
S2140838800A43ACF10801E160C4F808807A6047F89A
S2140838903340C8F80C40012483109C4094427DD8DD
S2140838A0144206D120F003006400144200F104001C
S2140838B0FAD007EBC009CC468046DCF80C309C45AD
S2140838C007D15FE1002A80F26D81DB689C4500F035
S2140838D05981596821F003018A1B0F2AF2DDDC683A
S2140838E0D3F808C046F0010828461E4442F00105F1
S2140838F0C3F80480CCF80C40C4F808C07E613E616A
S214083900C6F80CE0C6F808E075605A50009300F058
S21408391053FA009B03F108041EE0102920D800F093
S21408392045FA102618230220724F3B445C68A3F120
S2140839300802944200F02F816368E16823F00303CD
S21408394023445A68A66842F00102F16028468E6051
S2140839505A6000F031FA0834204603B0BDE8F08F0C
S21408396000240C2320462B6003B0BDE8F08F4020CF
S2140839704FF400714FF03F0E4AE723445A68E16857
S214083980E0E723445A68284642F001025A600834A1
S21408399000F012FA204603B0BDE8F08FBC686368F2
S2140839A023F00308B04504D3A8EB06030F2B00F357
S2140839B08580DFF85891504BD9F800201B680132F3
S2140839C0334404EB080A00F0548103F580530F33A0
S2140839D023F47F6B2BF00F0B5946284600F048FA65
S2140839E0411C024600F0FB80824500F2F680434BFD
S2140839F019685944196000F04C81D9F80000013064
S214083A001BBFA2EB0A0A5144C9F80020196012F03D
S214083A10070100F01481C1F10800C1F58051024485
S214083A20083102EB0B09C9F30B09A1EB0909494652
S214083A3028460193009200F01BFA431C9DE80C00F0
S214083A4000F04281801A484440F001001968BC42E0
S214083A504944BA601960506017D0B8F10F0F40F2A9
S214083A60FA804FF0050C6268A8F10C0020F00700F9
S214083A7002F0010204EB000E02430F286260CEF843
S214083A8004C0CEF808C000F216811D4BBC681A6840
S214083A90914288BF19601B4B1A689142626888BFBA
S214083AA0196022F003029642A2EB060301D80F2BF8
S214083AB004DC284600F080F900244DE746F00102B1
S214083AC043F00103264462602846BE6008347360EB
S214083AD000F072F9204603B0BDE8F08F142B70D9B9
S214083AE0542B00F2A280330B03F16F0003F16E0E25
S214083AF0C1008DE670050720C40C0720940C07202B
S214083B00BC0C0720C00C072078050720780907207A
S214083B105A0A042A5BD9142A00F2AE8002F15C0124
S214083B20C9005B3207EB010C7958ACF1080C8C45E0
S214083B3000F088804A6822F00302934273D28968AC
S214083B408C45F7D1DCF80C307A68E360C4F808C016
S214083B509C60CCF80C409EE646F0010C42F0010151
S214083B602644C4F804C028467E613E61C6F80CE0C8
S214083B70C6F808E07160E25000F01EF90834EBE67B
S214083B807A6888E608F1010818F0030F0CF1080CAB
S214083B907FF493AE2DE0DC68A34208BF02303FF402
S214083BA04BAEC9E61C4619444A68DB6854F8086FE9
S214083BB042F001024A602846F3609E6000F0FCF876
S214083BC0CAE603F15C0003F15B0EC10020E69A0921
S214083BD002F13901C9003832A4E7BC4254D0BC68A7
S214083BE0626822F003025EE759F80839994540F002
S214083BF0868010F0030F00F1FF30F5D17B6823EACA
S214083C0004037B6064009C423FF6C8AE002C3FF479
S214083C10C5AE1C4240467FF44CAE64001C4200F120
S214083C200400FAD045E68C468CE7B3F5AA7F15D88B
S214083C30F30B03F1780003F1770EC100E8E54FF4C3
S214083C408051EEE601217B68921001FA02F21A43CF
S214083C507A60634679E7012353602AE740F25452B4
S214083C60934222D8B30C03F17D0003F17C0EC10009
S214083C70CEE503F1100BAFE6542A29D81A0B02F149
S214083C806F01C9006E324DE7204B19685944196018
S214083C90B3E6CAF30B0000287FF4AFAE08EB0B03BD
S214083CA0BA6843F001035360EFE67F204FF47E7155
S214083CB04FF07E0EACE504F108012846009303F0A9
S214083CC09BFD009B1968E0E601204FF00009BDE661
S214083CD0B2F5AA7F05D8DA0B02F17801C900773267
S214083CE020E740F254518A4205D89A0C02F17D0129
S214083CF0C9007C3216E74FF47E717E2212E77B6895
S214083D0080E7F00806F108030EE600BF940C0720CB
S214083D1070B4860746D0541E002A41D0CAB203465D
S214083D2002E014F1FF343BD303F8012B9D07F8D1CA
S214083D30032C2ED9CDB245EA05250F2C45EA0545B4
S214083D4019D9264603F11002103E0F2E42F8105CD1
S214083D5042F80C5C42F8085C42F8045C02F1100277
S214083D60F2D8A4F1100222F00F0204F00F04103269
S214083D70032C13440DD91E462246043A032A46F855
S214083D80045BFAD8221F22F003020432134404F01C
S214083D9003042CB1C9B21C4403F8011B9C42FBD196
S214083DA070BC704714460346C2E700BF014803F0DC
S214083DB0CBBF00BF8C200720014803F0C7BF00BF59
S214083DC08C200720F0B5054689B008460C46012722
S214083DD000F056F90226C31920490393AB6B04AAD0
S214083DE004940590AC68079702960691019253B31F
S214083DF0636E13F0010FB4F90C309AB201D1900536
S214083E0025D5910406D4626E43F4005322F400527A
S214083E10A3816266284601AA214603F0D3FD636E95
S214083E2000280CBF0A254FF0FF35DA0702D4A3890D
S214083E309B0502D5284609B0F0BDA06D03F086FFA5
S214083E40284609B0F0BD284603F0B0FBD0E7A06DC1
S214083E5003F07AFFB4F90C309AB2D2E76C930800F4
S214083E60024B01461868FFF7ADBF00BF40010720A8
S214083E7038B50023064C054608462360FDF724FFA0
S214083E80431C00D038BD2368002BFBD02B6038BD00
S214083E90A020072000290CBF022200224FF48063CE
S214083EA000F000B82DE9F043614D83B02D68044654
S214083EB00F4690461E4615B1AB6B002B64D0B8F182
S214083EC0020F06D0B8F1010F00F29F80002EC0F254
S214083ED09C80636ED80734D52146284603F00EFB2F
S214083EE0216B41B104F14003994202D0284603F001
S214083EF083FC002323630022B4F90C30A2616260BD
S214083F001A063AD423F44A6323F00303B8F1020FDF
S214083F10A3811DD001AB6A462146284603F018FF48
S214083F20A3891843A081002E32D1009E3046FFF7A1
S214083F3045FC074600286BD0A38943F08003A3817D
S214083F4028E0A3899905C7D4A06D03F0FDFEC3E752
S214083F50002500260120616E04F1430243F00203A7
S214083F60A660CE07A38160612260226101D498050D
S214083F703ED5284603B0BDE8F0832169284603F0FD
S214083F803BFCB4F90C30BDE7284603F00FFB96E778
S214083F90002FCBD0AB6B002B33D0009BB4F90C2092
S214083FA09E421CBF42F40062A281B8F1010F04BF12
S214083FB042F00102A28192B212F00803276027613C
S214083FC066610ED0D1071AD50023656E764215F0C5
S214083FD00105A661A36009D00025284603B0BDE800
S214083FE0F083A360656E15F00105F5D19305C0D47E
S214083FF0A06D03F0ABFE284603B0BDE8F083A660CC
S214084000F0E7284603F0D2FAC7E74FF0FF35B0E7E7
S214084010DDF80090B14504D04846FFF7CFFB0746C9
S21408402020B9B4F90C304FF0FF3592E74E4683E7D7
S214084030400107200EB40146F0B56FF000454FF476
S21408404002774FF6FF769CB021AC54F8042B0B4B46
S21408405002910691186802A923460194ADF81470D7
S21408406004950795ADF8166000F038F80022029B14
S2140840701A701CB0BDE8F04003B070474001072036
S21408408020F0030110F00300C0F1000051F8043BD3
S21408409000F1040C4FEACC0C6FF000021CBF22FAA9
S2140840A00CF213434FF0010C4CEA0C2C4CEA0C4C67
S2140840B0A3EB0C0222EA030212EACC1204BF51F860
S2140840C0043B0430F4D0C2F1000102EA0102B2FA5D
S2140840D082F2C2F11F0200EBD20070472DE9F04FC2
S2140840E0C3B00C460B9192460F930C9003F01AFE41
S2140840F0036818461A93FFF7C3FFA3891990190691
S21408410003D52369002B01F0358000230DF1C8097B
S214084110C84615931393149318931B9309931693F1
S214084120179327932693CDF894909AF80030544620
S214084130EBB1252B02D11AE0252B03D014F8013F4A
S214084140002BF9D1A4EB0A058DB1269B279A0133DB
S2140841502A44072BC8F800A0C8F8045027922693CC
S21408416000F38A8008F10808099B2B4409932378F2
S214084170002B00F0898000234FF0FF301A468DF898
S214084180773019460D939B46637804F1010A0A9026
S2140841900AF1010AA3F12000582800F2B783DFE8E5
S2140841A010F04C03B503B5035403B503B503B503C4
S2140841B0B503B503B50359005903B50366001402E1
S2140841C0B5032F02A503A503A503A503A503A50309
S2140841D0A503A503A503B503B503B503B503B50342
S2140841E0B503B503B503B503B5038B02D302B50310
S2140841F0D302B503B503B503B5031B03B503B5036F
S2140842002003B503B503B503B503B5033402B503F8
S214084210B5034B02B503B503B503B503B503B5033C
S214084220B503B503B503B50376029E03D302D302DE
S214084230D30263039E03B503B5036803B50375038A
S214084240DD018C035E03B503F201B5038700B503F1
S214084250B50332030F9C236818460D93234600289F
S21408426003F104030F9304DA0D9B5B420D934BF0A6
S214084270040B9AF800308BE725AA0B990C9804F0E3
S2140842800BFC40B9C8466FE7279B23B10C9825AAB4
S2140842900B9904F001FC0B9B9B8913F0400F099BBC
S2140842A018BF4FF0FF330993099843B0BDE8F08F65
S2140842B01BF0200F119340F0AF810F9A1BF0100FE0
S2140842C0134640F09A851BF0400F00F096850025AF
S2140842D00123148804320F92002217468DF877209F
S2140842E00A994A1C00F010822BF08002079254EAC2
S2140842F0050240F00F82002940F03184002B40F080
S21408430039851BF001030E9300F06286302342AE17
S21408431006F8413D0A9B0E9A9342B8BF1346089387
S2140843200023129317B1089B01330893079B13F0D9
S2140843300203109302D0089B02330893079B13F0DE
S214084340840540F010830D9B089AA3EB020BBBF183
S214084350000F40F30883BBF1100F40F3B287279C89
S21408436043462146A8461027269A0C9C0B9D06E035
S214084370ABF1100BBBF1100F03F1080318DD013287
S214084380AB481031072A2791269283E88100EFDD93
S21408439025AA2946204604F07FFB00287FF47BAF39
S2140843A0ABF1100BBBF1100F4B462799269AE6DCAB
S2140843B045460C46984601329D4B5C44072A27948E
S2140843C0269288E8080800F3C3829DF8777008F1FB
S2140843D0080887B10121269B0C440B440DF177028F
S2140843E0072B27942693C8F80410C8F8002000F373
S2140843F0CD8308F10808109B7BB10221269B0C444C
S21408440001331EAA072B27942693C8F80410C8F869
S214084410002000F3118408F10808802D00F00483BA
S2140844200A9B0E9A9F1A002F37DD102F40F37986C5
S214084430804D42462146B0464FF0100B2E46269B2E
S2140844400C9C0B9D04E0103F102F02F1080215DDAE
S21408445001331031072B2791269382E84008F2DDB6
S21408446025AA2946204604F017FB00287FF413AF38
S214084470103F102F4A462799269BE9DC35460C46FE
S2140844804646904601333C44072B2794269388E8F3
S214084490A00000F3708308F10808079BDF0500F109
S2140844A06482269B0E9901330C44072B2794C8F880
S2140844B00060C8F80410269300F3B38308F10808D0
S2140844C0079B5B073BD50D9B089A9D1A002D36DD8A
S2140844D0102D40F321871026269B0C9FDDF82CB064
S2140844E004E0103D102D08F1080816DD0133504A87
S2140844F01034072B2794269388E84400F1DD25AA74
S2140845005946384604F0C8FA00287FF4C4AE103D71
S214084510102DC846279C269BE8DC0133444A2C44C9
S214084520072B2794269388E8240008DD25AA0B99EC
S2140845300C9804F0B1FA00287FF4ADAE279C099BCE
S2140845400D9A08998A42ACBF9B185B180993002CF1
S21408455040F0FB820023C8462693E6E511931BF03D
S214084560200340F045811BF0100240F066841BF0E3
S214084570400300F062840F9913460A4604320C88FA
S21408458000250F92A8E600250F9A119316688DF855
S2140845907750141D002E00F0CD860A9A531C00F0A2
S2140845A01B862946304603F061FC002800F00D877C
S2140845B0831B0A950E930F94CDF81CB023EAE37379
S2140845C0089312959DF87770ACE69AF800300AF1D1
S2140845D001042A2B00F0C287A3F130000928A2465E
S2140845E000F2188700231C461AF8013B04EB8404E3
S2140845F000EB4404A3F130000928F5D90A94C9E56C
S2140846004BF0800B9AF80030C2E54BF0100B1BF00D
S214084610200F11933FF451AE0F9C073424F0070384
S21408462003F10802D3E900450F92012354E600BFC0
S21408463048940800589408001193002A40F0AD8763
S214084640BE4B1BF0200F189340F0E7800F9A1BF024
S214084650100F134640F0D8831BF0400F00F0D483A9
S2140846600025043314880F931BF0010F00F0E38035
S21408467054EA050300F0DF8030239DF844208DF8C7
S21408468078308DF879204BF0020B022324E60122BD
S2140846901193002311460F98089202681F468DF85A
S2140846A077300A931293031DCDF81CB00E918DF83F
S2140846B0A0200F9328AE39E61193002A40F084878D
S2140846C04BF0100B1BF0200F40F075840F9A1BF070
S2140846D0100F134640F09D831BF0400F00F099839F
S2140846E0B2F900400433E5170F9322462B46002AFA
S2140846F073F10003C0F298830A999DF877704A1CF4
S2140847004FF001037FF4F0AD54EA050200F0298269
S214084710CDF81CB0012B00F00E83022B40F09C82D3
S2140847204E461898230943EA0573290904F00F0230
S2140847300D461C46835C06F8013D54EA0503F1D194
S214084740A9EB06030E93E5E51193002A40F0388797
S2140847500F9C1BF0080F04F1070400F0CF8424F028
S214084760070303F108020F921A685B681592149300
S214084770149B159D23F00044284621464FF0FF322F
S2140847806F4BFEF77FFC002840F03484284621460D
S2140847904FF0FF326A4BFEF757FC002840F02A8499
S2140847A015A80DC81499FEF745FC002840F0D485D6
S2140847B09DF8777003231A4608930023614E19461E
S2140847C00A93614B0E92119A2BF080000790129173
S2140847D0472AD8BF1E46A5E54BF0080B9AF80030C6
S2140847E0D6E44BF0100B11931BF020033FF4BBAE3E
S2140847F00F9C073424F0070303F10802D3E90045A9
S2140848000F92002368E51193002A40F0C2864F4BAA
S2140848101BF0200F18933FF419AF0F9C1BF0010FE5
S21408482004F1070424F0070303F108020F92D3E902
S21408483000457FF41DAF02234EE59AF800300029A4
S2140848407FF4A6AC01222021A2E44BF0010B9AF8D3
S21408485000309DE49AF8003001222B2198E44BF0B2
S214084860200B9AF8003093E44BF0400B9AF800308F
S2140848708EE49AF800306C2B03BF9AF801304BF0A0
S214084880200B0AF1010A4BF0100B81E4002A40F0D5
S2140848907C861BF0200F40F052841BF0100F40F06F
S2140848A038841BF0400F00F034840F9A13680432E3
S2140848B00F92BDF824201A8037E4782330220F9808
S2140848C08DF879301193031D0F93204B04681893C5
S2140848D04BF0020B8DF8782000250223FCE4119398
S2140848E0002A3FF4EFAE8DF87710EBE6002004467A
S2140848F0A3F130001AF8013B04EB840400EB4404EF
S214084900A3F130000928F5D90D9443E41193002A41
S21408491040F04A86119A002A3FF4B6AC00230121DB
S2140849201F4608918DF8A020CDF81CB08DF877307A
S2140849300A9312930E9128AEF8E400BF1494080068
S214084940FFFFEF7F089408000494080028940800E6
S21408495025AA0B990C9804F09FF800287FF49BACC6
S214084960C8469DF87770279C33E5119B652B40F366
S2140849709A8015A80DC81499FEF752FB002800F077
S21408498093810121269BB54A0B440C44072B279498
S2140849902693C8F80410C8F8002000F3C68308F168
S2140849A008081F9B139A279C934203DB079BDD0787
S2140849B07FF586AD269B199901331A9A0C44072B66
S2140849C0C8F80020C8F804102794269300F3C48378
S2140849D008F10808139B5E1E002E7FF771AD102E97
S2140849E040F3758522461027269B9D4DDDF830B08E
S2140849F00B9C05E008F10808103E102E40F32582AF
S214084A0001331032072B2792269388E8A000F1DDA1
S214084A1025AA2146584604F03FF800287FF43BAC08
S214084A20C846279A269BE7E70D9B089A9F1A002FE9
S214084A307FF7F6AC102F40F3A884894D42462146EE
S214084A40B0464FF0100B2E46269B0C9C0B9D04E0A0
S214084A50103F102F02F1080215DD01331031072B25
S214084A602791269382E84008F2DD25AA29462046A3
S214084A7004F012F800287FF40EAC103F102F4A46B8
S214084A802799269BE9DC35460C4646469046013370
S214084A903C44072B2794269388E8A00000F39E82C0
S214084AA008F10808BCE4139B012B40F34F8201234E
S214084AB0269F1C441F44072F2794C8F80060269793
S214084AC0C8F8043000F35F8208F10808199A01371D
S214084AD01A9B1444072F27942697C8F80030C8F85E
S214084AE0042000F35C8208F1080815A80DC814997C
S214084AF0FEF796FA139B002840F04181013B0137E8
S214084B0001361C44072FC8F8006026972794C8F873
S214084B10043000F3668108F108081B9A013714442C
S214084B2021AB072F27942697C8F80420C8F800302A
S214084B307FF7C4AC25AA0B990C9803F0ADFF0028A4
S214084B407FF4A9ABC846279CBAE425AA0B990C980B
S214084B5003F0A2FF00283FF4FDACFFF79CBBDDF88E
S214084B601CB0012B00F07E81022B71D1CDF81CB051
S214084B7000240025D4E525AA0B990C9803F08CFF91
S214084B8000287FF488ABC846279C86E425AA0B999C
S214084B900C9803F081FF00287FF47DABC846279C5D
S214084BA029E40120269B2D4A03440444072B279416
S214084BB02693C8F80400C8F8002040F3D88225AA2F
S214084BC00B990C9803F068FF00287FF464ABC8467E
S214084BD01F99279C29B9139B1BB9079BD8077FF5F4
S214084BE06FAC1998269B0246013322441A9C072B61
S214084BF02792C8F80040C8F80400269300F33184CA
S214084C0008F108080029C0F20984139901338C18A2
S214084C10072B27942693C8F80060C8F804107FF777
S214084C204DAC25AA0B990C9803F036FF00287FF4A4
S214084C3032AB279CC84643E425AA0B990C9803F088
S214084C402BFF00287FF427ABC846279CFFF7E5BB59
S214084C5000240025CDF81CB0494604E0449408001A
S214084C60589408003146E20842EA4572E80804F01B
S214084C70070305461446303354EA050201F8013C9A
S214084C8001F1FF36EED1079AD2077FF559AD302BE2
S214084C903FF456AD3023023906F8013CA9EB010370
S214084CA00E930E46FFF736BB1F9900297FF779AF9C
S214084CB0129B139A9342A8BF1346002B1F460BDD80
S214084CC0269B3C440133072B279488E8C00026938C
S214084CD000F3FB8208F10808129B002FA8BFDB1B15
S214084CE0002B1F4640F3D780102B40F33484BA4D70
S214084CF042462146B0464FF0100B2E46269B0C9C8B
S214084D000B9D04E00832103F102F40F3B5800133A6
S214084D101031072B2791269382E84008F2DD25AA52
S214084D202946204603F0B8FE00287FF4B4AA4A466F
S214084D302799269BE7E7002D08BF0A2CC0F090802D
S214084D404E46204629460A22002304F047F9303208
S214084D5006F8012D2046294600230A2204F03EF9CB
S214084D6004460D4654EA0503EBD1A9EB06030E9359
S214084D70FFF7D0BA0A9B4E460E93FFF7CBBA5E1ED5
S214084D80002E7FF7CAAE102E40F3E38322464FF07C
S214084D90100B914D0C9C04E0103E102E08F10808EC
S214084DA015DD01371032072F2792269788E8200846
S214084DB0F2DD25AA0B99204603F06EFE00287FF444
S214084DC06AAA103E102EC846279A269FE9DC144683
S214084DD001373444072F2794269788E860007FF722
S214084DE09AAE25AA0B990C9803F056FE00287FF475
S214084DF052AA279C269FC8468FE604321C680025C0
S214084E0001230F92FFF768BA1C6804330F93002536
S214084E102AE41C680433E51722460F932B46002A1B
S214084E2073F10003BFF668AC2D27644265EB4505B1
S214084E308DF877700123FFF753BA0F9900250A46B5
S214084E4004320C680F92FFF747BA1446013334440D
S214084E50072B2794269388E860007FF72FABE0E6B9
S214084E60DDF81CB0012342AE3034CDF81CB006F88D
S214084E70414D0E93FFF74EBA35460C4646469046C9
S214084E8001333C44072B2794269388E8A00000F3B8
S214084E90468208F108081F9A139B9A4245DB079B2F
S214084EA0D90742D4139B12989A1A1D1A9542A8BF7E
S214084EB01546002D0EDD2699064401312C44072997
S214084EC0C8F800602794C8F80450269100F31682A4
S214084ED008F10808002DB4BF1646561B002E7FF7AB
S214084EE0EFAA102E40F3F38222461027269B3A4D4F
S214084EF0DDF830B00B9C04E008F10808103E102ED0
S214084F00A3DD01331032072B2792269388E8A000EA
S214084F10F2DD25AA2146584603F0BEFD00287FF498
S214084F20BAA9C846279A269BE8E7269B199801330C
S214084F301A990444072B2794C8F80010C8F80400E8
S214084F40269300F3CF8108F10808ABE7079BDA073A
S214084F503FF5ADAD0123269F1C441F44072F279419
S214084F60C8F800602697C8F804307FF7D4AD25AA9D
S214084F700B990C9803F090FD00287FF48CA9C8467E
S214084F80279C269FC9E525AA0B990C9803F084FD53
S214084F9000287FF480A9C846279C269F96E525AA60
S214084FA00B990C9803F078FD00287FF474A9C8467E
S214084FB0279C269F99E50F9C073424F0070404F1E4
S214084FC00801D4E900230F9114461D46FFF78FBB4E
S214084FD04E46FFF79FB900BF5894080025AA0B99BC
S214084FE00C9803F059FD00287FF455A9C846279C5D
S214084FF0FFF716BA159C22462046149C23462146DF
S214085000FEF740F8002840F073820A9B0133119B94
S21408501023F020030E9300F09C81472B00F0D680E7
S2140850204BF480730793149B1F1E159B0893B7BFFA
S2140850303B46002303F100472D231093119B662B54
S21408504000F09081462B00F0A48002200E9B23A936
S214085050452B0ABF0A9B0A9D5D1C8DE8210004911A
S21408506020A81FA93B460390089A02910C9801F0C5
S21408507087FA119B0646672B40F0BA811BF0010F92
S21408508000F023827419169A0898179B3946FDF77C
S214085090C7FF002840F02481239BA34206D2302174
S2140850A05A1C23921970239B9C42F9D89B1B139376
S2140850B00E9B472B00F0A280119B652B40F3A7811F
S2140850C0119B662B1F9B129300F07181139B129AFB
S2140850D01946914200F35D811BF0010F40F0F08104
S2140850E022EAE273089367230E921193109B002B13
S2140850F07DD10A939DF87770FFF714B924F007045A
S214085100236815936368149304F108030F93FFF755
S2140851102FBB0F9A136804320F92099A1A60FFF78A
S21408512004B8269BAF4DFFF7ADB925AA0B990C9886
S21408513003F0B2FC00287FF4AEA8C84631E40F9A04
S214085140134604330F93099B1168DD171A462B463E
S214085150C1E90023FEF7E9BF25AA0B990C9803F0CE
S2140851609BFC00287FF497A8C846279C32E408F1E1
S21408517008082FE540210C98FEF728FB0B9A1060CC
S2140851801061002800F0148240230B9A5361FEF742
S214085190BCBF03200A9C23A98DE81100049120A80F
S2140851A01FA90390089A3B4602910C9801F0E8F96B
S2140851B025460646119B7419462B7FF464AF337850
S2140851C0302B00F087811F9D2C445CE70A9B002B40
S2140851D008BF01230A9323E730460A95FEF750FFD7
S2140851E00F940E90CDF81CB00346FFF7E7B92D27AD
S2140851F000238DF877700A93FFF795B81F9B1A4619
S2140852001293033304DB0A9B19469142BFF65EAF3E
S214085210119B023B1193129B9DF84420013B002BE7
S2140852208DF88420B4BF2D222B221F93B8BF129B63
S2140852308DF88520B8BFC3F10103092B40F31F8101
S2140852400DF193000146684C00E0114684FB0352BA
S214085250DD17C5EBA20505EB8502A3EB420230324B
S214085260092D01F8012C2B4601F1FF32EDDC303315
S2140852700239DCB2884202F8014C40F292810DF104
S2140852808601134601E013F8014B834201F8014BEF
S214085290F9D101339B1A0DF18602134421AA9B1AF1
S2140852A0139A1B93012A13440E9340F348810E9BCE
S2140852B0199A13440E9323EAE37308930023129370
S2140852C014E7279C269AFFF776B825AA0B990C9818
S2140852D003F0E2FB00287EF4DEAFC846279CFBE41A
S2140852E02346E3E625AA0B990C9803F0D5FB00287D
S2140852F07EF4D1AFC8461F9A279CD3E525AA0B99FA
S2140853000C9803F0C9FB00287EF4C5AF1F9A139BC0
S214085310C846279C9A1ADDE5269BFFF7FEB825AAFD
S2140853200B990C9803F0B8FB00287EF4B4AFC84677
S214085330279CB0E50A9B3746062B28BF06230A9605
S214085340129608930F94CDF81CB00E93274EFEF7CE
S214085350E9BF06230A9363E62D231F468DF87730A8
S214085360FFF728BA03200A9C23A98DE811000491A8
S21408537020A81FA90390089A3B4602910C9801F0B2
S214085380FFF825460646041919E7269B154DFFF72C
S2140853907EBB199A139B1344129A0E93002A40F365
S2140853A0C78023EAE3730893672311939EE6002BCE
S2140853B040F3E1800A9A002A40F0B0801BF0010F03
S2140853C040F0AC8008930E9390E60A9B0F940893DF
S2140853D00E930A90CDF81CB012909DF87770FEF7E1
S2140853E0A1BF00BF58940800676666663C9408002C
S2140853F0119B472B7FF446AE1BF0010F7FF4DAAE05
S214085400239B9B1B13930E9B472B3FF4F7AE1F9BC8
S214085410129300E700200A90FEF7BCBE4F421031F8
S21408542035DA10246A4DDDF830B004E008F10808D3
S214085430103F102F2CDD01331032072B27922693AE
S214085440C8F80050C8F80440F0DD25AA0B9958465D
S21408545003F022FB00287EF41EAFC846279A269B38
S214085460E6E725AA0B990C9803F016FB00287EF4AD
S21408547012AFC8461F99279A269BFFF7C3BB302250
S21408548013448DF887308DF8862022AB06E7504DFA
S21408549001333A44072B88E8A0002792269308F1A0
S2140854A008087FF7B2AB25AA0B990C9803F0F4FA14
S2140854B000287EF4F0AEC846279A269BFFF7A5BBC1
S2140854C0129B199A13440E936BE7239BEEE5269BD3
S2140854D03F4DBBE4169A0898179B3946FDF7A0FD82
S2140854E000287FF470AEC5F101051F952C44CAE567
S2140854F0149B384E002BBEBF2D231F468DF87730E1
S2140855004FF003031A4608934FF00003A8BF9DF810
S214085510777019460A93304BFFF754B9129B199ABD
S21408552013440A9A1A4422EAE2730E920893DDE5B7
S214085530129B0E9AC3F101031A441346C3E71BF0E5
S214085540010312937FF4B3AE0E9B23EAE37308932A
S214085550CCE51F4D3CE4269B1D4D91E40F9D9AF823
S21408556001302868A24640EAE0700A9028460430CF
S2140855700F90FEF70DBE0A9B13B91BF0010F02D061
S214085580199B0133CDE701231CE78DF87710FFF749
S21408559080B98DF87710FFF73AB98DF87710FFF7CE
S2140855A04FB80DF1860379E68DF87710FFF7B2B994
S2140855B04FF0FF320C2309920C9A1360FEF774BE64
S2140855C08DF87710FFF7C4B88DF87710FFF778B81E
S2140855D058940800109408000C9408002DE9F84F19
S2140855E04B6E93469C042FD59368126853B30E46A9
S2140855F0074602F1080919E920045FEA9A0817D055
S2140856000024043D01E0A04510D0324655F8041F9A
S214085610384602F06DF8431C04F10104F3D1002368
S214085620CBF80830CBF80430BDE8F88FDBF8083044
S2140856302AF0030AA3EB0A03CBF8083009F1080995
S214085640002BD8D10020EAE702F0BCF90023CBF8FB
S2140856500830CBF80430BDE8F88F00BF2DE9F04FCE
S214085660ADB01D468B4690460793069018B1836BDF
S214085670002B00F0F380DBF86430BBF90C00DF0782
S21408568081B202D48E0540F1FC808C040AD4DBF883
S214085690643040F4005123F40053ABF80C10CBF8F8
S2140856A0643089B2080740F1B380DBF81030002B6D
S2140856B000F0AE8001F01A030A2B00F0B580002334
S2140856C00DF1700AD1460B93039311931093CDF8FE
S2140856D03CA0CDF810B098F800304446FBB1252B16
S2140856E002D11CE0252B03D014F8013F002BF9D17A
S2140856F0A4EB08059DB1109B119A01332A44072B89
S214085700C9F80080C9F80450119210937ADD002A6F
S21408571040F0B584D146039B10922B44039323781C
S214085720002B00F0E58300204FF0000304F1010889
S2140857308DF8373062780646054603464FF0FF3444
S21408574008F10108A2F12001582900F2D982DFE801
S21408575011F02802D702D7023002D702D702D702A2
S214085760D702D702D702A0008802D702A800B8023C
S214085770D702A601AB01AB01AB01AB01AB01AB0194
S214085780AB01AB01AB01D702D702D702D702D702CB
S214085790D702D702D702D702D702B901D702D70253
S2140857A0D702D702D702D702D702D702D702D70224
S2140857B09E01D702D702D702D702D702A201D70284
S2140857C0D7025A02D702D702D702D702D702D70281
S2140857D0D702D702D702D70261022202D702D7021F
S2140857E0D70276022202D702D7027B02D702FC0132
S2140857F089011002D202D7029502D702AD00D7025D
S214085800D702350209F10809039B2B44039386E760
S2140858105946069800F0AAFD18BBBBF80C1001F014
S2140858201A030A2B7FF44BAFBBF90E30002BFFF69A
S21408583046AFDBF86430DB0705D48F0503D4DBF806
S214085840580002F083FA2B4642465946069800F05E
S21408585049FD039003982DB0BDE8F08F01F0A6FE31
S21408586009E7DBF86430D90704D4BBF80C309A058E
S21408587040F1AE844FF0FF33039303982DB0BDE894
S214085880F08FDBF8580002F05FFABBF90C0081B223
S214085890FBE607990A460D680432002D079202DADD
S2140858A06D4243F0040398F8002049E708959E06E1
S2140858B000F15A840799DD060A4600F1EF83580678
S2140858C040F1EC83002701220E88043107914FF03F
