S012000044756550726F6A6563742E737265631D
S214080000884707208D1708008917080089170800F1
S21408001089170800891708008917080000000000DB
S214080020000000000000000000000000891708001B
S21408003089170800000000008917080089170800BB
S2140800408917080089170800891708008917080003
S21408005089170800891708008917080089170800F3
S214080060891708008917080000000000FD15080019
S21408007011160800251608003916080000000000AA
S21408008000000000251008008917080089170800D6
S21408009089170800891708008917080089170800B3
S2140800A08917080000000000891708007D0B080063
S2140800B08917080089170800891708008917080093
S2140800C08917080089170800891708008917080083
S2140800D089170800AD0E0800891708008917080058
S2140800E08917080089170800891708008917080063
S2140800F08917080010B5054C237833B9044B13B19B
S2140801000448AFF300800123237010BDE80A0720D7
S21408011000000000AC8A08000C4B43B10C4810B530
S2140801200C49AFF300800C48036823B910BD0A4891
S214080130036833B97047094B002BF7D0BDE8104069
S2140801401847064B002BF5D0184700BF00000000E4
S214080150AC8A0800EC0A0720AC8A080000000000F9
S214080160F8B506460F466420074B984704466422AF
S2140801700021064B984732463B4605492046054D22
S214080180A8472046F8BD00BFE92C08003D32080005
S2140801906C870800B534080030B4934B5CA1D1E9ED
S2140801A00001C3E900015CA1D1E90001C3E902012D
S2140801B05BA1D1E90001C3E904015BA1D1E9000113
S2140801C0C3E906015AA1D1E90001C3E908015AA109
S2140801D0D1E90001C3E90A0159A1D1E90001C3E93F
S2140801E00C0159A1D1E90001C3E90E0158A5D5E9CA
S2140801F00045C3E9104500204FF08041C3E91201CD
S214080200C3E91445C3E9160153A1D1E90001774BA8
S214080210C3E9000152A1D1E90001754BC3E9000109
S21408022051A1D1E90001734BC3E9000150A1D1E9FE
S2140802300001714BC3E900014FA1D1E900016F4BE2
S214080240C3E900014EA1D1E900016D4BC3E90001E5
S2140802504DA1D1E900016B4BC3E900014CA1D1E9DE
S2140802600001694BC3E900014BA3D3E900236749A2
S214080270C1E90023002400256549C1E90045654910
S214080280C1E900236449C1E9002345A1D1E9000179
S214080290624BC3E9000144A1D1E90001604BC3E900
S2140802A0000143A1D1E900015E4BC3E9000142A168
S2140802B0D1E900015C4BC3E9000141A1D1E9000185
S2140802C05A4BC3E9000140A1D1E90001584BC3E9E4
S2140802D000013FA1D1E90001564BC3E900013EA148
S2140802E0D1E90001544BC3E900013DA1D1E9000161
S2140802F0524BC3E900010022514B524CC4E900237B
S214080300514CC4E900015149C1E9002330BC70478B
S214080310B81E85EB51B8BE3F8FC2F5285C8FFE3FEE
S2140803205C8FC2F5285CBF3F9A9999999999FF3FC7
S2140803307B14AE47E17AC43FD7A3703D0AD7C33FC4
S214080340C74B378941600F4004560E2DB29D0F40AB
S214080350AE47E17A14AEFF3FA4703D0AD7A3FC3F30
S2140803608014AE47E17A643F999999999999FC3F28
S214080370A4703D0AD7A3FD3F8014AE47E17A74BF48
S2140803807F6ABC7493180E408A4160E5D0220EC07E
S214080390801E85EB51B89E3F8014AE47E17A943FA5
S2140803A092CB7F48BF7D8D3F014D840D4F2F0D406A
S2140803B04082E2C798BB8E3F15AE47E17A340F40BD
S2140803C02D431CEBE2369A3F0B462575029A983F5A
S2140803D055A69883A0C32E40D3F88557923C2F4045
S2140803E03EE8D9ACFA5C0F40600D0720880B072062
S2140803F0980B0720900B0720A00B0720A80B0720B8
S214080400B80B0720B00B0720C00B0720C80B072027
S214080410D80B0720D00B0720E00B0720280B072057
S214080420300B0720380B0720400B0720480B072007
S214080430500B0720580B0720600B0720680B072077
S21408044000001040700B0720780B0720800B072051
S2140804502DE9F04F83B004460D46CDE90023DFF8BA
S214080460A8B0D84780468946DFF8A0A0CAE9008920
S214080470DDE90C2320462946D84706460F46CAE932
S2140804800267DDE90023DDE90C01D84704460D467E
S214080490CAE90445DDE90E23DDE90C01D847CDE9B4
S2140804A0000102460B46CAE90623DFF864A00022CC
S2140804B0104B40464946D0470F4BC3E9000100227F
S2140804C00C4B30463946D0470C4BC3E90001002296
S2140804D0084B20462946D047094BC3E900010022AD
S2140804E0044BDDE90001D047064BC3E9000103B021
S2140804F0BDE8F08F00407540080B0720100B07205A
S214080500180B0720200B0720411E0800400D072067
S214080510A92108002DE9F04FADB029902A912B9219
S2140805208F4B18CB184621468E4B18CB1F46A04635
S2140805308D4B18CB1D4626468C4CCDE908783A4696
S2140805404346CDE90001A04780468946884BD3E953
S2140805500023CDE9045628463146A047854E024674
S2140805600B4640464946B047CDE91001824BD3E9D1
S21408057000AB824BD3E90023CDE90223804BD3E9B5
S214080580002350465946A047804689467D4BD3E906
S2140805900023DDE90201A04702460B4640464946CD
S2140805A0B047CDE91201DDE904783A4643463846B5
S2140805B04146A047CDE91401734BD3E90012CDE9B3
S2140805C00612724BD3E90023CDE904783846414633
S2140805D0A04780468946DDE90623DDE90001A047F5
S2140805E002460B4640464946B047694FDDE91023A8
S2140805F0B847CDE91601674BD3E90023CDE91823A0
S214080600654BD3E90023DDE90401A0478046894607
S214080610DDE91823DDE90001A04702460B464046FF
S2140806204946B047DDE91023B847CDE924015B4BBE
S214080630D3E90012CDE91A12594BD3E90089CDE95E
S2140806401C89584BD3E90089574BD3E90012CDE9EA
S2140806501E12564BD3E90023CDE92023544BD3E989
S2140806600012CDE92212534BD3E90012CDE90A1243
S214080670514BD3E90012CDE90C12504BD3E90023B5
S214080680CDE90E234E4DDDE91423DDE91A01A8470E
S214080690DDE90A23B04742464B46A847DDE90C2366
S2140806A0B047DDE92023A847DDE90E23B047CDE9AA
S2140806B02601DDE9000102460B46A047DDE91A23BC
S2140806C0A847DDE91C23B04742464B46A847DDE964
S2140806D01E23B047DDE92023A847DDE92223B047DB
S2140806E0DDE90423A04780468946DDE92623DDE9BF
S2140806F00001A04702460B4640464946B04780469A
S2140807008946DDE9100102460B46A84702460B4615
S21408071040464946B847CDE910012A4BD3E900239D
S214080720DDE90201A04780468946274BD3E9002326
S21408073050465946A04702460B4640464946B047EB
S214080740DDE91223B84702460B46DDE91601B04735
S214080750CDE900011D4BD3E90023DDE9020137E0AE
S214080760080B0720B80B0720100B0720A921080044
S214080770A80B0720411E0800180B0720200B07208F
S214080780C00B0720B00B0720980B0720880B072004
S214080790FD230800D80B0720C80B0720280B0720C6
S2140807A0300B0720480B0720500B0720680B072044
S2140807B0700B0720380B0720580B0720780B0720EC
S2140807C0451E0800900B0720A00B0720D00B07201B
S2140807D0A047804689469D4BD3E900235046594694
S2140807E0A04702460B4640464946B047DDE9122375
S2140807F0B847DDE92423B047DDE90023B847CDE94B
S214080800040152465B4650465946A047DDE90A238E
S214080810A847DDE91C23B047DDE90C23A847DDE936
S2140808201E23B047DDE90E23A847DDE92223B0479B
S214080830DDE90223A04780468946DDE90201024633
S2140808400B46A047DDE90A23A847814BD3E90023D6
S214080850B047DDE90C23A8477E4BD3E90023B04711
S214080860DDE90E23A8477C4BD3E90023B047524660
S2140808705B46A04702460B4640464946B047804678
S2140808808946DDE912BC5A46634658466146A8477B
S21408089002460B4640464946B847DDE91023B047AE
S2140808A0DDE90023B84780468946DDE904AB5246B1
S2140808B05B46DDE91601A047DDE92423A847CDE914
S2140808C00001CDE9028942464B46DDE91601A047FC
S2140808D0DDE91023A847CDE90A01DDE90689424685
S2140808E04B4640464946A847DDE90223A047DDE9CE
S2140808F02623A84780468946DDE9080102460B46B6
S214080900A847DDE90A23A04702460B464046494663
S214080910A847CDE90C0152465B46DDE90601A0472B
S21408092080468946DDE90023DDE90801A04702463E
S2140809300B4640464946A84780468946DDE91801E1
S21408094002460B46A84702460B4640464946A84775
S21408095002460B46A847CDE9060100223F4BDDE9D3
S2140809601401A047CDE90E01DDE9008942464B4651
S21408097040464946A0478046894652465B46CDE9EA
S21408098004AB50465946A04702460B4640464946E1
S214080990A8470022324BA847DDE90E23A047804629
S2140809A08946DDE906BC5A46634658466146A0476E
S2140809B002460B4640464946B047CDE90801DFF8EF
S2140809C0A880DDE90223D8E90001B047CDE9100187
S2140809D0DDE90A23D8E90801B047CDE91201D8E9CC
S2140809E010ABDDE91023DDE90401A04780468946FF
S2140809F0DDE91223DDE90001A04702460B46404622
S214080A004946A84752465B46A8478046894600227C
S214080A10144BDDE91401A04702460B4640464946FA
S214080A20A04780468946DDE9060102460B46A847E8
S214080A30DDE90C23A04702460B4640464946A84730
S214080A4080468946DDE9080102460FE0E00B0720EC
S214080A50400B0720600B0720800B07200000104083
S214080A600000F03F00002040600D07200B46A84716
S214080A7002460B4640464946B84702460B46CDE96D
S214080A800623A047CDE91401DDE9128942464B4604
S214080A9040464946A04780468946DDE91001024699
S214080AA00B46A04702460B4640464946A84780469E
S214080AB0894652465B4650465946A04702460B466C
S214080AC040464946A847DDE90E23A04780468946A2
S214080AD0DDE90CAB52465B4650465946A0470246EF
S214080AE00B4640464946B047DDE90823B847024664
S214080AF00B46DDE91401B04705460C4600220023E4
S214080B0028462146184EB047002829D128462146AF
S214080B10164B984702460B46DDE90601144CA047DB
S214080B2004460D462B9BC3E90045124E02460B466B
S214080B30DDE90401B047104FDDE90223B847299BD9
S214080B40C3E9000122462B46DDE90001B047DDE98E
S214080B500A23B8472A9BC3E900012DB0BDE8F08FE9
S214080B6004F10044D2E700BF8D260800011C0800E7
S214080B70411E0800A9210800451E080000B583B0DC
S214080B8000210648064B98470190019B4FF080616C
S214080B900448054B984703B05DF804FB000008407E
S214080BA0F10F080000100E40BF13080010B51F20F4
S214080BB0064B9847064C4FF4804201212046054BC9
S214080BC0984701212046044B984710BD3517080062
S214080BD000400840B10F0800C90F080000000000D8
S214080BE00C2800D07047B1F1806FFBD12DE9F04793
S214080BF08EB04FF080624FF020517748774B984779
S214080C0010B90EB0BDE8F08701217548754B9847B6
S214080C10754B1860754B1B68032BF2D8DFE803F09A
S214080C20021E3B580123724A1363704A1360714BC5
S214080C3018604FF0806168486F4B98476F4C704A51
S214080C40002120466F4B98471022002120466E4B05
S214080C509847002120466D4B9847D2E70122644BFF
S214080C605A630222614B1A60624B58604FF08061EB
S214080C705948614B9847614C614A00212046614BB0
S214080C8098471022002120465F4B984700212046AF
S214080C905E4B9847B5E70122554B1A630322534B20
S214080CA01A60544B98604FF080614B48524B9847F7
S214080CB0524C534A00212046524B98471022002196
S214080CC02046514B984700212046504B984798E7B6
S214080CD04FF0010A464BC3F834A0464DE8604FF083
S214080CE080613D48444B9847494F6868B847494E25
S214080CF04949B047494CA047DFF83C9130A3D3E9AF
S214080D000023C847DFF83481C047A047CDE904016F
S214080D102868B8474049B047A047CDE90601E868C3
S214080D20B8473D49B047A04727A3D3E90023C8479B
S214080D30C047A047CDE90201A868B8473649B0477A
S214080D40A04723A3D3E90023C847C047A047CDE957
S214080D500001DDE90423DDE90601314CA0470EAAAF
S214080D600020002162E902010AA908A82D4B98472D
S214080D70DDE908012C4CA0470546DDE90A01A04735
S214080D800646DDE90C01A0470346324629462748B1
S214080D90274CA047194C274A00212046194B98474C
S214080DA0102200212046184B984700212046174C51
S214080DB0A04751460A48A04700220C4B1A6020E775
S214080DC0B81E85EB51B89E3F0AD7A3703D0AB73FB9
S214080DD0B81E85EB51B8AE3F00100E40E31208006F
S214080DE000400840D90F0800C00D0720E80B072070
S214080DF000140E40C40D0720C31308000000084066
S214080E0090051000E10F0800E90F0800C90F080058
S214080E10152908002D2B0800A037204C01210800B2
S214080E2051040800150508006101080074870800C9
S214080E30C12C0800200B2000411E080009270800C6
S214080E4030B583B00C20114B9847114C01224FF057
S214080E50806120460F4B984700224FF0806120465D
S214080E600D4B98470D4B009340234FF080620C21A2
S214080E7020460B4DA8474FF080612046094B9847FF
S214080E804FF48052084B1A6003B030BD351708007F
S214080E9000100E4039130800D9120800E10B0800AC
S214080EA08D150800BF13080000E100E038B5254896
S214080EB0254B984710F0805F00D138BD00212348A5
S214080EC0234B9847234C00231A46194640F6BC4540
S214080ED034F9020F8842C4BF1A4601460133AB42B2
S214080EE0F6D11D481D4B98474FF080611C481D4B96
S214080EF0984741F6781200211B481C4B9847114B1F
S214080F00D3F804311BB90F4BD3F814316BB10D4B22
S214080F10D3F81431002BD0D10A4B134AC3F810214A
S214080F2040F6BC42C3F81421C7E7064B0E4AC3F87E
S214080F30002140F6BC42C3F804210122C3F8202150
S214080F4038BD00BF00000C40AD0F08000000084088
S214080F50D10F0800D60D07208C870800C12C080082
S214080F6000100E40BF130800D80D07203D320800B9
S214080F702DE9F04180B90C469046002A0FDD8F18FF
S214080F80084E094D306821462B6898470134BC4204
S214080F90F8D14046BDE8F0814FF0FF38F9E78046C3
S214080FA0F7E700BF5827072050270720006B704731
S214080FB010B489014318022444504FF0FF31996257
S214080FC0196A5A6010BC7047890105234350704758
S214080FD0890102234350704700EB81110869704766
S214080FE000EB8111CA61704700EB81114A627047B5
S214080FF000EB8111086A7047436913F0020F1DBFA2
S214081000C1F30801C161002001207047436913F04D
S214081010010F05D08369C3F308030B6000207047EF
S2140810200120704700B583B001220DF10701104872
S214081030104B984772B6BFF35F8F00220E4B1A709C
S2140810400E4B1B789DF807100D4AD1549B2B0BD0DE
S21408105001330A4A13700122074B1A70BFF35F8FD9
S21408106062B603B05DF804FB0022044B1A70F2E780
S21408107000800940D51008002C010720880C07209E
S214081080EC0B07200138022815D82DE9F0410E464A
S21408109014469AB10D46DFF838800C4FD8F8000091
S2140810A015F8011B3B68984700280ADBA81B013C7B
S2140810B0F4D1BDE8F0814FF0FF3070471046BDE828
S2140810C0F0814FF0FF30BDE8F08100BF54270720BD
S2140810D058270720002A51D02DE9F04F83B005463F
S2140810E00C4692468A44264FDFF8A890254E1DE007
S2140810F021463846C8470028FAD121E09B46DFF843
S214081100988001A95846C0470028FAD1019B237049
S21408111019E09B46DFF8808001A95846C04700289A
S214081120FAD1019B23700134544523D00023019340
S214081130BD42DDD0144B9D42E0D0144B9D42E8D012
S214081140134B9D420BD0B542EDD1DFF84C8001A978
S2140811503046C0470028FAD1019B2370E3E79B4638
S214081160DFF8348001A95846C0470028FAD1019B09
S2140811702370D8E7002003B0BDE8F08F0020704742
S21408118000080E4000400A400080094000C00940A0
S21408119000000A40E31108000D10080010B4AC2344
S2140811A003600B684A68B3FBF2F31B095C1E4FF634
S2140811B0FE7294420BD803628B68436040F20223A7
S2140811C0C0F8203150230360002010BC704701206F
S2140811D0FBE7436913F0020F1ABFC1610020012024
S2140811E07047436913F0010F1DBF83690B70002019
S2140811F00120704710B50E480E4B98473E21002038
S2140812000D4B98470D4CA0470028FCD00C4B984730
S2140812100C4A0D4B9A620D4CA0470028FCD01020B3
S2140812200B4B98470B4B98470148024B984710BD05
S21408123000BD0105A5000720B1160800051708001F
S21408124015170800013F0D2000060E402517080058
S2140812504D1608002518080010B54FF40042164B26
S2140812605A600B20154CA0470C20A0470D20A0471D
S2140812700E20A0474FF060513B20114CA0474FF07E
S21408128060515520A0474FF060515620A0470D49A1
S2140812906820A0470C495C20A0470C4A4FF44071D0
S2140812A00B480C4B98474FF000612B20A0474FF097
S2140812B000612A20A04710BD501A0E4035170800B6
S2140812C0D113080079000028010000280100000852
S2140812D0000E0E40A11408000AB901667047416660
S2140812E0704721F00061B1F1405F0CBF836BC36BA0
S2140812F0134214BF0120002070474264B1F1805F9A
S21408130016D00BD849B1B1F1006F05D1036F016F44
S2140813100B4023EA0203036742607047B1F1405F5F
S214081320FBD0B1F1605FF8D0B1F1205FF4D170471F
S214081330036F13430367EFE7416412F0010F14BF0E
S2140813404166016612F00A0F14BF0162416212F08C
S214081350020F07D112F0080F18BFC0F884104161B9
S21408136001607047C0F88010F9E710B4019C41642A
S21408137044B9016643B1016542B941630161016040
S21408138010BC70474166F5E74165F5E70163F5E788
S21408139012F0100F10D0C0F8B01012F0200F14BFC3
S2140813A0C0F8D410C0F8D01012F0400F14BFC0F820
S2140813B0C010C0F8C4107047C0F8B4107047016475
S2140813C0704741647047C06C7047806C7047000077
S2140813D070B582B00D46430903F5001303F2077390
S2140813E05C0201F0F043B3F1205F31D016D8B3F1B8
S2140813F0006F1BD0B3F1805F16D100F01F000126E6
S214081400864032464FF080512046224B984715F0CA
S214081410010F14BF66662666012017E0B3F1405F29
S21408142021D0B3F1605F1ED000200FE000F01F004F
S2140814300126864032464FF000612046154B9847F5
S21408144015F0010F14BF66662666012002B070BD4F
S21408145000F01F0101262A4606FA01F120460E4B27
S21408146098473046F2E705F0605200F01F01012663
S21408147005EA06030093C5F38003B2F1605F14BF64
S2140814800022012206FA01F12046044CA047304605
S214081490DCE700BFFB120800391308006B130800CE
S2140814A070B582B005460E46144602F0F043B3F116
S2140814B0205F27D011D8B3F1006F16D0B3F1805F44
S2140814C011D10A464FF08051194B984714F0010F76
S2140814D014BF6E662E66012012E0B3F1405F15D089
S2140814E0B3F1605F12D000200AE00A464FF00061B0
S2140814F00F4B984714F0010F14BF6E662E66012036
S21408150002B070BD0B4B98470120F9E704F0605213
S21408151004F001030093C4F38003B2F1605F14BFC4
S2140815200022012231462846034CA0470120E7E75F
S214081530FB120800391308006B1308002DE9F04168
S214081540044688460E4B9847054620460D4B984756
S214081550054013D00C4C04F1600603E0B4420DD0ED
S21408156010345DB120684045F8D161682942F5D04D
S214081570E3689847636825EA0305EFE7BDE8F08166
S214081580C7130800CB1308008C0C0720F8B5184CB6
S2140815902668062E29D84FF0000C6446154F04E03E
S2140815A00134E4B2A446A64209D3A64625017D59CD
S2140815B08D42F5D107EB04156D689542F0D10D4DB7
S2140815C04FEA0E1E05EB0E0445F80E106260A36087
S2140815D00699E1600136664504BF05490E60114666
S2140815E01A46054B98470020F8BD0120F8BD00BFF5
S2140815F0FC0C07208C0C07209113080008B50B215B
S2140816000148024B984708BD000E0E403D150800DD
S21408161008B50C210148024B984708BD00100E403B
S2140816203D15080008B50D210148024B984708BD2E
S21408163000120E403D15080008B50E210148024B61
S214081640984708BD00140E403D150800174A136B4E
S21408165023F0700318431063936E13F0080F0AD133
S2140816604FF4006311498A6E12F0080F03D1013B4C
S214081670F9D1012070470D4A136B23F0030343F09A
S21408168002031363936E13F0080F0AD14FF4006336
S21408169006498A6E12F0080F05D1013BF9D10120E0
S2140816A07047002070470020704700BF00060E40B5
S2140816B0C8B9114A136A090289B223F45C1323F0E5
S2140816C0030343F45C1343F001030B431362936E66
S2140816D013F0010FFBD0084A136A43F09B7343F4D8
S2140816E080331362704704490B6A044A1A40044B55
S2140816F013430B62704700BF00060E40FCFFC8FE8F
S21408170002003701024B986E00F48030704700BF25
S21408171000060E404FF00052014B9A62704700BF19
S21408172000060E40024B986E00F00200704700BF9D
S21408173000060E402C281ED81F280CD8114B9A6974
S21408174001238340934318D0012303FA00F00D4B7E
S21408175018610020704720380A4BD3F80821012367
S214081760834093430BD0012303FA00F0054BC3F8DC
S21408177000010020704701207047002070470020B5
S214081780704700BF00060E40FEE7000008B51C4B79
S2140817901C4A9A4210D01C4B194A9A420CD2013B5A
S2140817A09B1A23F0030304331344164951F8040B19
S2140817B042F8040B9A42F9D1144B154A9A420AD2B7
S2140817C0013B9B1A23F0030304331344002142F819
S2140817D0041B9342FBD10F4B23F0604222F07F029A
S2140817E00D498A6003F16043B3F5801F03D28B6806
S2140817F043F000538B60094B9847094B9847FEE720
S21408180000000720AC8A0800E80A0720842707207B
S214081810E80A07200000080000ED00E0712C080028
S214081820211B08003D4B1B6B03F00303032B0ED84C
S214081830DFE803F0021C3838394B5B6913F0800F79
S21408184014BF4FF400424FF4FA42364B1A60334B3B
S2140818501B6B03F07003702B57D0304B1A6B314953
S214081860C2F302120B68D3400B6070472B4B1B6AFF
S21408187013F0807F03D02C4A2A4B1A60E7E72B4ADE
S214081880284B1A60254B1B6A03F07003102B05D0F3
S214081890202BDCD1244A234B1A60D8E7244A214B54
S2140818A01A60D4E71D4B1B6A13F0807F0CD01E4AC3
S2140818B01C4B1A60194B1B6B03F00303022B16D044
S2140818C01C4A184B1A60C2E7184A164B1A60134B84
S2140818D01B6A03F07003102B05D0202BEAD1124A9E
S2140818E0104B1A60E6E7124A0E4B1A60E2E70B4AFC
S2140818F0916A926A0B48C1F30A41036801FB0333F5
S214081900D2B2B3FBF2F30360A1E7064A13680A49AA
S214081910A1FB03135B081360704700BF00060E4068
S214081920101A0E4030010720001BB70000093D00C2
S21408193000127A00001C4E0EABAAAAAA0A4B1B6815
S21408194053B1094B1B681A180849914208DB104620
S214081950054A106018467047054A034B1A60F0E7B8
S2140819604FF0FF30704700BF000D0720FC7F0820AF
S214081970884707204FF0FF3070474FF400534B60FE
S21408198000207047012070470020704710B51B20C4
S2140819900A4B98470A4C4FF4804200212046094BD0
S2140819A09847094A00212046084B98474FF000629E
S2140819B0074B1A600122074B1A6010BD351708003E
S2140819C000000840B10F080060216000E10F080021
S2140819D000E100E0040D0720F0B583B004460D468C
S2140819E000230193204B98420DD0204B984212D0EA
S2140819F01F4B984219D01F4B9C4220D01E4B9C422E
S214081A0027D003B0F0BD1F461C4E29463846B047BF
S214081A100028FAD1EFE71F46194E01A93846B04705
S214081A200028FAD1019B2B70E8E71E46144C01A942
S214081A303046A0470028FAD1019B2B70E1E71E46E6
S214081A400F4C01A93046A0470028FAD1019B2B70FD
S214081A50D7E71E460A4C01A93046A0470028FAD107
S214081A60019B2B70CDE700BF00080E4000800940A0
S214081A7000C0094000000A4000400A40E311080080
S214081A800D10080070B50C461E4B98420DD01E4B24
S214081A90984213D01D4B984219D01D4B98421FD020
S214081AA01C4B984225D0002070BD1E461A4D214674
S214081AB03046A8470028FAD1012070BD1E46174DAB
S214081AC021463046A8470028FAD1012070BD1E4698
S214081AD0124D21463046A8470028FAD1012070BD8D
S214081AE01E460E4D21463046A8470028FAD101204A
S214081AF070BD1E46094D21463046A8470028FAD133
S214081B00012070BD00080E400080094000C0094052
S214081B1000000A4000400A40D3110800F90F0800E8
S214081B2000B585B0214B9847214B98470B20214C90
S214081B30A0470C20A0470D20A0470E20A04708204D
S214081B40A0471D4D1D4B1D601D4A1E4B1A601E4AA0
S214081B501E4B1A601E4B01934FF4165302934FF414
S214081B60006303930820A04701A92846194B984705
S214081B70194D2B6800219868184CA0472B6800213F
S214081B805868A0471648174CA0471748A047174B51
S214081B909847174CA047174B01221A61C3F8A02094
S214081BA0154B9847A047154B9847FEE7F5110800D0
S214081BB0591208003517080000080E405827072055
S214081BC0851A080054270720D91908005027072027
S214081BD000BD01059D1108003801072015330800CF
S214081BE0B0870800C12C0800C087080099010800C3
S214081BF08D19080000140E40AD0B0800410E0800B1
S214081C002DE9F04F8BB004460D4600F057F8294BE7
S214081C10064693F900A00F46BAF1FF3F12D02246B7
S214081C202B462046294600F059FD834650B94FF00A
S214081C3000084FF000092046294642464B4600F069
S214081C4025FD20B9304639460BB0BDE8F08F012295
S214081C50194BCDF820B0CDE90445CDE902458DE80D
S214081C600C00BAF1000F17D042464B46404649468C
S214081C7000F0C4FBBAF1020FCDE906010ED100F060
S214081C80F1FF21230360089B73B9DDE90667304638
S214081C9039460BB0BDE8F08FCDE90689684600F0F6
S214081CA0C9F80028EFD1EAE700F0DCFF089B0360DC
S214081CB0EBE700BF34010720D08708002DE9F8437A
S214081CC05B4F05468F430C4600F0928000290B4672
S214081CD002466FDD0F157BD0A7F2FF37C3F3130359
S214081CE0F80743F480135CD400261620B6464FF453
S214081CF0001103EBD2747F10234452000EEB01044C
S214081D009C424FEAD2754FEA420203DC1B1B04EBE7
S214081D10010E0E44013805EB43034FEA5101EDD19D
S214081D20202484464FF0004109E020D003EBD2750A
S214081D30013C4FEA51012B444FEA420220D073453A
S214081D4001EB0C05F1DD002D05EB010C09DBF04677
S214081D509542A3EB0E0300D9013BC646521B084426
S214081D60E4E7BCF1000FF2DB0EF10108F0E795425C
S214081D70DCD8002D05EB010C44DB98460023ECE785
S214081D80134313D14008731003F17F5303F5001370
S214081D9003EB07594946F20748BF40F00040BDE844
S214081DA0F8835B0003EBD27352009DE7411C2DD0ED
S214081DB00130E7E7064621F000473E43EFD069BB0F
S214081DC00F46D30A153F5205002BFAD0DE0220D460
S214081DD0002400E004465B00DD0204F10100F9D5AA
S214081DE0C0F1200122FA01F10B433F1B824073E742
S214081DF002460B4600F0D8F92A46234600F022F899
S214081E00BDE8F883BCF1000FAEDAB6E70136204627
S214081E10B9E7002020214FF0FF34E3E702460B46DF
S214081E2000F00EF802460B4600F0E8FAB7E700BFE7
S214081E300000F07F0020704781F0004102E000BFFC
S214081E4083F0004330B54FEA41044FEA430594EA6D
S214081E50050F08BF90EA020F1FBF54EA000C55EAA8
S214081E60020C7FEA645C7FEA655C00F0E2804FEA79
S214081E705454D4EB5555B8BF6D420CDD2C4480EA5B
S214081E80020281EA030382EA000083EA010180EA8B
S214081E90020281EA0303362D88BF30BD11F0004FD9
S214081EA04FEA01314FF4801C4CEA113102D040420F
S214081EB061EB410113F0004F4FEA03334CEA13334A
S214081EC002D0524263EB430394EA050F00F0A78062
S214081ED0A4F10104D5F1200E0DDB02FA0EFC22FA5D
S214081EE005F2801841F1000103FA0EF2801843FA51
S214081EF005F359410EE0A5F120050EF1200E012A42
S214081F0003FA0EFC28BF4CF0020C43FA05F3C0187F
S214081F1051EBE37101F0004507D54FF0000EDCF1F8
S214081F20000C7EEB00006EEB0101B1F5801F1BD3A1
S214081F30B1F5001F0CD349085FEA30004FEA3C0CA5
S214081F4004F101044FEA445212F5800F80F09A809B
S214081F50BCF1004F08BF5FEA500C50F1000041EB9F
S214081F60045141EA050130BD5FEA4C0C404141EBA3
S214081F70010111F4801FA4F10104E9D191F0000FCA
S214081F8004BF01460020B1FA81F308BF2033A3F14D
S214081F900B03B3F120020CDA0C3208DD02F1140C44
S214081FA0C2F10C0201FA0CF021FA02F10CE002F17F
S214081FB01402D8BFC2F1200C01FA02F120FA0CFC78
S214081FC0DCBF41EA0C019040E41AA2BF01EB0451C1
S214081FD0294330BD6FEA04041F3C1CDA0C340EDCBF
S214081FE004F11404C4F1200220FA04F001FA02F302
S214081FF040EA030021FA04F345EA030130BDC4F1C0
S2140820000C04C4F1200220FA02F001FA04F340EAB4
S2140820100300294630BD21FA04F0294630BD94F065
S214082020000F83F4801306BF81F480110134013D4C
S2140820304EE77FEA645C18BF7FEA655C29D094EABD
S214082040050F08BF90EA020F05D054EA000C04BF3B
S2140820501946104630BD91EA030F1EBF0021002026
S21408206030BD5FEA545C05D14000494128BF41F0C5
S214082070004130BD14F580043CBF01F5801130BD29
S21408208001F0004545F0FE4141F470014FF00000B4
S21408209030BD7FEA645C1ABF194610467FEA655C65
S2140820A01CBF0B46024650EA013406BF52EA033507
S2140820B091EA030F41F4002130BD00BF90F0000FF5
S2140820C004BF0021704730B54FF4806404F1320431
S2140820D04FF000054FF0000150E700BF90F0000FEA
S2140820E004BF0021704730B54FF4806404F1320411
S2140820F010F0004548BF40424FF000013EE700BFE1
S21408210042004FEAE2014FEA31014FEA02701FBF70
S21408211012F07F4393F07F4F81F06051704792F042
S214082120000F14BF93F07F4F704730B54FF46074BC
S21408213001F0004521F0004120E700BF50EA010207
S21408214008BF704730B54FF000050AE050EA0102B4
S21408215008BF704730B511F0004502D5404261EB24
S21408216041014FF4806404F132045FEA915C3FF465
S214082170DCAE4FF003025FEADC0C18BF03325FEAFE
S214082180DC0C18BF033202EBDC02C2F1200300FAB3
S21408219003FC20FA02F001FA03FE40EA0E0021FAD8
S2140821A002F11444C1E600BF70B54FF0FF0C4CF4C2
S2140821B0E06C1CEA11541DBF1CEA135594EA0C0F78
S2140821C095EA0C0F00F0DEF82C4481EA030621EAB3
S2140821D04C5123EA4C5350EA013518BF52EA0335EE
S2140821E041F4801143F4801338D0A0FB02CE4FF0A0
S2140821F00005E1FB02E506F00042E0FB03E54FF0D0
S2140822000006E1FB03569CF0000F18BF4EF0010EC7
S214082210A4F1FF04B6F5007F64F5407404D25FEAC3
S2140822204E0E6D4146EB060642EAC62141EA555176
S2140822304FEAC52040EA5E504FEACE2EB4F1FD0CB8
S21408224088BFBCF5E06F1ED8BEF1004F08BF5FEA36
S214082250500E50F1000041EB045170BD06F00046E8
S21408226046EA010140EA020081EA0301B4EB5C0495
S214082270C2BFD4EB0C0541EA045170BD41F480118D
S2140822804FF0000E013C00F3AB8014F1360FDEBFB2
S214082290002001F0004170BDC4F10004203C35DA8E
S2140822A00C341BDC04F11404C4F1200500FA05F311
S2140822B020FA04F001FA05F240EA020001F00042B2
S2140822C021F0004110EBD37021FA04F642EB060128
S2140822D05EEA430E08BF20EAD37070BDC4F10C0452
S2140822E0C4F1200500FA04F320FA05F001FA04F216
S2140822F040EA020001F0004110EBD37041F1000102
S2140823005EEA430E08BF20EAD37070BDC4F120050C
S21408231000FA05F24EEA020E20FA04F301FA05F274
S21408232043EA020321FA04F001F0004121FA04F21C
S21408233020EA020000EBD3705EEA430E08BF20EAEC
S214082340D37070BD94F0000F0FD101F00046400026
S21408235041EB010111F4801F08BF013CF7D041EAA8
S214082360060195F0000F18BF704703F000465200AC
S21408237043EB030313F4801F08BF013DF7D043EA7D
S2140823800603704794EA0C0F0CEA135518BF95EA33
S2140823900C0F0CD050EA410618BF52EA4306D1D1BA
S2140823A081EA030101F000414FF0000070BD50EAD9
S2140823B0410606BF1046194652EA430619D094EA63
S2140823C00C0F02D150EA013613D195EA0C0F05D14D
S2140823D052EA03361CBF104619460AD181EA0301A1
S2140823E001F0004141F0FE4141F470014FF0000059
S2140823F070BD41F0FE4141F4780170BD70B54FF0F4
S214082400FF0C4CF4E06C1CEA11541DBF1CEA135573
S21408241094EA0C0F95EA0C0F00F0A7F8A4EB050455
S21408242081EA030E52EA03354FEA013100F088804C
S2140824304FEA03334FF0805545EA131343EA126315
S2140824404FEA022245EA111545EA10654FEA0026CA
S2140824500EF000419D4208BF964244F1FD0404F583
S214082460407402D25B084FEA3202B61A65EB0305DF
S2140824705B084FEA32024FF480104FF4002CB6EB9C
S214082480020E75EB030E22BFB61A754640EA0C001C
S2140824905B084FEA3202B6EB020E75EB030E22BF5C
S2140824A0B61A754640EA5C005B084FEA3202B6EB9D
S2140824B0020E75EB030E22BFB61A754640EA9C005C
S2140824C05B084FEA3202B6EB020E75EB030E22BF2C
S2140824D0B61A754640EADC0055EA060E18D04FEAEA
S2140824E0051545EA16754FEA06164FEAC30343EA8A
S2140824F052734FEAC2025FEA1C1CC0D111F4801F57
S2140825000BD141EA00014FF000004FF0004CB6E74F
S21408251011F4801F04BF01430020B4F1FD0C88BFEE
S214082520BCF5E06F3FF6AFAEB5EB030C04BFB6EBF9
S214082530020C5FEA500C50F1000041EB045170BDEC
S2140825400EF0004E4EEA113114EB5C04C2BFD4EB19
S2140825500C0541EA045170BD41F480114FF0000E9D
S214082560013C90E645EA060E8DE60CEA135594EA19
S2140825700C0F08BF95EA0C0F3FF43BAF94EA0C0F1C
S2140825800AD150EA01347FF434AF95EA0C0F7FF491
S21408259025AF104619462CE795EA0C0F06D152EAE5
S2140825A003353FF4FDAE1046194622E750EA4106C9
S2140825B018BF52EA43067FF4C5AE50EA41047FF4DA
S2140825C00DAF52EA43057FF4EBAE12E74FF0FF3C3F
S2140825D006E000BF4FF0010C02E000BF4FF0010C10
S2140825E04DF804CD4FEA410C7FEA6C5C4FEA430C89
S2140825F018BF7FEA6C5C1BD001B050EA410C0CBFD8
S21408260052EA430C91EA030F02BF90EA020F002039
S214082610704710F1000F91EA030F58BF994208BFA0
S21408262090422CBFD8176FEAE37040F0010070475D
S2140826304FEA410C7FEA6C5C02D150EA013C07D1B4
S2140826404FEA430C7FEA6C5CD6D152EA033CD3D0FF
S2140826505DF8040B704700BF8446104662468C46F9
S2140826601946634600E000BF01B5FFF7B7FF00282C
S21408267048BF10F1000F01BD4DF808EDFFF7F4FF55
S2140826800CBF012000205DF808FB00BF4DF808EDE0
S214082690FFF7EAFF34BF012000205DF808FB00BF03
S2140826A04DF808EDFFF7E0FF94BF012000205DF825
S2140826B008FB00BF4DF808EDFFF7CEFF94BF0120DA
S2140826C000205DF808FB00BF4DF808EDFFF7C4FFD3
S2140826D034BF012000205DF808FB00BF4FEA410C1C
S2140826E07FEA6C5C02D150EA013C0AD14FEA430CFF
S2140826F07FEA6C5C02D152EA033C02D14FF000003C
S21408270070474FF0010070474FEA4102B2F1E043CC
S21408271024BFB3F5001CDCF1FE5C0DD901F0004CBB
S2140827204FEAC0024CEA5070B2F1004F40EB83000B
S21408273008BF20F00100704711F0804F21D113F137
S2140827403872BCBF01F00040704741F480114FEA70
S2140827505252C2F11802C2F1200C10FA0CF320FAF9
S21408276002F018BF40F001004FEAC1234FEAD32316
S21408277003FA0CFC40EA0C0023FA02F34FEA430380
S214082780CCE77FEA625307D150EA01331EBF4FF009
S214082790FE4040F44000704701F0004040F0FE4024
S2140827A040F40000704700BF80F0004002E000BF21
S2140827B081F0004142001FBF5FEA410392EA030F1F
S2140827C07FEA226C7FEA236C6AD04FEA1262D2EB69
S2140827D01363C1BFD218414048404140B8BF5B426E
S2140827E0192B88BF704710F0004F40F4000020F007
S2140827F07F4018BF404211F0004F41F4000121F01D
S2140828007F4118BF494292EA030F3FD0A2F1010266
S21408281041FA03FC10EB0C00C3F1200301FA03F1A4
S21408282000F0004302D5494260EB4000B0F5000FC7
S21408283013D3B0F1807F06D340084FEA310102F186
S2140828400102FE2A51D2B1F1004F40EBC25008BF38
S21408285020F0010040EA03007047490040EB000002
S21408286010F4000FA2F10102EDD1B0FA80FCACF131
S214082870080CB2EB0C0200FA0CF0AABF00EBC25030
S21408288052421843BCBFD0401843704792F0000F1E
S21408289081F4000106BF80F400000132013BB5E771
S2140828A04FEA41037FEA226C18BF7FEA236C21D0E7
S2140828B092EA030F04D092F0000F08BF084670474C
S2140828C090EA010F1CBF0020704712F07F4F04D11A
S2140828D0400028BF40F00040704712F100723CBF2D
S2140828E000F50000704700F0004343F0FE4040F457
S2140828F0000070477FEA226216BF08467FEA236315
S2140829000146420206BF5FEA412390EA010F40F4FF
S214082910800070474FF0000304E000BF10F000434B
S21408292048BF40425FEA000C08BF704743F0964332
S21408293001464FF000001CE050EA010208BF70474D
S2140829404FF000030AE000BF50EA010208BF7047D4
S21408295011F0004302D5404261EB41015FEA010CE9
S21408296002BF84460146002043F0B64308BFA3F1E1
S2140829708053A3F50003BCFA8CF2083AA3EBC253C3
S21408298010DB01FA02FC634400FA02FCC2F12002E2
S214082990BCF1004F20FA02F243EB020008BF20F019
S2140829A00100704702F1200201FA02FCC2F120027F
S2140829B050EA4C0021FA02F243EB020008BF20EA74
S2140829C0DC7070474FF0FF0C1CEAD0521EBF1CEAA2
S2140829D0D15392EA0C0F93EA0C0F6FD01A4480EA90
S2140829E0010C400218BF5FEA41211ED04FF0006379
S2140829F043EA501043EA5111A0FB01310CF00040A5
S214082A00B1F5000F3EBF490041EAD3715B0040EACA
S214082A10010062F17F02FD2A1DD8B3F1004F40EB9A
S214082A20C25008BF20F00100704790F0000F0CF06D
S214082A30004C08BF49024CEA502040EA51207F3A31
S214082A40C2BFD2F1FF0340EAC250704740F400000C
S214082A504FF00003013A5DDC12F1190FDCBF00F0FD
S214082A6000407047C2F10002410021FA02F1C2F1AB
S214082A70200200FA02FC5FEA310040F1000053EA47
S214082A804C0308BF20EADC70704792F0000F00F095
S214082A90004C02BF400010F4000F013AF9D040EA9B
S214082AA00C0093F0000F01F0004C02BF490011F42F
S214082AB0000F013BF9D041EA0C018FE70CEAD1532D
S214082AC092EA0C0F18BF93EA0C0F0AD030F0004CAD
S214082AD018BF31F0004CD8D180EA010000F0004061
S214082AE0704790F0000F17BF90F0004F084691F01F
S214082AF0000F91F0004F14D092EA0C0F01D1420259
S214082B000FD193EA0C0F03D14B0218BF084608D121
S214082B1080EA010000F0004040F0FE4040F400006B
S214082B20704740F0FE4040F4400070474FF0FF0CFE
S214082B301CEAD0521EBF1CEAD15392EA0C0F93EA45
S214082B400C0F69D0A2EB030280EA010C49024FEA97
S214082B50402037D04FF0805343EA111143EA101350
S214082B600CF000408B4238BF5B0042F17D024FF408
S214082B70000C8B4224BF5B1A40EA0C00B3EB510FE3
S214082B8024BFA3EB510340EA5C00B3EB910F24BFCC
S214082B90A3EB910340EA9C00B3EBD10F24BFA3EB51
S214082BA0D10340EADC001B0118BF5FEA1C1CE0D119
S214082BB0FD2A3FF650AF8B4240EBC25008BF20F0CC
S214082BC0010070470CF0004C4CEA50207F32C2BF20
S214082BD0D2F1FF0340EAC250704740F400004FF0BD
S214082BE00003013A37E792F0000F00F0004C02BFEE
S214082BF0400010F4000F013AF9D040EA0C0093F0B8
S214082C00000F01F0004C02BF490011F4000F013B11
S214082C10F9D041EA0C0195E70CEAD15392EA0C0F79
S214082C2008D142027FF47DAF93EA0C0F7FF470AFB1
S214082C30084676E793EA0C0F04D14B023FF44CAFF4
S214082C4008466EE730F0004C18BF31F0004CCAD189
S214082C5030F000427FF45CAF31F000437FF43CAFC5
S214082C605FE700BF014B1868704700BF38010720B0
S214082C7070B50F4E0F4D761BB61018BF002405D042
S214082C80013455F8043B9847A642F9D10A4E0B4D35
S214082C9005F0F6FE761BB61018BF002406D00134E1
S214082CA055F8043B9847A642F9D170BD70BD00BFE1
S214082CB08C8A08008C8A0800948A08008C8A080087
S214082CC00FB410B5074B82B004AC54F8042B186840
S214082CD023468168019401F001FF02B0BDE8104068
S214082CE004B0704738010720024B0146186800F008
S214082CF003B800BF380107202DE9F04F01F10B0695
S214082D00162E83B0054640F29E8036F0070600F180
S214082D10BD80B14200F2BA8000F0DEFAB6F5FC7F5C
S214082D20C0F08582730A00F0B880042B00F26C812C
S214082D30B30903F1390003F1380EC100B84F39441E
S214082D404C680839A14206D10CE0002A80F2AB8014
S214082D50E468A14206D0636823F003039A1B0F2A8F
S214082D60F3DD70463C69DFF8CCE2744500F09E81DE
S214082D70636823F003039A1B0F2A00F38381002A53
S214082D80C7F814E0C7F810E080F29180B3F5007F2A
S214082D9080F054810122DB0879684FEAA30C1344BB
S214082DA057F8338002FA0CF207EBC30C0A43ACF16F
S214082DB00801E160C4F808807A6047F83340C8F82C
S214082DC00C40012483109C4094427DD8144206D1BE
S214082DD020F003006400144200F10400FAD007EB68
S214082DE0C009CC468046DCF80C309C4507D15FE12C
S214082DF0002A80F26D81DB689C4500F0598159688D
S214082E0021F003018A1B0F2AF2DDDC68D3F808C01C
S214082E1046F0010828461E4442F00105C3F804801F
S214082E20CCF80C40C4F808C07E613E61C6F80CE0D9
S214082E30C6F808E075605A50009300F053FA009BF5
S214082E4003F108041EE0102920D800F045FA1026E1
S214082E5018230220724F3B445C68A3F10802944290
S214082E6000F02F816368E16823F0030323445A685F
S214082E70A66842F00102F16028468E605A6000F0AB
S214082E8031FA0834204603B0BDE8F08F00240C233E
S214082E9020462B6003B0BDE8F08F40204FF4007149
S214082EA04FF03F0E4AE723445A68E168E0E72344B8
S214082EB05A68284642F001025A60083400F012FAAE
S214082EC0204603B0BDE8F08FBC68636823F00308AB
S214082ED0B04504D3A8EB06030F2B00F38580DFF874
S214082EE05891504BD9F800201B680132334404EB44
S214082EF0080A00F0548103F580530F3323F47F6BE0
S214082F002BF00F0B5946284600F0F2F9411C0246F2
S214082F1000F0FB80824500F2F680434B196859445E
S214082F20196000F04C81D9F8000001301BBFA2EBF5
S214082F300A0A5144C9F80020196012F0070100F087
S214082F401481C1F10800C1F580510244083102EB32
S214082F500B09C9F30B09A1EB090949462846019351
S214082F60009200F0C5F9431C9DE80C0000F0428171
S214082F70801A484440F001001968BC424944BA60C7
S214082F801960506017D0B8F10F0F40F2FA804FF072
S214082F90050C6268A8F10C0020F0070002F0010298
S214082FA004EB000E02430F286260CEF804C0CEF889
S214082FB008C000F216811D4BBC681A68914288BF8B
S214082FC019601B4B1A689142626888BF196022F024
S214082FD003029642A2EB060301D80F2B04DC284610
S214082FE000F080F900244DE746F0010243F00103A3
S214082FF0264462602846BE600834736000F072F9A2
S214083000204603B0BDE8F08F142B70D9542B00F27D
S214083010A280330B03F16F0003F16E0EC1008DE63C
S21408302068050720380D0720080D0720300D0720F3
S214083030340D072070050720700907205A0A042A4D
S2140830405BD9142A00F2AE8002F15C01C9005B323B
S21408305007EB010C7958ACF1080C8C4500F0888019
S2140830604A6822F00302934273D289688C45F7D1E6
S214083070DCF80C307A68E360C4F808C09C60CCF8CA
S2140830800C409EE646F0010C42F001012644C4F8C6
S21408309004C028467E613E61C6F80CE0C6F808E023
S2140830A07160E25000F01EF90834EBE67A6888E6AC
S2140830B008F1010818F0030F0CF1080C7FF493AE22
S2140830C02DE0DC68A34208BF02303FF44BAEC9E6E9
S2140830D01C4619444A68DB6854F8086F42F0010237
S2140830E04A602846F3609E6000F0FCF8CAE603F1E2
S2140830F05C0003F15B0EC10020E69A0902F1390173
S214083100C9003832A4E7BC4254D0BC68626822F0D2
S21408311003025EE759F80839994540F0868010F0B2
S214083120030F00F1FF30F5D17B6823EA04037B60C8
S21408313064009C423FF6C8AE002C3FF4C5AE1C4265
S21408314040467FF44CAE64001C4200F10400FAD0FE
S21408315045E68C468CE7B3F5AA7F15D8F30B03F142
S214083160780003F1770EC100E8E54FF48051EEE6EB
S21408317001217B68921001FA02F21A437A606346CC
S21408318079E7012353602AE740F25452934222D843
S214083190B30C03F17D0003F17C0EC100CEE503F10C
S2140831A0100BAFE6542A29D81A0B02F16F01C90092
S2140831B06E324DE7204B196859441960B3E6CAF3D6
S2140831C00B0000287FF4AFAE08EB0B03BA6843F099
S2140831D001035360EFE67F204FF47E714FF07E0EBA
S2140831E0ACE504F108012846009303F045FD009B72
S2140831F01968E0E601204FF00009BDE6B2F5AA7F9F
S21408320005D8DA0B02F17801C900773220E740F2D8
S21408321054518A4205D89A0C02F17D01C9007C32C5
S21408322016E74FF47E717E2212E77B6880E7F00887
S21408323006F108030EE600BF080D072070B48607DF
S21408324046D0541E002A41D0CAB2034602E014F102
S214083250FF343BD303F8012B9D07F8D1032C2ED956
S214083260CDB245EA05250F2C45EA054519D9264667
S21408327003F11002103E0F2E42F8105C42F80C5C68
S21408328042F8085C42F8045C02F11002F2D8A4F195
S214083290100222F00F0204F00F041032032C13441D
S2140832A00DD91E462246043A032A46F8045BFAD885
S2140832B0221F22F003020432134404F003042CB144
S2140832C0C9B21C4403F8011B9C42FBD170BC704772
S2140832D014460346C2E700BF014803F075BF00BFA7
S2140832E06C270720014803F071BF00BF6C27072032
S2140832F038B50023064C054608462360FEF71EFB35
S214083300431C00D038BD2368002BFBD02B6038BD8B
S2140833108027072000290CBF022200224FF4806372
S21408332000F000B82DE9F043614D83B02D680446DF
S2140833300F4690461E4615B1AB6B002B64D0B8F10D
S214083340020F06D0B8F1010F00F29F80002EC0F2DF
S2140833509C80636ED80734D52146284603F00EFBBA
S214083360216B41B104F14003994202D0284603F08C
S21408337083FC002323630022B4F90C30A261626048
S2140833801A063AD423F44A6323F00303B8F1020F6B
S214083390A3811DD001AB6A462146284603F018FFD4
S2140833A0A3891843A081002E32D1009E3046FFF72D
S2140833B09BFC074600286BD0A38943F08003A381B3
S2140833C028E0A3899905C7D4A06D03F0FDFEC3E7DE
S2140833D0002500260120616E04F1430243F0020333
S2140833E0A660CE07A38160612260226101D4980599
S2140833F03ED5284603B0BDE8F0832169284603F089
S2140834003BFCB4F90C30BDE7284603F00FFB96E703
S214083410002FCBD0AB6B002B33D0009BB4F90C201D
S2140834209E421CBF42F40062A281B8F1010F04BF9D
S21408343042F00102A28192B212F0080327602761C7
S21408344066610ED0D1071AD50023656E764215F050
S2140834500105A661A36009D00025284603B0BDE88B
S214083460F083A360656E15F00105F5D19305C0D409
S214083470A06D03F0ABFE284603B0BDE8F083A66057
S214083480F0E7284603F0D2FAC7E74FF0FF35B0E773
S214083490DDF80090B14504D04846FFF725FC0746FE
S2140834A020B9B4F90C304FF0FF3592E74E4683E763
S2140834B0380107200EB40146F0B56FF000454FF40A
S2140834C002774FF6FF769CB021AC54F8042B0B4BD2
S2140834D002910691186802A923460194ADF8147063
S2140834E004950795ADF8166000F038F80022029BA0
S2140834F01A701CB0BDE8F04003B0704738010720CA
S21408350020F0030110F00300C0F1000051F8043B5E
S21408351000F1040C4FEACC0C6FF000021CBF22FA34
S2140835200CF213434FF0010C4CEA0C2C4CEA0C4CF2
S214083530A3EB0C0222EA030212EACC1204BF51F8EB
S214083540043B0430F4D0C2F1000102EA0102B2FAE8
S21408355082F2C2F11F0200EBD20070472DE9F04F4D
S214083560C3B00C460B9192460F930C9003F01AFECC
S214083570036818461A93FFF7C3FFA389199019061C
S21408358003D52369002B01F0358000230DF1C80907
S214083590C84615931393149318931B93099316937D
S2140835A0179327932693CDF894909AF800305446AC
S2140835B0EBB1252B02D11AE0252B03D014F8013FD6
S2140835C0002BF9D1A4EB0A058DB1269B279A013367
S2140835D02A44072BC8F800A0C8F804502792269358
S2140835E000F38A8008F10808099B2B44099323787E
S2140835F0002B00F0898000234FF0FF301A468DF824
S214083600773019460D939B46637804F1010A0A90B1
S2140836100AF1010AA3F12000582800F2B783DFE870
S21408362010F04C03B503B5035403B503B503B5034F
S214083630B503B503B50359005903B503660014026C
S214083640B5032F02A503A503A503A503A503A50394
S214083650A503A503A503B503B503B503B503B503CD
S214083660B503B503B503B503B5038B02D302B5039B
S214083670D302B503B503B503B5031B03B503B503FA
S2140836802003B503B503B503B503B5033402B50384
S214083690B5034B02B503B503B503B503B503B503C8
S2140836A0B503B503B503B50376029E03D302D3026A
S2140836B0D30263039E03B503B5036803B503750316
S2140836C0DD018C035E03B503F201B5038700B5037D
S2140836D0B50332030F9C236818460D93234600282B
S2140836E003F104030F9304DA0D9B5B420D934BF032
S2140836F0040B9AF800308BE725AA0B990C9804F06F
S2140837000BFC40B9C8466FE7279B23B10C9825AA3F
S2140837100B9904F001FC0B9B9B8913F0400F099B47
S21408372018BF4FF0FF330993099843B0BDE8F08FF0
S2140837301BF0200F119340F0AF810F9A1BF0100F6B
S214083740134640F09A851BF0400F00F0968500253A
S2140837500123148804320F92002217468DF877202A
S2140837600A994A1C00F010822BF08002079254EA4D
S214083770050240F00F82002940F03184002B40F00B
S21408378039851BF001030E9300F06286302342AEA3
S21408379006F8413D0A9B0E9A9342B8BF1346089313
S2140837A00023129317B1089B01330893079B13F065
S2140837B00203109302D0089B02330893079B13F06A
S2140837C0840540F010830D9B089AA3EB020BBBF10F
S2140837D0000F40F30883BBF1100F40F3B287279C15
S2140837E043462146A8461027269A0C9C0B9D06E0C1
S2140837F0ABF1100BBBF1100F03F1080318DD013213
S214083800AB481031072A2791269283E88100EFDD1E
S21408381025AA2946204604F07FFB00287FF47BAFC4
S214083820ABF1100BBBF1100F4B462799269AE6DC36
S21408383045460C46984601329D4B5C44072A279419
S214083840269288E8080800F3C3829DF8777008F186
S214083850080887B10121269B0C440B440DF177021A
S214083860072B27942693C8F80410C8F8002000F3FE
S214083870CD8308F10808109B7BB10221269B0C44D7
S21408388001331EAA072B27942693C8F80410C8F8F5
S214083890002000F3118408F10808802D00F0048346
S2140838A00A9B0E9A9F1A002F37DD102F40F3798651
S2140838B0804D42462146B0464FF0100B2E46269BBA
S2140838C00C9C0B9D04E0103F102F02F1080215DD3A
S2140838D001331031072B2791269382E84008F2DD42
S2140838E025AA2946204604F017FB00287FF413AFC4
S2140838F0103F102F4A462799269BE9DC35460C468A
S2140839004646904601333C44072B2794269388E87E
S214083910A00000F3708308F10808079BDF0500F194
S2140839206482269B0E9901330C44072B2794C8F80B
S2140839300060C8F80410269300F3B38308F108085B
S214083940079B5B073BD50D9B089A9D1A002D36DD15
S214083950102D40F321871026269B0C9FDDF82CB0EF
S21408396004E0103D102D08F1080816DD0133504A12
S2140839701034072B2794269388E84400F1DD25AAFF
S2140839805946384604F0C8FA00287FF4C4AE103DFD
S214083990102DC846279C269BE8DC0133444A2C4455
S2140839A0072B2794269388E8240008DD25AA0B9978
S2140839B00C9804F0B1FA00287FF4ADAE279C099B5A
S2140839C00D9A08998A42ACBF9B185B180993002C7D
S2140839D040F0FB820023C8462693E6E511931BF0C9
S2140839E0200340F045811BF0100240F066841BF06F
S2140839F0400300F062840F9913460A4604320C8886
S214083A0000250F92A8E600250F9A119316688DF8E0
S214083A107750141D002E00F0CD860A9A531C00F02D
S214083A201B862946304603F061FC002800F00D8707
S214083A30831B0A950E930F94CDF81CB023EAE37304
S214083A40089312959DF87770ACE69AF800300AF15C
S214083A5001042A2B00F0C287A3F130000928A246E9
S214083A6000F2188700231C461AF8013B04EB84046E
S214083A7000EB4404A3F130000928F5D90A94C9E5F7
S214083A804BF0800B9AF80030C2E54BF0100B1BF099
S214083A90200F11933FF451AE0F9C073424F0070310
S214083AA003F10802D3E900450F92012354E600BF4C
S214083AB020880800308808001193002A40F0AD8757
S214083AC0BE4B1BF0200F189340F0E7800F9A1BF0B0
S214083AD0100F134640F0D8831BF0400F00F0D48335
S214083AE00025043314880F931BF0010F00F0E380C1
S214083AF054EA050300F0DF8030239DF844208DF853
S214083B0078308DF879204BF0020B022324E6012248
S214083B101193002311460F98089202681F468DF8E5
S214083B2077300A931293031DCDF81CB00E918DF8CA
S214083B30A0200F9328AE39E61193002A40F0848718
S214083B404BF0100B1BF0200F40F075840F9A1BF0FB
S214083B50100F134640F09D831BF0400F00F099832A
S214083B60B2F900400433E5170F9322462B46002A85
S214083B7073F10003C0F298830A999DF877704A1C7F
S214083B804FF001037FF4F0AD54EA050200F02982F5
S214083B90CDF81CB0012B00F00E83022B40F09C825F
S214083BA04E461898230943EA0573290904F00F02BC
S214083BB00D461C46835C06F8013D54EA0503F1D120
S214083BC0A9EB06030E93E5E51193002A40F0388723
S214083BD00F9C1BF0080F04F1070400F0CF8424F0B4
S214083BE0070303F108020F921A685B68159214938C
S214083BF0149B159D23F00044284621464FF0FF32BB
S214083C006F4BFEF76BFD002840F0348428462146AB
S214083C104FF0FF326A4BFEF743FD002840F02A8437
S214083C2015A80DC81499FEF731FD002840F0D48574
S214083C309DF8777003231A4608930023614E1946A9
S214083C400A93614B0E92119A2BF0800007901291FE
S214083C50472AD8BF1E46A5E54BF0080B9AF8003051
S214083C60D6E44BF0100B11931BF020033FF4BBAEC9
S214083C700F9C073424F0070303F10802D3E9004534
S214083C800F92002368E51193002A40F0C2864F4B36
S214083C901BF0200F18933FF419AF0F9C1BF0010F71
S214083CA004F1070424F0070303F108020F92D3E98E
S214083CB000457FF41DAF02234EE59AF80030002930
S214083CC07FF4A6AC01222021A2E44BF0010B9AF85F
S214083CD000309DE49AF8003001222B2198E44BF03E
S214083CE0200B9AF8003093E44BF0400B9AF800301B
S214083CF08EE49AF800306C2B03BF9AF801304BF02C
S214083D00200B0AF1010A4BF0100B81E4002A40F060
S214083D107C861BF0200F40F052841BF0100F40F0FA
S214083D2038841BF0400F00F034840F9A136804326E
S214083D300F92BDF824201A8037E4782330220F9893
S214083D408DF879301193031D0F93204B0468189350
S214083D504BF0020B8DF8782000250223FCE4119323
S214083D60002A3FF4EFAE8DF87710EBE60020044605
S214083D70A3F130001AF8013B04EB840400EB44047A
S214083D80A3F130000928F5D90D9443E41193002ACD
S214083D9040F04A86119A002A3FF4B6AC0023012167
S214083DA01F4608918DF8A020CDF81CB08DF8773006
S214083DB00A9312930E9128AEF8E400BFEC87080029
S214083DC0FFFFEF7FE0870800DC8708000088080010
S214083DD025AA0B990C9804F09FF800287FF49BAC52
S214083DE0C8469DF87770279C33E5119B652B40F3F2
S214083DF09A8015A80DC81499FEF73EFC002800F016
S214083E0093810121269BB54A0B440C44072B279423
S214083E102693C8F80410C8F8002000F3C68308F1F3
S214083E2008081F9B139A279C934203DB079BDD0712
S214083E307FF586AD269B199901331A9A0C44072BF1
S214083E40C8F80020C8F804102794269300F3C48303
S214083E5008F10808139B5E1E002E7FF771AD102E22
S214083E6040F3758522461027269B9D4DDDF830B019
S214083E700B9C05E008F10808103E102E40F325823A
S214083E8001331032072B2792269388E8A000F1DD2D
S214083E9025AA2146584604F03FF800287FF43BAC94
S214083EA0C846279A269BE7E70D9B089A9F1A002F75
S214083EB07FF7F6AC102F40F3A884894D424621467A
S214083EC0B0464FF0100B2E46269B0C9C0B9D04E02C
S214083ED0103F102F02F1080215DD01331031072BB1
S214083EE02791269382E84008F2DD25AA294620462F
S214083EF004F012F800287FF40EAC103F102F4A4644
S214083F002799269BE9DC35460C46464690460133FB
S214083F103C44072B2794269388E8A00000F39E824B
S214083F2008F10808BCE4139B012B40F34F820123D9
S214083F30269F1C441F44072F2794C8F8006026971E
S214083F40C8F8043000F35F8208F10808199A0137A8
S214083F501A9B1444072F27942697C8F80030C8F8E9
S214083F60042000F35C8208F1080815A80DC8149907
S214083F70FEF782FB139B002840F04181013B013786
S214083F8001361C44072FC8F8006026972794C8F8FF
S214083F90043000F3668108F108081B9A01371444B8
S214083FA021AB072F27942697C8F80420C8F80030B6
S214083FB07FF7C4AC25AA0B990C9803F0ADFF002830
S214083FC07FF4A9ABC846279CBAE425AA0B990C9897
S214083FD003F0A2FF00283FF4FDACFFF79CBBDDF81A
S214083FE01CB0012B00F07E81022B71D1CDF81CB0DD
S214083FF000240025D4E525AA0B990C9803F08CFF1D
S21408400000287FF488ABC846279C86E425AA0B9927
S2140840100C9803F081FF00287FF47DABC846279CE8
S21408402029E40120269B2D4A03440444072B2794A1
S2140840302693C8F80400C8F8002040F3D88225AABA
S2140840400B990C9803F068FF00287FF464ABC84609
S2140840501F99279C29B9139B1BB9079BD8077FF57F
S2140840606FAC1998269B0246013322441A9C072BEC
S2140840702792C8F80040C8F80400269300F3318455
S21408408008F108080029C0F20984139901338C182E
S214084090072B27942693C8F80060C8F804107FF703
S2140840A04DAC25AA0B990C9803F036FF00287FF430
S2140840B032AB279CC84643E425AA0B990C9803F014
S2140840C02BFF00287FF427ABC846279CFFF7E5BBE5
S2140840D000240025CDF81CB0494604E01C880800DA
S2140840E0308808003146E20842EA4572E80804F0DB
S2140840F0070305461446303354EA050201F8013C26
S21408410001F1FF36EED1079AD2077FF559AD302B6D
S2140841103FF456AD3023023906F8013CA9EB0103FB
S2140841200E930E46FFF736BB1F9900297FF779AF27
S214084130129B139A9342A8BF1346002B1F460BDD0B
S214084140269B3C440133072B279488E8C000269317
S21408415000F3FB8208F10808129B002FA8BFDB1BA0
S214084160002B1F4640F3D780102B40F33484BA4DFB
S21408417042462146B0464FF0100B2E46269B0C9C16
S2140841800B9D04E00832103F102F40F3B580013332
S2140841901031072B2791269382E84008F2DD25AADE
S2140841A02946204603F0B8FE00287FF4B4AA4A46FB
S2140841B02799269BE7E7002D08BF0A2CC0F09080B9
S2140841C04E46204629460A22002304F047F9303294
S2140841D006F8012D2046294600230A2204F03EF957
S2140841E004460D4654EA0503EBD1A9EB06030E93E5
S2140841F0FFF7D0BA0A9B4E460E93FFF7CBBA5E1E61
S214084200002E7FF7CAAE102E40F3E38322464FF007
S214084210100B914D0C9C04E0103E102E08F1080877
S21408422015DD01371032072F2792269788E82008D1
S214084230F2DD25AA0B99204603F06EFE00287FF4CF
S2140842406AAA103E102EC846279A269FE9DC14460E
S21408425001373444072F2794269788E860007FF7AD
S2140842609AAE25AA0B990C9803F056FE00287FF400
S21408427052AA279C269FC8468FE604321C6800254B
S21408428001230F92FFF768BA1C6804330F930025C2
S2140842902AE41C680433E51722460F932B46002AA7
S2140842A073F10003BFF668AC2D27644265EB45053D
S2140842B08DF877700123FFF753BA0F9900250A4641
S2140842C004320C680F92FFF747BA14460133344499
S2140842D0072B2794269388E860007FF72FABE0E645
S2140842E0DDF81CB0012342AE3034CDF81CB006F819
S2140842F0414D0E93FFF74EBA35460C464646904655
S21408430001333C44072B2794269388E8A00000F343
S214084310468208F108081F9A139B9A4245DB079BBA
S214084320D90742D4139B12989A1A1D1A9542A8BF09
S2140843301546002D0EDD2699064401312C44072922
S214084340C8F800602794C8F80450269100F316822F
S21408435008F10808002DB4BF1646561B002E7FF736
S214084360EFAA102E40F3F38222461027269B3A4DDA
S214084370DDF830B00B9C04E008F10808103E102E5B
S214084380A3DD01331032072B2792269388E8A00076
S214084390F2DD25AA2146584603F0BEFD00287FF424
S2140843A0BAA9C846279A269BE8E7269B1998013398
S2140843B01A990444072B2794C8F80010C8F8040074
S2140843C0269300F3CF8108F10808ABE7079BDA07C6
S2140843D03FF5ADAD0123269F1C441F44072F2794A5
S2140843E0C8F800602697C8F804307FF7D4AD25AA29
S2140843F00B990C9803F090FD00287FF48CA9C8460A
S214084400279C269FC9E525AA0B990C9803F084FDDE
S21408441000287FF480A9C846279C269F96E525AAEB
S2140844200B990C9803F078FD00287FF474A9C84609
S214084430279C269F99E50F9C073424F0070404F16F
S2140844400801D4E900230F9114461D46FFF78FBBD9
S2140844504E46FFF79FB900BF3088080025AA0B997B
S2140844600C9803F059FD00287FF455A9C846279CE8
S214084470FFF716BA159C22462046149C234621466A
S214084480FEF72CF9002840F073820A9B0133119B33
S21408449023F020030E9300F09C81472B00F0D68073
S2140844A04BF480730793149B1F1E159B0893B7BF86
S2140844B03B46002303F100472D231093119B662BE0
S2140844C000F09081462B00F0A48002200E9B23A9C2
S2140844D0452B0ABF0A9B0A9D5D1C8DE821000491A6
S2140844E020A81FA93B460390089A02910C9801F051
S2140844F087FA119B0646672B40F0BA811BF0010F1E
S21408450000F023827419169A0898179B3946FEF706
S214084510B3F8002840F02481239BA34206D230211A
S2140845205A1C23921970239B9C42F9D89B1B139301
S2140845300E9B472B00F0A280119B652B40F3A781AA
S214084540119B662B1F9B129300F07181139B129A86
S2140845501946914200F35D811BF0010F40F0F0818F
S21408456022EAE273089367230E921193109B002B9E
S2140845707DD10A939DF87770FFF714B924F00704E5
S214084580236815936368149304F108030F93FFF7E1
S2140845902FBB0F9A136804320F92099A1A60FFF716
S2140845A004B8269BAF4DFFF7ADB925AA0B990C9812
S2140845B003F0B2FC00287FF4AEA8C84631E40F9A90
S2140845C0134604330F93099B1168DD171A462B46CA
S2140845D0C1E90023FEF7E9BF25AA0B990C9803F05A
S2140845E09BFC00287FF497A8C846279C32E408F16D
S2140845F008082FE540210C98FEF77EFB0B9A106002
S2140846001061002800F0148240230B9A5361FEF7CD
S214084610BCBF03200A9C23A98DE81100049120A89A
S2140846201FA90390089A3B4602910C9801F0E8F9F6
S21408463025460646119B7419462B7FF464AF3378DB
S214084640302B00F087811F9D2C445CE70A9B002BCB
S21408465008BF01230A9323E730460A95FEF750FF62
S2140846600F940E90CDF81CB00346FFF7E7B92D2738
S21408467000238DF877700A93FFF795B81F9B1A46A4
S2140846801293033304DB0A9B19469142BFF65EAFCA
S214084690119B023B1193129B9DF84420013B002B73
S2140846A08DF88420B4BF2D222B221F93B8BF129BEF
S2140846B08DF88520B8BFC3F10103092B40F31F818D
S2140846C00DF193000146684C00E0114684FB035246
S2140846D0DD17C5EBA20505EB8502A3EB42023032D7
S2140846E0092D01F8012C2B4601F1FF32EDDC3033A1
S2140846F00239DCB2884202F8014C40F292810DF190
S2140847008601134601E013F8014B834201F8014B7A
S214084710F9D101339B1A0DF18602134421AA9B1A7C
S214084720139A1B93012A13440E9340F348810E9B59
S214084730199A13440E9323EAE373089300231293FB
S21408474014E7279C269AFFF776B825AA0B990C98A3
S21408475003F0E2FB00287EF4DEAFC846279CFBE4A5
S2140847602346E3E625AA0B990C9803F0D5FB002808
S2140847707EF4D1AFC8461F9A279CD3E525AA0B9985
S2140847800C9803F0C9FB00287EF4C5AF1F9A139B4C
S214084790C846279C9A1ADDE5269BFFF7FEB825AA89
S2140847A00B990C9803F0B8FB00287EF4B4AFC84603
S2140847B0279CB0E50A9B3746062B28BF06230A9691
S2140847C0129608930F94CDF81CB00E93274EFEF75A
S2140847D0E9BF06230A9363E62D231F468DF8773034
S2140847E0FFF728BA03200A9C23A98DE81100049134
S2140847F020A81FA90390089A3B4602910C9801F03E
S214084800FFF825460646041919E7269B154DFFF7B7
S2140848107EBB199A139B1344129A0E93002A40F3F0
S214084820C78023EAE3730893672311939EE6002B59
S21408483040F3E1800A9A002A40F0B0801BF0010F8E
S21408484040F0AC8008930E9390E60A9B0F9408936A
S2140848500E930A90CDF81CB012909DF87770FEF76C
S214084860A1BF00BF3088080067666666148808001F
S214084870119B472B7FF446AE1BF0010F7FF4DAAE90
S214084880239B9B1B13930E9B472B3FF4F7AE1F9B54
S214084890129300E700200A90FEF7BCBE4F42103184
S2140848A035DA10246A4DDDF830B004E008F108085F
S2140848B0103F102F2CDD01331032072B279226933A
S2140848C0C8F80050C8F80440F0DD25AA0B995846E9
S2140848D003F022FB00287EF41EAFC846279A269BC4
S2140848E0E6E725AA0B990C9803F016FB00287EF439
S2140848F012AFC8461F99279A269BFFF7C3BB3022DC
S21408490013448DF887308DF8862022AB06E7504D85
S21408491001333A44072B88E8A0002792269308F12B
S21408492008087FF7B2AB25AA0B990C9803F0F4FA9F
S21408493000287EF4F0AEC846279A269BFFF7A5BB4C
S214084940129B199A13440E936BE7239BEEE5269B5E
S2140849503F4DBBE4169A0898179B3946FDF78CFE20
S21408496000287FF470AEC5F101051F952C44CAE5F2
S214084970149B384E002BBEBF2D231F468DF877306C
S2140849804FF003031A4608934FF00003A8BF9DF89C
S214084990777019460A93304BFFF754B9129B199A49
S2140849A013440A9A1A4422EAE2730E920893DDE543
S2140849B0129B0E9AC3F101031A441346C3E71BF071
S2140849C0010312937FF4B3AE0E9B23EAE3730893B6
S2140849D0CCE51F4D3CE4269B1D4D91E40F9D9AF8AF
S2140849E001302868A24640EAE0700A90284604305B
S2140849F00F90FEF70DBE0A9B13B91BF0010F02D0ED
S214084A00199B0133CDE701231CE78DF87710FFF7D4
S214084A1080B98DF87710FFF73AB98DF87710FFF759
S214084A204FB80DF1860379E68DF87710FFF7B2B91F
S214084A304FF0FF320C2309920C9A1360FEF774BEEF
S214084A408DF87710FFF7C4B88DF87710FFF778B8A9
S214084A5030880800E8870800E48708002DE9F84F42
S214084A604B6E93469C042FD59368126853B30E4634
S214084A70074602F1080919E920045FEA9A0817D0E0
S214084A800024043D01E0A04510D0324655F8041F26
S214084A90384602F06DF8431C04F10104F3D10023F4
S214084AA0CBF80830CBF80430BDE8F88FDBF80830D0
S214084AB02AF0030AA3EB0A03CBF8083009F1080921
S214084AC0002BD8D10020EAE702F0BCF90023CBF887
S214084AD00830CBF80430BDE8F88F00BF2DE9F04F5A
S214084AE0ADB01D468B4690460793069018B1836B6B
S214084AF0002B00F0F380DBF86430BBF90C00DF070E
S214084B0081B202D48E0540F1FC808C040AD4DBF80E
S214084B10643040F4005123F40053ABF80C10CBF883
S214084B20643089B2080740F1B380DBF81030002BF8
S214084B3000F0AE8001F01A030A2B00F0B5800023BF
S214084B400DF1700AD1460B93039311931093CDF889
S214084B503CA0CDF810B098F800304446FBB1252BA1
S214084B6002D11CE0252B03D014F8013F002BF9D105
S214084B70A4EB08059DB1109B119A01332A44072B14
S214084B80C9F80080C9F80450119210937ADD002AFB
S214084B9040F0B584D146039B10922B4403932378A8
S214084BA0002B00F0E58300204FF0000304F1010815
S214084BB08DF8373062780646054603464FF0FF34D0
S214084BC008F10108A2F12001582900F2D982DFE88D
S214084BD011F02802D702D7023002D702D702D7022E
S214084BE0D702D702D702A0008802D702A800B802C8
S214084BF0D702A601AB01AB01AB01AB01AB01AB0120
S214084C00AB01AB01AB01D702D702D702D702D70256
S214084C10D702D702D702D702D702B901D702D702DE
S214084C20D702D702D702D702D702D702D702D702AF
S214084C309E01D702D702D702D702D702A201D7020F
S214084C40D7025A02D702D702D702D702D702D7020C
S214084C50D702D702D702D70261022202D702D702AA
S214084C60D70276022202D702D7027B02D702FC01BD
S214084C7089011002D202D7029502D702AD00D702E8
S214084C80D702350209F10809039B2B44039386E7EC
S214084C905946069800F0AAFD18BBBBF80C1001F0A0
S214084CA01A030A2B7FF44BAFBBF90E30002BFFF626
S214084CB046AFDBF86430DB0705D48F0503D4DBF892
S214084CC0580002F083FA2B4642465946069800F0EA
S214084CD049FD039003982DB0BDE8F08F01F0A6FEBD
S214084CE009E7DBF86430D90704D4BBF80C309A051A
S214084CF040F1AE844FF0FF33039303982DB0BDE820
S214084D00F08FDBF8580002F05FFABBF90C0081B2AE
S214084D10FBE607990A460D680432002D079202DA68
S214084D206D4243F0040398F8002049E708959E066C
S214084D3000F15A840799DD060A4600F1EF83580603
S214084D4040F1EC83002701220E88043107914FF0CA
S214084D50000100258DF83710611C00F0178123F03C
S214084D608001029156EA070140F01581002C40F0B8
S214084D705B83002A40F0B68313F00103059300F026
S214084D80558430230DF1B00B0BF8413D059BA3422B
S214084D90B8BF234601930DB101330193029B13F06C
S214084DA00203099302D0019B02330193029B13F07E
S214084DB084030A9340F01582089B019A9D1A002DD9
S214084DC040F30F82102D40F38484109BCE461027A4
S214084DD0A146119AC54E1946069C07E001F1020C39
S214084DE001460EF1080E103D102D11DD481C10323C
S214084DF0072811928EE8C0001090EFDD002A40F0D8
S214084E00D981103D102D11464FF0010CD646EDDC29
S214084E104C466146F1462A4407291192C9F80060B3
S214084E20C9F80450109100F3EB829DF8375009F149
S214084E300809481C002D40F0DC81099B002B00F077
S214084E40F68102210EAB0A44072811921090C9F881
S214084E500410C9F8003040F3E681002A40F0958334
S214084E600A9B0120802B1146D14640F0E481089B1E
S214084E70019D5E1B002E40F3DE81102E40F33C841D
S214084E80CC461027A1469A4D069C07E001F1020E73
S214084E9001460CF1080C103E102E11DD481C10328D
S214084EA0072811928CE8A0001090EFDD002A40F049
S214084EB09B82103E102E4FF0010E1146D446EDDCB4
S214084EC04C46E1463244BEF1070F119289E860006D
S214084ED0CDF840E000F3668309F108090EF10100F9
S214084EE07146A8E1089513F0200240F0898313F074
S214084EF0100140F0198313F0400200F0158307985C
S214084F000A46014604310688002707911FE70895D8
S214084F1043F01003E7E7089543F0100307E743F06C
S214084F20800398F800204BE60025A2F1300118F817
S214084F30012B05EB850501EB4505A2F13001092992
S214084F40F5D93FE60895002840F0028443F01003A0
S214084F509E0600F13D830799DD060A4600F1F082B9
S214084F60580640F1ED82B1F900600432F717304672
S214084F7039460792002871F10002C0F25A83611C74
S214084F809DF837504FF001027FF4E9AE56EA070164
S214084F9000F04B820293012A00F08A82022A40F02F
S214084FA05A82D3460B98330943EA0773390906F041
S214084FB00F020F461E46835C0BF8013D56EA0703B0
S214084FC0F1D1AAEB0B030593E0E6002840F0BD8379
S214084FD0990600F15983DA0600F1E5805B0640F190
S214084FE0E280079A136804320792BDF80C201A80EC
S214084FF0B1E5782230210895079D8DF839202A1DBD
S21408500007923C4A2E680B9243F002038DF838103C
S214085010002702229BE60895002899D08DF837606D
S21408502096E798F80020002E7FF4CAAD01202026C7
S214085030C6E543F0010398F80020C1E50895002866
S21408504040F080832B490B919F0600F1E582079874
S214085050DE06014600F16F825D0640F16C8200278D
S214085060043106880791D80740F1208256EA0701DE
S21408507000F01C8230218DF8392043F002038DF8A9
S2140850803810022263E60895002840F055831A492E
S2140850900B91D9E7012207981146019202684FF052
S2140850A000048DF848200246043208958DF83740EB
S2140850B0059107920DF1480B029300246EE643F023
S2140850C0400398F800207BE598F800206C2A03BF78
S2140850D098F8012043F0200308F1010843F0100374
S2140850E06EE598F8002001202B2669E54088080020
S2140850F05088080000880800EC8708004FF0000277
S21408510007990895D1F800B08DF837200D1DBBF12A
S214085110000F00F0E482671C00F0C38222460021DC
S2140851205846019302F0E2F8019B002800F0E88256
S214085130A0EB0B020795059202939DF837500024C2
S21408514024E698F8002008F101072A2A00F0E982E8
S214085150A2F130010929B8464FF000043FF632ADF7
S21408516018F8012B04EB840401EB4404A2F1300187
S2140851700929F5D926E543F0200398F800201FE50D
S2140851800895002840F0DB82002A00F0F180012113
S2140851908DF848204FF0000201918DF837200591D0
S2140851A00DF1480B88E7079A136804320792039AAA
S2140851B01A60D0E40FAA04992046FFF74FFC00288F
S2140851C040F043811099D646119A01F1010C0AE67F
S2140851D00FAA04990698FFF741FC002840F035818D
S2140851E0D14610999DF83750119A481C002D3FF467
S2140851F024AE01210DF137050A44072811921090B4
S214085200C9F80410C9F8005040F30981002A40F094
S214085210AF81099B002B3FF423AE02220846D146F5
S2140852200EAB1D921C93014609F1080901300A9B32
S214085230802B3FF41CAE059BE41A002C2FDD102CA7
S21408524040F32082CE461026B24D069FDDF8109019
S21408525006E0881C19460EF1080E103C102C10DDCE
S2140852604B1C1032072B11928EE860001093F0DD6D
S214085270002A65D1103C102C4FF001001146D64686
S214085280EEDCF146224407281192C9F80050C9F806
S2140852900440109000F3858009F10809013005994B
S2140852A007280A441192C9F800B0C9F804101090EB
S2140852B040F38280002A40F01881029B109258071B
S2140852C035D5089B01995C1A002C40F3E780D14637
S2140852D0102C40F30D82102510998F4E069FDDF88E
S2140852E010B006E0881C194609F10809103C102C75
S2140852F011DD4B1C1032072B1192C9F80060C9F853
S21408530004501093EEDD42BB103C102C4FF0010009
S2140853101146D146EDDC224407281192C9F80060F0
S214085320C9F80440109051DD002A40F09A81039B8A
S214085330089A01998A42ACBF9B185B1803934EE003
S2140853400FAA49463846FFF789FB002840F03E81F9
S2140853501099D646119A481C7FE70FAA5946384630
S214085360FFF77CFB60B91099D146119A481CBDE737
S214085370119BDDF810B0002B40F0CA810023109373
S214085380DBF8643013F0010FBBF80C3002D19A0535
S21408539040F1DD805B063FF5ADAC03982DB0BDE867
S2140853A0F08F002A40F005810123D146059ACDF8F2
S2140853B070B01D921192109309F10809029B5907C3
S2140853C004D5089B01995C1A002C81DC039B08997C
S2140853D001988142ACBF5B181B18039372BB00236D
S2140853E0D1461093FFF7B7BB0FAA04992046FFF7DC
S2140853F035FB50BB1099D446119A01F1010E4AE5C7
S214085400002A7FF4E5AE9DF83710002900F01A81CF
S2140854100122D14610460DF137011D921C91014616
S21408542009F10809013008E5029B012A00F0978077
S214085430022A0DD1029300260027B2E50FAA049986
S2140854400698FFF70BFB0028C9D0DDF810B097E7E1
S214085450002600270293514600E05946F20842EA21
S2140854604772F80806F0070307461646303356EA2A
S214085470070201F8013C01F1FF3BEED1029AD6077C
S2140854807FF59FAD302B3FF49CAD302302390BF8E7
S214085490013CAAEB010305938B4677E4039B089A25
S2140854A08A42ACBF9B185B18039398E702224EE427
S2140854B0002F08BF0A2E51D3D346304639460A2253
S2140854C0002302F0CBFF30320BF8012D3046394668
S2140854D000230A2202F0C2FF06460F4656EA0703D2
S2140854E0EBD16EE50594D34650E40FAA04990698C6
S2140854F0FFF7B4FA0028A8D1D146119A5EE70FAA9A
S21408550004990698FFF7AAFA00289ED1D146FFF715
S214085510BBBB00BF508808004088080004311668E6
S21408552000270122079112E4079800270146043154
S214085530066807910BE40E6804310791002792E588
S21408554016680432F71707923046394612E5DBF834
S214085550580001F03BFEBBF80C301BE7029B029399
S21408556001230DF1B00B30360BF8416D05930DE4B1
S2140855700FAA04990698FFF771FA00287FF465AF1A
S2140855801099D146119A481C57E40FAA0499069810
S214085590FFF764FA00287FF458AF1099D146119A9D
S2140855A0481C44E6002A40F0878001201146D14670
S2140855B041E60FAA04990698FFF750FA00287FF4E8
S2140855C044AF1098D146119A013068E6CB46D7E624
S2140855D0079D073525F0070505F10802D5E90001FE
S2140855E0079206460F46C5E4079D073525F00702CD
S2140855F002F10801D2E9006707910122FFF7A7BB6D
S214085600079D073525F0070202F10801D2E9006771
S21408561007910022FFF79BBB079D073525F007017A
S21408562001F108000790D1E900671CE5D346FFF7AB
S214085630ADBB2D25764267EB47078DF8375001221C
S214085640FFF78ABB099BB3B911460120D146F2E59C
S214085650DBF8580001F0BAFD4FF0FF330393FFF76D
S2140856604CBB0FAA04990698FFF7F8F900287FF4B0
S214085670ECAE119AAAE602220EAB1D921C930120EC
S214085680D146D0E5344DFDE5079A13460433079313
S214085690039B1168DD171A462B46C1E90023FFF75E
S2140856A05ABA584607950293FDF72AFF0024059034
S2140856B09DF83750FFF76ABB0FAA04990698FFF7BC
S2140856C0CDF900287FF4C1AE1099D146119A481C2E
S2140856D0B1E51099119A0131204EFFF79CBB062CB4
S2140856E028BF0624079505940194DFF874B0E3E410
S2140856F010981A4E01300EE68646174DFFF7E2BBA5
S21408570005940795029304469DF83750FFF73EBB6D
S21408571006980FAA5946FFF7A1F900283FF42EAEBF
S2140857202EE6079998F801200C68043144EAE474D8
S214085730B8460791FFF744BA8DF83760A7E48DF8A6
S214085740376021E58DF837607CE48DF837603FE4F4
S2140857508DF83760FFF7FABB5088080040880800C5
S214085760148808002DE9F0410C464FF0000E4FF45F
S2140857708065064617469846626EE3898989ADF5C0
S2140857808D6D21F002011992ADF80E30E269636A58
S214085790ADF80C1016A81AA9CDF818E007920993C8
S2140857A0009104910295059501F00AFD43463A4694
S2140857B069463046FFF792F9051E07DB304669460C
S2140857C001F0DCF8002818BF4FF0FF35BDF80C30A4
S2140857D05B0603D5A38943F04003A381169801F01E
S2140857E0F1FC28460DF58D6DBDE8F08138B5304BD7
S2140857F0054618680C4610B1836B002B38D0B4F9F0
S2140858000C2093B218070CD52069A8B113F0010232
S2140858101ED000226369A2605B42A361F0B100203B
S21408582038BDD9063BD5580725D4206942F0080369
S214085830A3819BB20028E9D103F42072B2F5007F59
S214085840E4D02846214601F0F1FCA3892069DDE76B
S214085850990758BF6269A2600028E0D1B4F90C30F5
S2140858601A06DDD543F04003A3814FF0FF3038BD5C
S21408587001F0DCF8C3E7216B51B104F1400399420B
S21408588004D0284601F0F8F9B4F90C200023236365
S2140858900023206922F0240284E80900C6E70923C9
S2140858A042F040022B604FF0FF30A28138BD00BFA7
S2140858B038010720024B13B1024800F005B87047BC
S2140858C000000000A56A0800002301461A4618468C
